:100000000C9441000C94C1090C945C0B0C945C0B97
:100010000C945C0B0C945C0B0C945C0B0C94560BCA
:100020000C945C0B0C945C0B0C945C0B0C94A7076D
:100030000C945C0B0C945C0B0C945C0B0C945C0BA4
:100040000C945C0B0C945C0B0C945C0B0C945C0B94
:100050000C945C0B7A077E07830788078D0792074D
:1000600097079C070060068D80068D068F0016C8D6
:10007000068F069780069706990016CA069906A568
:10008000800011241FBECFE5D8E0DEBFCDBFE4E67F
:10009000F0E040E017C0B591A5913591259105910B
:1000A00007FD0CC095918591EF01F92FE82F059080
:1000B0000D92A217B307D9F7FE0104C01D92A21733
:1000C000B307E1F7E138F40731F70E94BD020C9461
:0600D000DF0AF894FFCFE7
:1000D600DF92EF92FF920F931F93CF93DF9380915E
:1000E6009F06811199C080918F0690919006019686
:1000F6009093900680938F06E0908F06F09090067E
:10010600E114F104B9F4809193069091940620913C
:10011600910630919206309394062093930690931D
:100126009206809391068091A0068F5F8093A00629
:100136000E94030A80918D0690918E06E816F906B4
:1001460028F4D12C53C0DD24D39401C0D12CE091E6
:100156009306F09194068081811107C08FEF9FEF7F
:1001660090938E0680938D0641C0E0919306F091A0
:1001760094060580F681E02DC681D7818A819B8110
:10018600E816F90628F490938E0680938D062EC005
:100196008E010E5F1F4FC8010E94EB088C899D8956
:1001A600892B21F0CE010C960E94EB088E89909146
:1001B600A306981710F48093A30690E09C01220FE3
:1001C600331F220F331F220F331F820F931FB801D5
:1001D6008A5A994F0E94E2099E89E0919506F0910C
:1001E60096068689981708F0AECFB1CFE0919506AE
:1001F600F0919606868990E0FC01EE0FFF1FEE0F48
:10020600FF1FEE0FFF1F8E0F9F1FFC01EA5AF94FCB
:100216008081823040F409C08091A2068F5F80936E
:10022600A206D12C02C0DD24D3948091A106882396
:1002360011F0DD24D3948D2DDF91CF911F910F9175
:08024600FF90EF90DF90089596
:10024E000F9331B3326031BB31B33E7F31BB3AB124
:10025E0038613AB9662319F0613029F007C030B51C
:10026E003F7730BD03C030B5306830BD2230F9F075
:10027E0028F4222341F0213081F036C0233009F1D9
:10028E00243049F131C02AB12B7F2AB920B52B7FFA
:10029E0020BD20B52D7F20BD27C02AB12B7F2AB9C6
:1002AE0020B52B7F20BD20B5226020BD1DC02AB1F8
:1002BE002B7F2AB920B5246020BD20B52D7F20BD0F
:1002CE0013C02AB12B7F2AB920B5246020BD20B5DA
:1002DE00226020BD09C02AB124602AB920B524604D
:1002EE0020BD20B5226020BD413059F018F04230BB
:1002FE0079F014C020B52F7D20BD20B52F7E20BDF6
:10030E000DC020B5206220BD20B52F7E20BD06C0B9
:10031E0020B5206220BD20B5206120BD002319F03C
:10032E00013029F007C020B5277F20BD03C020B5BE
:10033E00286020BD9C0122953295307F3227207F88
:10034E00322740E050E060E071E782E090E00E94EA
:10035E003A0A2150310929B930BD81E00F91089533
:10036E008F929F92AF92BF92EF92FF920F931F9335
:10037E00CF93DF937C01C62FD42FF901808181307A
:10038E0009F457C020F0823009F45DC068C00E94A5
:10039E00770AB70180E090E00E9430074B015C01C4
:1003AE0020E030E040EA51E40E94480B181624F099
:1003BE008C2F0E94C40853C020E030E040EA51E484
:1003CE00C501B4010E944D0B181614F520E030E063
:1003DE0040E252E4C501B4010E94480B1816C4F065
:1003EE0060E08C2F0E94A10681E0DA3F08F480E0E5
:1003FE0090E08E9DB0018F9D700D9E9D700D11240D
:10040E00660F771F660F771F8C2F0E94510A27C029
:10041E00F9E2EF1AF1088AE0E816F10400F560E05F
:10042E008C2F0E94A10660EA70E08C2F0E94510A68
:10043E0016C060E08C2F0E94A10660EA70E08C2F3F
:10044E000E94510A0CC060E08C2F0E94A10660EA47
:10045E0070E08C2F0E94510A81E0F8018083DF91B9
:10046E00CF911F910F91FF90EF90BF90AF909F9003
:04047E008F900895BE
:10048200823091F128F4882359F08130D9F008950F
:10049200843009F44DC0D0F1853009F45BC0089571
:1004A20083B78E7F83BF83B78D7F83BF83B78B7FF5
:1004B20083BF1092830610928406109285061092D2
:1004C2008606089583B7816083BF83B78D7F83BF1C
:1004D20083B78B7F83BF109283061092840610929B
:1004E200850610928606089583B78E7F83BF83B7F1
:1004F200826083BF83B78B7F83BF10928306109283
:1005020084061092850610928606089583B781604C
:1005120083BF83B7826083BF83B78B7F83BF109211
:10052200830610928406109285061092860608951C
:1005320083B78E7F83BF83B78D7F83BF83B784608A
:1005420083BF109283061092840610928506109241
:100552008606089583B7816083BF83B78D7F83BF8B
:1005620083B7846083BF1092830610928406109230
:0805720085061092860608952B
:10057A00EF92FF920F931F9343E060E081E00E94A5
:10058A004108909361008093600043E060E081E05D
:10059A000E944108909367008093660080E00E9461
:1005AA009B080E94D40A0E94250B60E085E00E9405
:1005BA00030B8BB340E060E00E9430030E94640AA0
:1005CA0000E023E040E061E080E690E00E9427013D
:1005DA008823D1F182E00E946F080E941F0B8111CB
:1005EA0003C060E00E94A1068FE19EE40197F1F743
:1005FA0000C000000E94220A909388068093870612
:10060A006091990680918706909188064DE956E097
:10061A000E94110980918706909188060F2EFBE9A6
:10062A00EF2EF6E0FF2EF02D0EE916E02091980647
:10063A0040E069E976E00E945A0980919B06813080
:10064A00C9F60E942B0BD6CF80E090E01F910F9144
:06065A00FF90EF900895EF
:10066000442319F04130C9F10895813091F028F008
:100670008230D9F0833029F108952AB381E090E0E7
:1006800002C0880F991F6A95E2F7809582238ABB82
:10069000089527B381E090E002C0880F991F6A9502
:1006A000E2F78095822387BB089524B381E090E030
:1006B00002C0880F991F6A95E2F78095822384BB58
:1006C000089521B381E090E002C0880F991F6A95D8
:1006D000E2F78095822381BB0895813089F028F06C
:1006E0008230C9F0833011F108952AB381E090E09F
:1006F00002C0880F991F6A95E2F7822B8ABB089582
:1007000027B381E090E002C0880F991F6A95E2F755
:10071000822B87BB089524B381E090E002C0880F4C
:10072000991F6A95E2F7822B84BB089521B381E07B
:1007300090E002C0880F991F6A95E2F7822B81BB77
:0207400008951A
:10074200442319F04130C9F10895813091F028F025
:100752008230D9F0833029F108952BB381E090E003
:1007620002C0880F991F6A95E2F7809582238BBB9E
:10077200089528B381E090E002C0880F991F6A951E
:10078200E2F78095822388BB089525B381E090E04B
:1007920002C0880F991F6A95E2F78095822385BB74
:1007A200089522B381E090E002C0880F991F6A95F4
:1007B200E2F78095822382BB0895813089F028F088
:1007C2008230C9F0833011F108952BB381E090E0BB
:1007D20002C0880F991F6A95E2F7822B8BBB08959E
:1007E20028B381E090E002C0880F991F6A95E2F772
:1007F200822B88BB089525B381E090E002C0880F68
:10080200991F6A95E2F7822B85BB089522B381E096
:1008120090E002C0880F991F6A95E2F7822B82BB93
:02082200089537
:100824000F931F93CF93DF930FB6F8940F92809199
:100834009F06815080939F0680919F06811157C027
:100844008091A406811132C055C0E0917F06F091D9
:100854008006C681D781CE010C960E94EB088E01DA
:100864000E5F1F4FC8010E94EB088E899091A3066A
:10087400981710F48093A30690E09C01220F331F75
:10088400220F331F220F331F820F931FB8018A5A7E
:10089400994F0E94E2099E89E0919506F09196068F
:1008A4008689981718F081E08093A10680917A06D2
:1008B4008111CBCF8091A20681110DC010C00E947E
:1008C4006B00882319F081E08093A1068091A20631
:1008D40081508093A2068091A2068111F0CF80916D
:1008E400A106813031F40E94A50581E003C080E0B7
:1008F40001C080E00F900FBEDF91CF911F910F9147
:02090400089554
:100906000FC00E94110B38F00E94180B20F095239F
:1009160011F00C94370B0C94590B11240C940B0BFF
:100926000E947D0970F3959FC1F3950F50E0551F06
:10093600629FF001729FBB27F00DB11D639FAA272E
:10094600F00DB11DAA1F649F6627B00DA11D661F7D
:10095600829F2227B00DA11D621F739FB00DA11D9E
:10096600621F839FA00D611D221F749F3327A00D58
:10097600611D231F849F600D211D822F762F6A2FF4
:1009860011249F5750409AF0F1F088234AF0EE0F59
:10099600FF1FBB1F661F771F881F91505040A9F786
:1009A6009E3F510580F00C94370B0C940B0B5F3F68
:1009B600E4F3983ED4F3869577956795B795F795C2
:1009C600E7959F5FC1F7FE2B880F911D969587953A
:0409D60097F90895F0
:1009DA000F920FB6F8940F921F9211242F923F9202
:1009EA004F925F926F927F928F929F92AF92BF9235
:1009FA00CF92DF92EF92FF920F931F932F933F9321
:100A0A004F935F936F937F938F939F93AF93BF930C
:100A1A00CF93DF93EF93FF93A0919506B09196063B
:100A2A000DB60D920EB60D920E946B0081110E94B6
:100A3A004905A0919506B0919606CD91CDBFDD915D
:100A4A00DEBFFF91EF91DF91CF91BF91AF919F915F
:100A5A008F917F916F915F914F913F912F911F914C
:100A6A000F91FF90EF90DF90CF90BF90AF909F9043
:100A7A008F907F906F905F904F903F902F901F9034
:080A8A000F900FBE0F900895BC
:100A920080919F06882321F081E08093A10608952A
:100AA2001092A10605C08091A30681508093A306EF
:100AB2008091A30690E0FC01EE0FFF1FEE0FFF1FD7
:100AC200EE0FFF1F8E0F9F1FFC01EA5AF94F808124
:100AD200882349F38091A30690E09C01220F331FE3
:100AE200220F331F220F331F280F391FD901AA5A91
:100AF200B94F1196ED91FC9112970280F381E02D8E
:100B02001296FC93EE931197275A394FE217F30787
:100B120029F422813381FD0132832183FC01EE0F0E
:100B2200FF1FEE0FFF1FEE0FFF1F8E0F9F1FFC0117
:100B3200EA5AF94F0180F281E02D868197819093E4
:080B42009606809395060895C4
:100B4A000F920FB6F8940F921F9211242F923F9290
:100B5A004F925F926F927F928F929F92AF92BF92C3
:100B6A00CF92DF92EF92FF920F931F932F933F93AF
:100B7A004F935F936F937F938F939F93AF93BF939B
:100B8A00CF93DF93EF93FF93A0919506B0919606CA
:100B9A000DB60D920EB60D920E944905A0919506CA
:100BAA00B0919606CD91CDBFDD91DEBFFF91EF9159
:100BBA00DF91CF91BF91AF919F918F917F916F916B
:100BCA005F914F913F912F911F910F91FF90EF905D
:100BDA00DF90CF90BF90AF909F908F907F906F9053
:100BEA005F904F903F902F901F900F900FBE0F90E5
:020BFA0008955C
:100BFC00CF92DF92EF92FF920F931F93CF93DF93DD
:100C0C008B01EA01BC0180E090E00E9430076B018F
:100C1C007C0120E030E048E452E40E94480B882339
:100C2C0074F48881882359F0F8011082188260E0EE
:100C3C0087E996E00E94C70A0E94770A17C020E055
:100C4C0030E048E452E4C701B6010E944D0B882302
:100C5C006CF0888181110AC081E0888361E087E9AA
:100C6C0096E00E94C70A85E00E944102F80180814B
:100C7C008E3060F08881823049F082E0888362E0B7
:100C8C0087E996E00E94C70A0E94770ADF91CF910C
:0E0C9C001F910F91FF90EF90DF90CF90089581
:100CAA000F931F93CF93DF93A82FCB010596A11D16
:100CBA00FC015A2F0E94FB0AFB01C681D7818E01D3
:100CCA00045F1F4FC8010E94EB0880919F068111A3
:100CDA001CC00A501109C8010E94EB088E89909124
:100CEA00A306981710F48093A30690E09C01220FA4
:100CFA00331F220F331F220F331F820F931FB80196
:100D0A008A5A994F0E94E20905C0B8018AE796E01B
:100D1A000E94E2099E89E0919506F09196068689DD
:100D2A00891720F481E08093A10601C080E0DF9159
:080D3A00CF911F910F91089564
:100D4200CF93C62F882319F0813009F13FC041E0CB
:100D520065E083E00E94A103CC2319F0C13061F069
:100D620035C041E061E082E00E94A10340E062E020
:100D720082E00E94A1032AC040E061E082E00E947A
:100D8200A10341E062E082E00E94A1031FC041E0B2
:100D920062E083E00E94A103CC2319F0C13061F02C
:100DA20015C041E062E082E00E94A10340E062E0FF
:100DB20082E00E94A1030AC040E062E082E00E9459
:100DC200A10341E062E082E00E94A103CF91089575
:100DD200CF93DF93EC010FB6F8940F92E881F9817B
:100DE2008B8D90E02C8D30E0829FA001839F500D6F
:100DF200929F500D11244E0F5F1F5B834A831A8E00
:100E0200FD83EC830197289FA001299F500D389FF5
:100E1200500D1124CF01840F951F9F838E838FEF76
:100E22008D8F8E8F61110DC08885882391F0289651
:100E3200BE0180E80E945506813059F40E94A50542
:100E420008C0CE0108960E94B90ACE0141960E94BE
:0E0E5200B90A0F900FBE81E0DF91CF91089595
:100E6000E89409C097FB3EF4909580957095619544
:100E70007F4F8F4F9F4F9923A9F0F92F96E9BB27FA
:100E80009395F695879577956795B795F111F8CF76
:100E9000FAF4BB0F11F460FF1BC06F5F7F4F8F4FE1
:100EA0009F4F16C0882311F096E911C0772321F0D7
:100EB0009EE8872F762F05C0662371F096E8862F6F
:100EC00070E060E02AF09A95660F771F881FDAF7C6
:0A0ED000880F9695879597F908950D
:100EDA00E82F84B195B18E2F90E08830910550F5B6
:100EEA00FC01E65DFF4F0C943D0B87B1887F87B903
:100EFA0021C087B1887F816087B91CC087B1887F8C
:100F0A00826087B917C087B1887F836087B912C0AA
:100F1A0087B1887F846087B90DC087B1887F856073
:100F2A0087B908C087B1887F866087B903C087B14F
:100F3A00876087B986B1806486B93699FECF84B155
:040F4A0095B10895C0
:100F4E001F920F920FB60F9211242F933F934F9330
:100F5E005F936F937F938F939F93AF93BF93EF9313
:100F6E00FF9380919C068F5F80939C0680919C06D8
:100F7E00803158F010929C060E94220AC29728F0E7
:100F8E00809199068F5F80939906FF91EF91BF91A3
:100F9E00AF919F918F917F916F915F914F913F9103
:0C0FAE002F910F900FBE0F901F90189510
:100FBA00CF93DF93EC010E94310B809189069091C7
:100FCA008A06892B31F48BE790E090938A06809306
:100FDA00890620918B0630918C06C9018C0F9D1FC2
:100FEA008B3D45E0940770F42817390770F4C091D7
:100FFA008906D0918A06C20FD31F90938C068093DC
:10100A008B0605C0C0E0D0E002C0C0E0D0E00E947C
:0A101A001204CE01DF91CF9108957A
:101024000E94850988F09F5798F0B92F9927B751E6
:10103400B0F0E1F0660F771F881F991F1AF0BA9578
:10104400C9F714C0B13091F00E940A0BB1E00895C1
:101054000C940A0B672F782F8827B85F39F0B93FB3
:10106400CCF3869577956795B395D9F73EF490952B
:0E1074008095709561957F4F8F4F9F4F089527
:101082000F931F93CF93DF93882301F1062F182F1D
:101092008FE190E00E94DD07EC01892BC9F0109FDF
:1010A200C001112401960E94DD0799838883892B50
:1010B20039F01B8F0C8F61E0CE010E94E90608C057
:1010C200CE010E94600BC0E0D0E002C0C0E0D0E0E0
:0C10D200CE01DF91CF911F910F91089586
:1010DE0091B39B7F91BBF894813069F028F08230F8
:1010EE00C1F0833079F01BC085B78D7F85BF85B782
:1010FE008E7F85BF14C085B78D7F85BF85B7816014
:10110E0085BF0DC085B7826085BF85B78E7F85BFD1
:10111E0006C085B7826085BF85B7816085BF8BB7F6
:08112E0080648BBF78940895E2
:10113600882319F08130A9F0089541E065E083E045
:101146000E94300341E061E082E00E94300341E00A
:1011560062E082E00E94300389E88FBD8BE08EBD9D
:10116600089541E062E083E00E94300341E062E0DE
:1011760082E00E94300341E062E082E00E94300398
:021186000895CA
:10118800882319F0813099F008951BBC1ABC40E0FF
:1011980065E083E00E94A10340E061E082E00E94F4
:1011A800A10340E062E082E00E94A103089540E0CC
:1011B80062E083E00E94A10340E062E082E00E94D6
:0E11C800A10340E062E082E00E94A1030895CE
:1011D600CF93DF93FC01A085B185C281D381848141
:1011E60095819D838C83C481D581828193819B83E4
:1011F6008A8311968D919C911297E817F90731F41D
:101206008481958112969C938E93119711861086F0
:0C1216008C9181508C93DF91CF91089552
:101222008233910570F06E3038F4FA0110828CE24C
:1012320091E00E94AB0A08958EE591E00E94AB0A0C
:1012420008959C01295231092A30310548F4FA01E6
:101252002081213029F48FEF90E00E94AB0A08959B
:0A126200FA0110820E94AB0A089501
:10126C00990F0008550FAA0BE0E8FEEF16161706AB
:10127C00E807F907C0F012161306E407F50798F013
:10128C00621B730B840B950B39F40A2661F0232B2C
:10129C00242B252B21F408950A2609F4A140A695A8
:0812AC008FEF811D811D0895E3
:1012B400AF92BF92CF92DF92EF92FF920F931F9360
:1012C400CF93DF93EC01B42EA22E68018701A6010F
:1012D4000E94FE0596014A2D6B2DCE010E94B70196
:1012E400DF91CF911F910F91FF90EF90DF90CF90FE
:0612F400BF90AF900895C9
:1012FA0057FD9058440F551F59F05F3F71F04795BD
:10130A00880F97FB991F61F09F3F79F087950895A1
:10131A00121613061406551FF2CF4695F1DF08C0C0
:10132A00161617061806991FF1CF869571056105DD
:04133A000894089576
:10133E00A1E21A2EAA1BBB1BFD010DC0AA1FBB1FCB
:10134E00EE1FFF1FA217B307E407F50720F0A21B3D
:10135E00B30BE40BF50B661F771F881F991F1A94AA
:10136E0069F760957095809590959B01AC01BD01D4
:04137E00CF010895FE
:101382001F920F920FB60F9211242F938F939F9358
:1013920080919A068F5F80939A0681E080939D06E2
:1013A2002FE788E391E0215080409040E1F700C0B0
:1013B20000009F918F912F910F900FBE0F901F9061
:0213C20018957C
:1013C400CF93DF939C01FB01DC011196CD91DC915D
:1013D4001297D383C2838C819D81958384838C816E
:1013E4009D81DC0113967C936E9312977D836C83AD
:1013F40031872087F90180818F5F8083DF91CF91CE
:02140400089549
:10140600E0919306F09194068081811107C08FEFD9
:101416009FEF90938E0680938D060895E091930634
:10142600F09194060580F681E02D0680F781E02D87
:0E1436008281938190938E0680938D06089597
:1014440080E00E946D07BC0180E090E00E943007BC
:1014540020E030E04AEF53E40E94520B20E030E0F9
:1014640040E85AE30E94520B0E941208CB010895EF
:10147400052E97FB1EF400940E94F30A57FD07D033
:101484000E949F0907FC03D04EF40C94F30A509574
:0E1494004095309521953F4F4F4F5F4F089583
:1014A200882319F0813041F00895769567957695F5
:1014B20067957BBD6ABD0895769567957695679524
:0614C20079BD68BD08952C
:1014C80083B78F7B83BF83B7877F83BF83B78F7EC5
:1014D80083BF83B78F7D83BF89B7816089BF8FB78B
:0614E80080688FBF08952B
:1014EE0083B78E7F83BF83B78D7F83BF83B78B7F99
:1014FE0083BF109283061092840610928506109276
:04150E0086060895B0
:10151200092E0394000C11F4882352F0BB0F40F4FF
:10152200BF2B11F460FF04C06F5F7F4F8F4F9F4F3F
:0215320008951A
:10153400262FE199FECF9FBB8EBBE09A01970DB297
:10154400021631F02DBB0FB6F894E29AE19A0FBE61
:021554000895F8
:10155600CF93DF93D82F892F0E94430BC82F8D2F4F
:0C1566000E94430B8C2BDF91CF91089565
:10157200FC010396928381832FEF3FEF3483238311
:0C158200968385839087878310820895EC
:10158E00262FE199FECF9FBB8EBB2DBB0FB6F894D5
:0A159E00E29AE19A0FBE019608954B
:1015A80060E087E996E00E949A0A60E087E996E0A1
:0615B8000E949A0A08954A
:1015BE00EC010E94620B0E94610BCE010E94630B34
:0615CE00CE010E945E0B3D
:1015D400CB01E199FECF9FBB8EBBE09A99278DB3D7
:0215E400089568
:1015E60090958095709561957F4F8F4F9F4F089589
:1015F60057FD03C0659175910895619171910895A4
:0E16060087B1806487B986B1876A86B9089576
:0E161400E894BB2766277727CB0197F9089546
:0E16220000240A9416161706180609060895E5
:0E16300000240A9412161306140605060895E7
:0C163E0067E976E080E80E94EA0A08955F
:0C164A0041E060E080E00E943003089561
:0C16560088E081BD81B5887F81BD0895CA
:0C16620080919F068F5F80939F06089583
:0C166E0097F99F6780E870E060E0089545
:0C167A00EE0FFF1F0590F491E02D099485
:0A1686008CB95E9BFECF81E0089551
:0A1690000E94360908F481E0089575
:0A169A000E94360908F48FEF08954E
:0816A4000E9483040C94890AE2
:0616AC000E94ED041895F8
:0616B2009FEF80EC08959B
:0416B8000C9400008E
:0416BC000E9469001F
:0216C00008958B
:0216C200089589
:0216C400089587
:0216C600089585
:0216C800FFFF22
:0116CA0040DF
:0116CB00FA24
:00000001FF
