:100000000C9447000C949D0A0C9476110C94761174
:100010000C9476110C9476110C9476110C9470114A
:100020000C9476110C9476110C9476110C94761134
:100030000C9476110C9476110C9476110C94761124
:100040000C9476110C9476110C9476110C94761114
:100050000C947611250B290B2E0B330B380B3D0B13
:10006000420B470B006006A88006A806AA0022FCE7
:1000700006AA06B28006B206B300011106B306B6A0
:100080008006B606B70022FE06B706C3800011241C
:100090001FBECFE5D8E0DEBFCDBFE4E6F0E040E034
:1000A00017C0B591A59135912591059107FD0CC01B
:1000B00095918591EF01F92FE82F05900D92A217E8
:1000C000B307D9F7FE0104C01D92A217B307E1F7E9
:1000D000ED38F40731F70E946F040C94DF10F894A8
:0200E000FFCF50
:1000E200544D505F5441534B00554152545F54415B
:1000F200534B00454553544154455F5441534B00C3
:0A01020046414E315F5441534B005B
:05010C0049444C4500D0
:0101110040AD
:10011200AF92BF92CF92DF92EF92FF920F931F9313
:10012200CF93DF9300D000D00F92CDB7DEB78C0112
:100132007B015D834C83C22ED12C0FB6F8940F92B3
:10014200F801828D8823B9F1A680B780B701C80172
:100152000E949A0FC1101CC0F801828D8150828FBB
:1001620080819181892B29F40E943610F8019383B2
:100172008283F80180858823D1F0085F1F4FB80180
:1001820080E80E943C09813091F40E9493080FC0DC
:10019200F801B782A6828189882349F00F5E1F4F3A
:1001A200B80180E80E943C0981110E9493080F90D7
:1001B2000FBE81E05CC08C819D81892B21F40F9060
:1001C2000FBE80E054C0D11006C0CE0101960E943D
:1001D200D410DD24D3940F900FBE0E9443110FB6AA
:1001E200F8940F92F801858D8F3F09F4158EF8016E
:1001F200868D8F3F09F4168E0F900FBEBE016C5F85
:100202007F4FCE0101960E942B0C81112AC0B801AA
:1002120080E80E9423108823F1F0F8018081918107
:10022200892B49F40FB6F8940F92828193810E9430
:1002320019070F900FBE6C817D81C80141960E9403
:10024200610FC8010E94520B0E94D205811175CF25
:100252000E94930872CFC8010E94520B0E94D205DD
:100262006CCFC8010E94520B0E94D20580E00F9011
:100272000F900F900F900F90DF91CF911F910F91E0
:0E028200FF90EF90DF90CF90BF90AF90089567
:100290002F923F924F925F926F927F928F929F9296
:1002A000AF92BF92CF92DF92EF92FF920F931F9384
:1002B000CF93DF9300D000D00F92CDB7DEB79A83F3
:1002C00089834B835C836D83490118011E2D3601A0
:1002D000B501C9010E94FD0D5C01009709F46BC0D6
:1002E000FC014788508CC4010197480E591E6401D7
:1002F000EA8CFB8C0C8D212F4B815C816D81C501BB
:100300000E94170AA10169817A81C2010E944306F5
:10031000F501918380836114710419F0F301B182B6
:10032000A0820FB6F8940F928091C1068F5F8093E0
:10033000C1068091B0069091B106892B59F4B09214
:10034000B106A092B0068091C106813091F40E945E
:10035000F80B0FC08091BF0681110BC0E091B00671
:10036000F091B1068689181720F0B092B106A092DC
:10037000B0068091BB068F5F8093BB06F50186892E
:100380009091C006981710F48093C00690E0B501D4
:100390006E5F7F4F9C01220F331F220F331F220FEE
:1003A000331F820F931F865A994F0E94210F0F907F
:1003B0000FBE01E001C00FEF013069F48091BF066C
:1003C000882349F0E091B006F091B1068689811743
:1003D00010F40E949308802F0F900F900F900F90B1
:1003E0000F90DF91CF911F910F91FF90EF90DF90D1
:1003F000CF90BF90AF909F908F907F906F905F90C5
:080400004F903F902F900895EA
:10040800DF92EF92FF920F931F93CF93DF93809128
:10041800BA06811199C08091AA069091AB060196FF
:100428009093AB068093AA06E090AA06F090AB06DC
:10043800E114F104B9F48091AE069091AF062091D1
:10044800AC063091AD063093AF062093AE0690937C
:10045800AD068093AC068091BC068F5F8093BC0686
:100468000E94420F8091A8069091A906E816F90605
:1004780028F4D12C53C0DD24D39401C0D12CE091B1
:10048800AE06F091AF068081811107C08FEF9FEF14
:100498009093A9068093A80641C0E091AE06F0911A
:1004A800AF060580F681E02DC681D7818A819B81C0
:1004B800E816F90628F49093A9068093A8062EC09A
:1004C8008E010E5F1F4FC8010E944C0E8C899D89BA
:1004D800892B21F0CE010C960E944C0E8E899091AA
:1004E800C006981710F48093C00690E09C01220F74
:1004F800331F220F331F220F331F820F931FB801A0
:10050800865A994F0E94210F9E89E091B006F0917A
:10051800B1068689981708F0AECFB1CFE091B00642
:10052800F091B106868990E0FC01EE0FFF1FEE0FF7
:10053800FF1FEE0FFF1F8E0F9F1FFC01E65AF94F9A
:100548008081823040F409C08091BE068F5F80931D
:10055800BE06D12C02C0DD24D3948091BD06882329
:1005680011F0DD24D3948D2DDF91CF911F910F9140
:08057800FF90EF90DF90089561
:100580006F927F928F92EF92FF920F931F93CF9370
:10059000DF9300D000D00F92CDB7DEB77C013A01D7
:1005A000862E3D832C8310E00FB6F8940F92F7014E
:1005B000928D838D981710F00230E9F4202F682D6A
:1005C000A301C7010E947B07F7019189992361F07C
:1005D000F1E1EF0EF11CB70180E80E943C09813087
:1005E00031F40E94930803C081110E9493080F9078
:1005F0000FBE81E04DC08C819D81892B21F40F902D
:100600000FBE80E045C0111105C0CE0101960E94C9
:10061000D41011E00F900FBE0E9443110FB6F89452
:100620000F92F701858D8F3F09F4158EF701868DA6
:100630008F3F09F4168E0F900FBEBE016C5F7F4F87
:10064000CE0101960E942B0C81111CC0B70180E8DD
:100650000E947E0F882381F06C817D81C7010896FE
:100660000E94610FC7010E94520B0E94D2058111A6
:100670009BCF0E94930898CFC7010E94520B0E9403
:10068000D20592CFC7010E94520B0E94D20580E092
:100690000F900F900F900F900F90DF91CF911F91BF
:0E06A0000F91FF90EF908F907F906F900895D4
:1006AE000F9331B3326031BB31B33E7F31BB3AB1C0
:1006BE0038613AB9662319F0613029F007C030B5B8
:1006CE003F7730BD03C030B5306830BD2230F9F011
:1006DE0028F4222341F0213081F036C0233009F175
:1006EE00243049F131C02AB12B7F2AB920B52B7F96
:1006FE0020BD20B52D7F20BD27C02AB12B7F2AB962
:10070E0020B52B7F20BD20B5226020BD1DC02AB193
:10071E002B7F2AB920B5246020BD20B52D7F20BDAA
:10072E0013C02AB12B7F2AB920B5246020BD20B575
:10073E00226020BD09C02AB124602AB920B52460E8
:10074E0020BD20B5226020BD413059F018F0423056
:10075E0079F014C020B52F7D20BD20B52F7E20BD91
:10076E000DC020B5206220BD20B52F7E20BD06C055
:10077E0020B5206220BD20B5206120BD002319F0D8
:10078E00013029F007C020B5277F20BD03C020B55A
:10079E00286020BD9C0122953295307F3227207F24
:1007AE00322740E050E060E071E782E090E00E9486
:1007BE00E60F2150310929B930BD81E00F9108951E
:1007CE008F929F92AF92BF92EF92FF920F931F93D1
:1007DE00CF93DF937C01C62FD42FF9018081813016
:1007EE0009F455C020F0823009F45BC066C0B70131
:1007FE0080E090E00E94DB0A4B015C0120E030E0DB
:10080E0040EA51E40E945A11181624F08C2F0E94CF
:10081E00250E53C020E030E040EA51E4C501B4019A
:10082E000E945F11181614F520E030E040E252E409
:10083E00C501B4010E945A111816C4F060E08C2F45
:10084E000E94880981E0DA3F08F480E090E08E9DF6
:10085E00B0018F9D700D9E9D700D1124660F771F38
:10086E00660F771F8C2F0E94FD0F27C0F9E2EF1A3B
:10087E00F1088AE0E816F10400F560E08C2F0E9482
:10088E00880960EA70E08C2F0E94FD0F16C060E0B0
:10089E008C2F0E94880960EA70E08C2F0E94FD0F59
:1008AE000CC060E08C2F0E94880960EA70E08C2FEB
:1008BE000E94FD0F81E0F8018083DF91CF911F919F
:1008CE000F91FF90EF90BF90AF909F908F900895F3
:1008DE00AF92BF92CF92DF92EF920F931F930E942F
:1008EE008E0C43E060E081E00E944C0D909363001B
:1008FE008093620020E040E050E060E070E00E94F3
:10090E008900C0907600D09077001F921F921F92A0
:10091E00A12CB12CE12C00E010E024E630E042EEF8
:10092E0050E060E089EC90E10E944801C0906A00BE
:10093E00D0906B001F921F921F920F2EF3E0EF2E9E
:10094E00F02D24E630E04BEE50E060E08AE690E1D8
:10095E000E944801C0906000D09061001F921F92CB
:10096E001F92E12C24E630E045EF50E060E089E78D
:10097E0090E10E944801C0906400D09065001F92E3
:10098E001F921F926894EE24E1F824E630E042E0D4
:10099E0051E060E080E190E10E9448010E94BE0CAF
:1009AE008091B9062DB73EB7245F3F4F0FB6F8942E
:1009BE003EBF0FBE2DBF813011F40E943D1180E06D
:1009CE0090E01F910F91EF90DF90CF90BF90AF907E
:0209DE0008957A
:1009E000442319F04130C9F10895813091F028F085
:1009F0008230D9F0833029F108952AB381E090E064
:100A000002C0880F991F6A95E2F7809582238ABBFE
:100A1000089527B381E090E002C0880F991F6A957E
:100A2000E2F78095822387BB089524B381E090E0AC
:100A300002C0880F991F6A95E2F78095822384BBD4
:100A4000089521B381E090E002C0880F991F6A9554
:100A5000E2F78095822381BB0895813089F028F0E8
:100A60008230C9F0833011F108952AB381E090E01B
:100A700002C0880F991F6A95E2F7822B8ABB0895FE
:100A800027B381E090E002C0880F991F6A95E2F7D2
:100A9000822B87BB089524B381E090E002C0880FC9
:100AA000991F6A95E2F7822B84BB089521B381E0F8
:100AB00090E002C0880F991F6A95E2F7822B81BBF4
:020AC000089597
:100AC200442319F04130C9F10895813091F028F0A2
:100AD2008230D9F0833029F108952BB381E090E080
:100AE20002C0880F991F6A95E2F7809582238BBB1B
:100AF200089528B381E090E002C0880F991F6A959B
:100B0200E2F78095822388BB089525B381E090E0C7
:100B120002C0880F991F6A95E2F78095822385BBF0
:100B2200089522B381E090E002C0880F991F6A9570
:100B3200E2F78095822382BB0895813089F028F004
:100B42008230C9F0833011F108952BB381E090E037
:100B520002C0880F991F6A95E2F7822B8BBB08951A
:100B620028B381E090E002C0880F991F6A95E2F7EE
:100B7200822B88BB089525B381E090E002C0880FE4
:100B8200991F6A95E2F7822B85BB089522B381E013
:100B920090E002C0880F991F6A95E2F7822B82BB10
:020BA2000895B4
:100BA4000F931F93CF93DF930FB6F8940F92809116
:100BB400BA0681508093BA068091BA06811157C053
:100BC4008091C106811132C055C0E0918C06F0912C
:100BD4008D06C681D781CE010C960E944C0E8E01E3
:100BE4000E5F1F4FC8010E944C0E8E899091C00663
:100BF400981710F48093C00690E09C01220F331FD5
:100C0400220F331F220F331F820F931FB801865AFE
:100C1400994F0E94210F9E89E091B006F091B10690
:100C24008689981718F081E08093BD068091870625
:100C34008111CBCF8091BE0681110DC010C00E94DE
:100C44000402882319F081E08093BD068091BE06DA
:100C540081508093BE068091BE068111F0CF8091B1
:100C6400BD06813031F40E94930881E003C080E026
:100C740001C080E00F900FBEDF91CF911F910F91C3
:020C84000895D1
:100C860031E1FC013083319722E220833197A3E3DF
:100C9600A0833197608331977083319710823197A3
:100CA60060E8608331971082319762E06083319704
:100CB60063E06083319764E06083319765E0608329
:100CC600319766E06083319767E06083319768E02B
:100CD6006083319769E06083319760E16083319783
:100CE6003083319732E13083319733E13083319766
:100CF60034E13083319735E13083319736E1308303
:100D0600319737E13083319738E13083319739E1D4
:100D16003083319730E23083319731E23083319737
:100D26002083319723E22083319740833197508384
:100D3600319726E22083319727E22083319728E2F4
:100D46002083319729E22083319720E3208331974E
:080D560021E320838697089534
:100D5E000FC00E94231138F00E942A1120F0952313
:100D6E0011F00C9449110C94731111240C941D1153
:100D7E000E94DD0E70F3959FC1F3950F50E0551F45
:100D8E00629FF001729FBB27F00DB11D639FAA27D2
:100D9E00F00DB11DAA1F649F6627B00DA11D661F21
:100DAE00829F2227B00DA11D621F739FB00DA11D42
:100DBE00621F839FA00D611D221F749F3327A00DFC
:100DCE00611D231F849F600D211D822F762F6A2F98
:100DDE0011249F5750409AF0F1F088234AF0EE0FFD
:100DEE00FF1FBB1F661F771F881F91505040A9F72A
:100DFE009E3F510580F00C9449110C941D115F3FDC
:100E0E00E4F3983ED4F3869577956795B795F79565
:100E1E00E7959F5FC1F7FE2B880F911D96958795DD
:040E2E0097F9089593
:100E32000F931F93CF93DF93FC01892B09F455C0C5
:100E42002689A091B006B091B10656968C912817CA
:100E520008F04BC084859585992364F0A091B00673
:100E6200B091B10656963C9184E090E0831B9109C3
:100E7200958784878285938530E0A901440F551FA9
:100E8200440F551F440F551F240F351F265A394F43
:100E92008217930719F58F01EF012296CE010E9466
:100EA2004C0EE091B006F091B1068689F801868B6E
:100EB2009091C006981710F48093C00690E09C01B0
:100EC200220F331F220F331F220F331F820F931F54
:100ED200BE01865A994F0E94210F07C0A091B00609
:100EE200B091B10656968C91868BDF91CF911F916E
:040EF2000F910895BF
:100EF6001F93CF93DF93EC01122F2C8D21110CC081
:100F060088819981892B09F045C08A819B810E943D
:100F16005D0A1B821A8245C0111117C030E08C8110
:100F26009D810E94B50F2C8D8C819D81820F911D14
:100F36009D838C832A813B818217930768F1888180
:100F460099819D838C8380E02CC030E08E819F81C7
:100F56000E94B50F8C8D90E09195819591092E8117
:100F66003F81280F391F3F832E83488159812417DB
:100F7600350730F42A813B81820F931F9F838E832E
:100F8600123061F48A8D882359F08A8D81508A8FB8
:100F960080E007C080E005C080E003C080E001C0BB
:100FA60080E09A8D9F5F9A8FDF91CF911F91089570
:100FB6000F920FB6F8940F921F9211242F923F9220
:100FC6004F925F926F927F928F929F92AF92BF9253
:100FD600CF92DF92EF92FF920F931F932F933F933F
:100FE6004F935F936F937F938F939F93AF93BF932B
:100FF600CF93DF93EF93FF93A091B006B091B10624
:101006000DB60D920EB60D920E94040281110E9439
:101016003708A091B006B091B106CD91CDBFDD9154
:10102600DEBFFF91EF91DF91CF91BF91AF919F917D
:101036008F917F916F915F914F913F912F911F916A
:101046000F91FF90EF90DF90CF90BF90AF909F9061
:101056008F907F906F905F904F903F902F901F9052
:081066000F900FBE0F900895DA
:10106E008091BA06882321F081E08093BD06089511
:10107E001092BD0605C08091C00681508093C006B7
:10108E008091C00690E0FC01EE0FFF1FEE0FFF1FD8
:10109E00EE0FFF1F8E0F9F1FFC01E65AF94F808146
:1010AE00882349F38091C00690E09C01220F331FE4
:1010BE00220F331F220F331F280F391FD901A65AB3
:1010CE00B94F1196ED91FC9112970280F381E02DAC
:1010DE001296FC93EE931197235A394FE217F307AA
:1010EE0029F422813381FD0132832183FC01EE0F2D
:1010FE00FF1FEE0FFF1FEE0FFF1F8E0F9F1FFC0136
:10110E00E65AF94F0180F281E02D86819781909306
:08111E00B1068093B0060895AC
:101126000F920FB6F8940F921F9211242F923F92AE
:101136004F925F926F927F928F929F92AF92BF92E1
:10114600CF92DF92EF92FF920F931F932F933F93CD
:101156004F935F936F937F938F939F93AF93BF93B9
:10116600CF93DF93EF93FF93A091B006B091B106B2
:101176000DB60D920EB60D920E943708A091B006DC
:10118600B091B106CD91CDBFDD91DEBFFF91EF915C
:10119600DF91CF91BF91AF919F918F917F916F9189
:1011A6005F914F913F912F911F910F91FF90EF907B
:1011B600DF90CF90BF90AF909F908F907F906F9071
:1011C6005F904F903F902F901F900F900FBE0F9003
:0211D60008957A
:1011D800CF92DF92EF92FF920F931F93CF93DF93FB
:1011E8008B01EA01BC0180E090E00E94DB0A6B0100
:1011F8007C0120E030E048E452E40E945A11882340
:1012080064F48881882349F0F8011082188260E02C
:1012180082EB96E00E94B11014C020E030E048E470
:1012280052E4C701B6010E945F11882354F08881F7
:10123800811107C081E0888361E082EB96E00E941B
:10124800B110F80180818E3050F08881823039F0F9
:1012580082E0888362E082EB96E00E94B110DF9121
:10126800CF911F910F91FF90EF90DF90CF9008954D
:101278000F931F93CF93DF93A82FCB010596A11D42
:10128800FC015A2F0E940D11FB01C681D7818E01E6
:10129800045F1F4FC8010E944C0E8091BA0681114D
:1012A8001CC00A501109C8010E944C0E8E899091E9
:1012B800C006981710F48093C00690E09C01220F96
:1012C800331F220F331F220F331F820F931FB801C2
:1012D800865A994F0E94210F05C0B80187E896E009
:1012E8000E94210F9E89E091B006F091B10686898F
:1012F800891720F481E08093BD0601C080E0DF916A
:08130800CF911F910F91089590
:10131000CF93C62F882319F0813009F13FC041E0F7
:1013200065E083E00E946105CC2319F0C13061F0D3
:1013300035C041E061E082E00E94610540E062E08A
:1013400082E00E9461052AC040E061E082E00E94E4
:10135000610541E062E082E00E9461051FC041E05A
:1013600062E083E00E946105CC2319F0C13061F096
:1013700015C041E062E082E00E94610540E062E069
:1013800082E00E9461050AC040E062E082E00E94C3
:10139000610541E062E082E00E946105CF9108951D
:1013A000CF93DF93EC010FB6F8940F92E881F981A7
:1013B0008B8D90E02C8D30E0829FA001839F500D9B
:1013C000929F500D11244E0F5F1F5B834A831A8E2C
:1013D000FD83EC830197289FA001299F500D389F22
:1013E000500D1124CF01840F951F9F838E838FEFA3
:1013F0008D8F8E8F61110DC08885882391F028967E
:10140000BE0180E80E943C09813059F40E94930893
:1014100008C0CE0108960E949610CE0141960E9407
:0E14200096100F900FBE81E0DF91CF910895DE
:10142E00CF92DF92EF921F93CF93DF93EC016A017D
:10143E00E62E122F50E018C0252F30E0AE2DC6013B
:10144E00820F931FA11D37FDAA95FC016491A7FD84
:10145E006081FE01E20FF31F618FFC018491A7FDF5
:10146E008081882319F05F5F543130F31CA614304D
:10147E0008F013E01E8B1DA71EA6CE0102960E9439
:10148E006411CE010C960E946411D987C88784E03E
:10149E0090E0811B91099D878C87DB8BCA8BDF9136
:0C14AE00CF911F91EF90DF90CF90089538
:1014BA000F931F93CF93DF93FC01892B79F186A5B4
:1014CA00815086A7268995A5291751F181112AC02D
:1014DA00EF018F010E5F1F4FC8010E944C0E8DA5B0
:1014EA008E8B24E030E0281B31093D872C879091B0
:1014FA00C006981710F48093C00690E09C01220F52
:10150A00331F220F331F220F331F820F931FB8017D
:10151A00865A994F0E94210F81E005C080E003C0DE
:10152A0080E001C080E0DF91CF911F910F91089573
:10153A001F920F920FB60F9211240F932F933F937E
:10154A004F935F936F937F938F939F93AF93BF93C1
:10155A00EF93FF938091B8068F5F8093B80600E0FF
:10156A0020E030E040E050E060E08091620090913D
:10157A0063000E94C0022FE788E391E02150804077
:10158A009040E1F700C00000FF91EF91BF91AF9149
:10159A009F918F917F916F915F914F913F912F9181
:0C15AA000F910F900FBE0F901F9018952E
:1015B600E89409C097FB3EF49095809570956195E7
:1015C6007F4F8F4F9F4F9923A9F0F92F96E9BB279D
:1015D6009395F695879577956795B795F111F8CF19
:1015E600FAF4BB0F11F460FF1BC06F5F7F4F8F4F84
:1015F6009F4F16C0882311F096E911C0772321F07A
:101606009EE8872F762F05C0662371F096E8862F11
:1016160070E060E02AF09A95660F771F881FDAF768
:0A162600880F9695879597F90895AF
:10163000E82F84B195B18E2F90E08830910550F558
:10164000FC01E65DFF4F0C944F1187B1887F87B98D
:1016500021C087B1887F816087B91CC087B1887F2E
:10166000826087B917C087B1887F836087B912C04D
:1016700087B1887F846087B90DC087B1887F856016
:1016800087B908C087B1887F866087B903C087B1F2
:10169000876087B986B1806486B93699FECF84B1F8
:0416A00095B1089563
:1016A400CF93DF93EC010FB6F8940F920FC08989A2
:1016B400882379F0BE016F5E7F4F80E80E943C0969
:1016C40081110E9468118E8D81508E8F8E8D181617
:1016D40074F38FEF8E8F0F900FBE0FB6F8940F92A6
:1016E4000FC08885882379F0BE01685F7F4F80E84A
:1016F4000E943C0981110E9468118D8D81508D8F4B
:101704008D8D181674F38FEF8D8F0F900FBEDF91B0
:04171400CF910895D4
:10171800CF93DF93EC01E091B006F091B10693838B
:1017280082838091AA069091AB06C817D90768F4FE
:101738006091B0067091B1068091AC069091AD06AB
:101748006E5F7F4F0E945D0C17C06091B00670916C
:10175800B1068091AE069091AF066E5F7F4F0E94F2
:101768005D0C8091A8069091A906C817D90720F4A6
:0E177800D093A906C093A806DF91CF910895E3
:10178600CF93DF93EC010E9443118091A4069091C0
:10179600A506892B31F48FE790E09093A5068093F8
:1017A600A4062091A6063091A706C9018C0F9D1F9D
:1017B6008B3D45E0940770F42817390770F4C09103
:1017C600A406D091A506C20FD31F9093A7068093B7
:1017D600A60605C0C0E0D0E002C0C0E0D0E00E948E
:0A17E600D205CE01DF91CF910895E6
:1017F000CF93C0E010C08C2F90E09C01220F331FCC
:10180000220F331F220F331F820F931F865A994FC7
:101810000E949610CF5FC43070F389E996E00E9471
:10182000961080E996E00E94961087E896E00E9464
:1018300096108EE796E00E94961089E996E09093C4
:10184000AF068093AE0680E996E09093AD06809354
:06185000AC06CF910895E3
:10185600CF93DF93FC010FB6F8940F924091AA063E
:101866005091AB0690818091BC06981729F0818132
:10187600928148175907B0F421813281CA01821B2F
:10188600930BEB01A881B9818A179B0768F4CF01F6
:10189600241B350B2A0F3B1F398328830E94D41043
:1018A60080E003C081E001C081E00F900FBEDF91B0
:0418B600CF91089531
:1018BA00CF93DF93EB01488159814F3F2FEF5207B6
:1018CA0021F4FC01A781B0850DC0DC01139601C08B
:1018DA00DF011296ED91FC91139720813181421715
:1018EA005307B0F71296ED91FC911397FB83EA83A5
:1018FA00D583C483BD83AC831396DC93CE931297AE
:10190A0099878887FC0120812F5F2083DF91CF91FF
:02191A0008952E
:10191C000F938091B3060E94D40D0E94BE100E94BA
:10192C00371160E085E00E9415118BB340E060E058
:10193C000E94F00400E023E040E061E080E690E0EB
:10194C000E945703882391F082E00E94A80D0E9408
:10195C003111811105C060E08091B3060E948809A5
:10196C008FE19EE40197F1F700C000000F910895FC
:10197C00AF92BF92CF92DF92EF920F931F931F9271
:10198C001F921F92A12CB12CC12CD12CE12C00E068
:10199C0010E025E530E04CE051E060E083EF90E1B1
:1019AC000E9448010F900F900F90813049F4F894E9
:1019BC008093BF061092AB061092AA060E94EE0C02
:1019CC001F910F91EF90DF90CF90BF90AF90089543
:1019DC000E94EA10A091B006B091B106CD91CDBF96
:1019EC00DD91DEBFFF91EF91DF91CF91BF91AF9170
:1019FC009F918F917F916F915F914F913F912F911B
:101A0C001F910F91FF90EF90DF90CF90BF90AF9010
:101A1C009F908F907F906F905F904F903F902F9002
:0E1A2C001F900F900FBE0F90089581E0089557
:101A3A000E94E50E88F09F5798F0B92F9927B75161
:101A4A00B0F0E1F0660F771F881F991F1AF0BA9558
:101A5A00C9F714C0B13091F00E941C11B1E0089589
:101A6A000C941C11672F782F8827B85F39F0B93F7B
:101A7A00CCF3869577956795B395D9F73EF490950B
:0E1A8A008095709561957F4F8F4F9F4F089507
:101A98000F931F93CF93DF93882301F1062F182FFD
:101AA8008FE190E00E94C30BEC01892BC9F0109FD5
:101AB800C001112401960E94C30B99838883892B46
:101AC80039F01B8F0C8F61E0CE010E94D00908C04D
:101AD800CE010E947A11C0E0D0E002C0C0E0D0E0A0
:0C1AE800CE01DF91CF911F910F91089566
:101AF400CF93DF9324C00E944311C0917E060E94BD
:101B0400D205CC23E1F00FB6F8940F92E09183064E
:101B1400F0918406C681D781CE0102960E944C0EB4
:101B24008091C10681508093C1068091C206815084
:101B34008093C2060F900FBECE010E94A410809124
:0C1B4400C2068111D8CFDF91CF91089527
:101B500091B39B7F91BBF894813069F028F082307B
:101B6000C1F0833079F01BC085B78D7F85BF85B705
:101B70008E7F85BF14C085B78D7F85BF85B7816097
:101B800085BF0DC085B7826085BF85B78E7F85BF55
:101B900006C085B7826085BF85B7816085BF8BB77A
:081BA00080648BBF7894089566
:101BA800882319F08130A9F0089541E065E083E0C9
:101BB8000E94F00441E061E082E00E94F00441E00C
:101BC80062E082E00E94F00489E88FBD8BE08EBD60
:101BD800089541E062E083E00E94F00441E062E0A1
:101BE80082E00E94F00441E062E082E00E94F0049A
:021BF80008954E
:101BFA00EF92FF920F931F93CF93DF937C01EB0138
:101C0A008FE290E00E94C30B8C01892B89F0209708
:101C1A0021F4C7010E94C30B01C0CE01F801908FC5
:101C2A00878B892B29F4C8010E947A1100E010E001
:101C3A00C801DF91CF911F910F91FF90EF90089506
:101C4A00882319F0813099F008951BBC1ABC40E032
:101C5A0065E083E00E94610540E061E082E00E9465
:101C6A00610540E062E082E00E946105089540E07B
:101C7A0062E083E00E94610540E062E082E00E9447
:0E1C8A00610540E062E082E00E94610508957D
:101C9800CF93DF93FC01A085B185C281D381848174
:101CA80095819D838C83C481D581828193819B8317
:101CB8008A8311968D919C911297E817F90731F450
:101CC8008481958112969C938E9311971186108624
:0C1CD8008C9181508C93DF91CF91089586
:101CE4008233910570F06E3038F4FA0110828CE280
:101CF40091E00E94881008958EE591E00E9488107A
:101D040008959C01295231092A30310548F4FA0119
:101D14002081213029F48FEF90E00E9488100895EB
:0A1D2400FA0110820E948810089551
:101D2E00990F0008550FAA0BE0E8FEEF16161706DE
:101D3E00E807F907C0F012161306E407F50798F046
:101D4E00621B730B840B950B39F40A2661F0232B5F
:101D5E00242B252B21F408950A2609F4A140A695DB
:081D6E008FEF811D811D089516
:101D7600CF93DF93EC01892BA9F00E944311809148
:101D8600AA069091AB06C80FD91F8091B006909114
:101D9600B10602960E944C0ECE010E948C0B0E9448
:101DA600D20501C080E0811102C00E949308DF9134
:041DB600CF9108952C
:101DBA0057FD9058440F551F59F05F3F71F04795F2
:101DCA00880F97FB991F61F09F3F79F087950895D7
:101DDA00121613061406551FF2CF4695F1DF08C0F6
:101DEA00161617061806991FF1CF86957105610513
:041DFA0008940895AC
:101DFE00A1E21A2EAA1BBB1BFD010DC0AA1FBB1F01
:101E0E00EE1FFF1FA217B307E407F50720F0A21B72
:101E1E00B30BE40BF50B661F771F881F991F1A94DF
:101E2E0069F760957095809590959B01AC01BD0109
:041E3E00CF01089533
:101E4200CF93DF939C01FB01DC011196CD91DC91D4
:101E52001297D383C2838C819D81958384838C81E5
:101E62009D81DC0113967C936E9312977D836C8324
:101E720031872087F90180818F5F8083DF91CF9145
:021E82000895C1
:101E8400E091AE06F091AF068081811107C08FEF1B
:101E94009FEF9093A9068093A8060895E091AE065B
:101EA400F091AF060580F681E02D0680F781E02DE4
:0E1EB400828193819093A9068093A8060895D9
:101EC200CF93DF93EB016091B0067091B106645F2E
:101ED2007F4F0E945D0C8091B0069091B1060296F0
:101EE2000E944C0E8091AA069091AB068C0F9D1F0A
:0A1EF2000E948C0BDF91CF91089540
:101EFC000FB6F8940F929B01482F265E3F4F4F4F21
:101F0C00F901249147FD2081A82FCB014B96A11DEF
:101F1C00FC018491A7FD8081281302C081E001C0DF
:081F2C0080E00F900FBE089544
:101F3400FC01248D2223B1F030E046815781420F09
:101F4400531F57834683828193814817590720F092
:101F54008081918197838683CB014681578160E894
:061F64000E94B50F089574
:101F6A00CF92DF92EF926A01E62EDC01280F391F29
:101F7A00A217B30751F0F6014491E7FC40814D9353
:101F8A004FEFC41AD40AE40AF3CFEF90DF90CF9050
:021F9A000895A8
:101F9C0080E00E94180BBC0180E090E00E94DB0AFC
:101FAC0020E030E04AEF53E40E946C1120E030E076
:101FBC0040E85AE30E946C110E941D0DCB0108955C
:101FCC00052E97FB1EF400940E94051157FD07D0B7
:101FDC000E94FF0E07FC03D04EF40C940511509593
:0E1FEC004095309521953F4F4F4F5F4F089520
:101FFA00882319F0813041F0089576956795769592
:10200A0067957BBD6ABD08957695679576956795C0
:06201A0079BD68BD0895C8
:102020008091A2069091A30609EB16E025EB36E01D
:102030004091B6066091B3060E94E70380E590E008
:062040000E94BB0EEDCF73
:102046000FB6F8940F92A82FCB014A96A11DFC015A
:102056008491A7FD8081811102C081E001C080E0EA
:062066000F900FBE08956B
:10206C008091B0069091B106892B39F0E091B006C1
:10207C00F091B10686A58F5F86A78091B0069091EE
:04208C00B1060895FC
:10209000092E0394000C11F4882352F0BB0F40F476
:1020A000BF2B11F460FF04C06F5F7F4F8F4F9F4FB6
:0220B000089591
:1020B200262FE199FECF9FBB8EBBE09A01970DB20E
:1020C200021631F02DBB0FB6F894E29AE19A0FBED8
:0220D20008956F
:1020D4006091B7068091A2069091A30644EB56E066
:0E20E4000E94720E84E690E00E94BB0EF1CFC7
:1020F2008091A2069091A30645EB56E067EB76E04D
:0E2102000E94EC0880ED97E00E94BB0EF1CF2A
:10211000CF93DF93D82F892F0E945511C82F8D2F71
:0C2120000E9455118C2BDF91CF91089587
:10212C00FC010396928381832FEF3FEF348323834B
:0C213C0096838583908787831082089526
:10214800CF93DF93EC018F89988D0E947A11CE018D
:0A2158000E947A11DF91CF910895E3
:10216200262FE199FECF9FBB8EBB2DBB0FB6F894F5
:0A217200E29AE19A0FBE019608956B
:10217C0060E082EB96E00E94591060E082EB96E002
:06218C000E9459100895A5
:102192000E94CE0F9093A3068093A20684E690E05D
:0621A2000E94BB0EF5CF08
:1021A8002091BC06FC0120832091AA063091AB0641
:0621B8003283218308952B
:1021BE00EC010E947C110E947B11CE010E947D11C8
:0621CE00CE010E94781111
:1021D4001BBC8CE78ABD8BE08EBD89B7806189BF4B
:0221E40008955C
:1021E6000E947A0D80915A068230D0F30E9493089D
:0221F600F7CF21
:1021F800CB01E199FECF9FBB8EBBE09A99278DB3A7
:02220800089537
:10220A0090958095709561957F4F8F4F9F4F089558
:10221A0057FD03C065917591089561917191089573
:0E222A0087B1806487B986B1876A86B9089546
:0E223800E894BB2766277727CB0197F9089516
:0E22460000240A9416161706180609060895B5
:0E22540000240A9412161306140605060895B7
:0C22620062EB76E080E80E94FC1008951A
:0C226E0041E060E080E00E94F004089570
:0C227A0088E081BD81B5887F81BD08959A
:0C2286008091BA068F5F8093BA0608951D
:0C22920097F99F6780E870E060E0089515
:0C229E00EE0FFF1F0590F491E02D099455
:0A22AA005D9BFECF8CB981E0089522
:0A22B4000E94970E08F481E00895DF
:0A22BE000E94970E08F48FEF0895B8
:0822C800FC0111861086089547
:0822D00081E08093BD06089532
:0822D8000E94AF060C944810AF
:0622E0000E94DB071895C7
:0622E6009FEF80EC08955B
:0422EC000C9400004E
:0422F0000E946F00D9
:0222F40008954B
:0222F600089549
:0222F800089547
:0222FA00089545
:0222FC00FFFFE2
:0122FE00FAE5
:00000001FF
