:100000000C943E000C94E40B0C94B0130C94B013BD
:100010000C94B0130C94B0130C94B0130C943610D1
:100020000C94B0130C94B0130C94B0130C94B01344
:100030000C94B0130C94B0130C94B0130C94B01334
:100040000C94B0130C94B0130C94B0130C94B01324
:100050000C94B013250D290D2E0D330D380D3D0DCB
:10006000420D470D006006E58006E506E600011B2F
:1000700006E606E700277206E706F88011241FBE91
:10008000CFE5D8E0DEBFCDBFE4E6F0E040E017C04A
:10009000B591A59135912591059107FD0CC09591DC
:1000A0008591EF01F92FE82F05900D92A217B30764
:1000B000D9F7FE0104C01D92A217B307E1F7EC3790
:1000C000F40731F70E9410130C940513F894FFCF36
:1000D000544D503A002020202020202020202000B5
:1000E0004300544D505F5441534B00554152545FAF
:1000F0005441534B00454553544154455F5441537B
:100100004B0046414E315F5441534B00454D4552E3
:060110005F5441534B0057
:0501160049444C4500C6
:01011B0040A3
:10011C008091EC06882321F0813009F455C0F8CF8A
:10012C0060E170E080916A0090916B000E9428045D
:10013C008130B9F580916600909167000E94300A79
:10014C0080916000909161000E94300A809164005F
:10015C00909165000E94300A81E08093EE0684E65F
:10016C008093E6066091E7068091D3069091D406C1
:10017C004DEE56E00E9411108091D3069091D4065A
:10018C0009EE16E02EEE36E04091E6066091EA06A6
:10019C000E944E016091EE0685EE96E00E94CA1216
:1001AC00B7CF80916600909167000E94A00C80915F
:1001BC006000909161000E94A00C8091640090916D
:1001CC0065000E94A00CA4CF65E070E080916A00ED
:1001DC0090916B000E9428048130C9F51092EB06B7
:1001EC001092EC061092EE066091E7068091D30611
:1001FC009091D4064DEE56E00E9411108091D306DA
:10020C009091D40609EE16E02EEE36E04091E6060B
:10021C006091EA060E944E016091EE0685EE96E032
:10022C000E94CA120E946913809166009091670027
:10023C000E94A00C80916000909161000E94A00C23
:10024C0080916400909165000E94A00C1CC080916C
:10025C00EB068F5F8093EB068E36A8F0F8940E9425
:10026C0063130E94751382E08093EE0662E085EEC4
:10027C0096E00E94CA1288E081BD8091EB068F5FE8
:10028C008093EB06FACF8CE290E00E94DC1140CF19
:10029C008F929F92AF92BF92EF92FF920F931F9308
:1002AC00CF93DF937C01C62FD42FF901908191302D
:1002BC0009F462C020F0923009F46EC07FC0B7011F
:1002CC0080E090E00E94630C4B015C0120E030E088
:1002DC0040EA51E40E949713181624F08C2F0E94C8
:1002EC009D0F6CC020E030E040EA51E4C501B40140
:1002FC000E949C1318164CF520E030E040E252E4CA
:10030C00C501B4010E9497131816FCF060E08C2F05
:10031C000E94170BDE9DC001DF9D900D11249C01E6
:10032C00220F331F220F331F280F391F36952795A5
:10033C0036952795ABE7B4E10E949212BC017695F5
:10034C0067958C2F0E94831239C0F9E2EF1AF108DD
:10035C002AE0E216F10490F560E08C2F0E94170B56
:10036C00EAEFDE9FC001112464E670E00E94F211F6
:10037C008C2F0E94831222C060E08C2F0E94170BDE
:10038C00FAEFDF9FC001112464E670E00E94F211C5
:10039C008C2F0E94831212C060E08C2F0E94170BCE
:1003AC002AEFD29FC001112464E670E00E94F21182
:1003BC008C2F0E94831281E0F8018083DF91CF9112
:1003CC001F910F91FF90EF90BF90AF909F908F90E7
:0203DC00089582
:1003DE00CF92DF92EF920F931F9343E060E081E0A4
:1003EE000E944A0F909363008093620060E070E079
:1003FE000E94280443E060E081E00E944A0F90933F
:10040E0069008093680000E020E030E040E050E0BA
:10041E0060E00E940F0343E060E081E00E944A0F1B
:10042E0090936B0080936A0060E070E00E94280455
:10043E000F2EFEE6CF2EF0E0DF2EF02DE12C00E0A9
:10044E0010E024E630E042EE50E060E089E295E014
:10045E000E94BC070F2EF6E6CF2EF0E0DF2EF02D19
:10046E000F2EF3E0EF2EF02D24E630E04BEE50E0B1
:10047E0060E084E091E10E94BC070F2EF0E6CF2EE3
:10048E00F0E0DF2EF02DE12C24E630E045EF50E0D9
:10049E0060E084E792E10E94BC070F2EF4E6CF2EB7
:1004AE00F0E0DF2EF02D6894EE24E1F824E630E043
:1004BE0042E051E060E087E899E00E94BC070F2E11
:1004CE00FCE6CF2EF0E0DF2EF02D0F2EF5E0EF2E16
:1004DE00F02D24E630E04CE051E060E08EE890E054
:1004EE000E94BC071F910F91EF90DF90CF9008955F
:1004FE000F9331B3326031BB31B33E7F31BB3AB172
:10050E0038613AB9662319F0613029F007C030B569
:10051E003F7730BD03C030B5306830BD2230F9F0C2
:10052E0028F4222341F0213081F036C0233009F126
:10053E00243049F131C02AB12B7F2AB920B52B7F47
:10054E0020BD20B52D7F20BD27C02AB12B7F2AB913
:10055E0020B52B7F20BD20B5226020BD1DC02AB145
:10056E002B7F2AB920B5246020BD20B52D7F20BD5C
:10057E0013C02AB12B7F2AB920B5246020BD20B527
:10058E00226020BD09C02AB124602AB920B524609A
:10059E0020BD20B5226020BD413059F018F0423008
:1005AE0079F014C020B52F7D20BD20B52F7E20BD43
:1005BE000DC020B5206220BD20B52F7E20BD06C007
:1005CE0020B5206220BD20B5206120BD002319F08A
:1005DE00013029F007C020B5277F20BD03C020B50C
:1005EE00286020BD9C0122953295307F3227207FD6
:1005FE00322740E050E060E071E782E090E00E9438
:10060E00AF112150310929B930BD81E00F91089504
:10061E006F927F928F92EF92FF920F931F93CF93D1
:10062E00DF9300D000D00F92CDB7DEB77C013A0138
:10063E00862E3D832C8310E00FB6F8940F92F701AF
:10064E00928D838D981710F00230A9F4202F682D0B
:10065E00A301C7010E94CE0AF7018189882339F0D0
:10066E00F1E1EF0EF11CB70180E80E94820A0F90B3
:10067E000FBE81E04DC08C819D81892B21F40F909E
:10068E000FBE80E045C0111105C0CE0101960E943B
:10069E00FA1211E00F900FBE0E947B130FB6F89462
:1006AE000F92F701858D8F3F09F4158EF701868D18
:1006BE008F3F09F4168E0F900FBEBE016C5F7F4FF9
:1006CE00CE0101960E94DC0C81111CC0B70180E89E
:1006DE000E946211882381F06C817D81C70108968A
:1006EE000E944012C7010E94520D0E94E80681111D
:1006FE00A3CF0E948008A0CFC7010E94520D0E9476
:10070E00E8069ACFC7010E94520D0E94E80680E0CB
:10071E000F900F900F900F900F90DF91CF911F9130
:0E072E000F91FF90EF908F907F906F90089545
:10073C00EF92FF920F931F93CF93DF938091EF066D
:10074C00811173C0E090DD06F090DE068FEFE81AA1
:10075C00F80AF092DE06E092DD06E114F104B9F439
:10076C008091E1069091E2062091DF063091E0063F
:10077C003093E2062093E1069093E0068093DF0627
:10078C008091F1068F5F8093F1060E944311809156
:10079C00DB069091DC06E816F90608F44BC0E091F4
:1007AC00E106F091E2068081811107C08FEF9FEF87
:1007BC009093DC068093DB063DC0E091E106F0915E
:1007CC00E2060580F681E02DC681D7818A819B8166
:1007DC00E816F90628F49093DC068093DB062AC011
:1007EC008E010E5F1F4FC8010E94C40F8C899D891A
:1007FC00892B21F0CE010C960E94C40F8E8990910A
:10080C00F506981710F48093F50690E09C01220FE2
:10081C00331F220F331F220F331F820F931FB80178
:10082C00845B994F0E94C210BACF8091F3068F5F00
:10083C008093F30680E0DF91CF911F910F91FF9091
:04084C00EF9008958C
:10085000FF920F931F93CF93DF9300D000D00F929E
:10086000CDB7DEB78C017D836C83F12C0FB6F89485
:100870000F92F801828D882379F08150828F8085D4
:10088000882331F0085F1F4FB80180E80E94820A78
:100890000F900FBE81E055C08C819D81892B21F482
:1008A0000F900FBE80E04DC0F11006C0CE01019642
:1008B0000E94FA12FF24F3940F900FBE0E947B1344
:1008C0000FB6F8940F92F801858D8F3F09F4158EBD
:1008D000F801868D8F3F09F4168E0F900FBEBE0172
:1008E0006C5F7F4FCE0101960E94DC0C81111CC011
:1008F000B80180E80E941A12882381F06C817D8102
:10090000C80141960E944012C8010E94520D0E94E7
:10091000E8068111ABCF0E948008A8CFC8010E94D1
:10092000520D0E94E806A2CFC8010E94520D0E94FB
:10093000E806B80180E80E941A12882309F496CFCD
:1009400080E00F900F900F900F900F90DF91CF915C
:080950001F910F91FF90089523
:100958006F927F928F929F92AF92BF92CF92DF92C7
:10096800EF92FF920F931F93CF93DF93CDB7DEB72C
:100978003C01A62FCA01F4014789508D0150110985
:10098800040F151F0097A105D1F41FC0272F30E0D1
:10099800AC016A2F420F531F611D37FD6A95FA019A
:1009A800B49167FDB081F401E20FF31FB18FFA0132
:1009B800249167FD2081222329F07F5F01C070E028
:1009C800783020F3F40110A202C0F401118EF9E08E
:1009D800FC1520F40F2EF9E0CF2EF02DF401C68A75
:1009E800C40102960E94A113C4010C960E94A1138F
:1009F800F401918680868AE090E08C1991099587A8
:100A08008487938A828A11A212A213A214A215A221
:100A1800A701B301C8010E947C06F4019183808379
:100A2800A114B10419F0F50191828082DF91CF9170
:100A38001F910F91FF90EF90DF90CF90BF90AF90F4
:0A0A48009F908F907F906F900895AB
:100A52000E9497119093D4068093D3066AE070E0C7
:100A620080916800909169000E942804813071F59C
:100A720060E00E94241180ED90E0A0E00E94C61187
:100A820064E081E00E94241185ED90E0A0E00E94E4
:100A9200C61164E081E00E9424116091D306709136
:100AA200D40680E090E00E94250C80EE90E0A0E069
:100AB2000E94C61100E020E030E040E050E060E03B
:100AC20080916800909169000E940F038091D30683
:100AD2009091D406C297C0F08091EC0681110FC0AC
:100AE20081E08093EC0600E020E030E040E050E05E
:100AF20060E080916A0090916B000E940F0384E095
:100B020090E00E94DC11A4CF8091EC06813061F468
:100B120000E020E030E040E050E060E080916A00D8
:100B220090916B000E940F0382E190E00E94DC1121
:020B32008FCF63
:100B3400442319F04130C9F10895813091F028F02F
:100B44008230D9F0833029F108952AB381E090E00E
:100B540002C0880F991F6A95E2F7809582238ABBA9
:100B6400089527B381E090E002C0880F991F6A9529
:100B7400E2F78095822387BB089524B381E090E057
:100B840002C0880F991F6A95E2F78095822384BB7F
:100B9400089521B381E090E002C0880F991F6A95FF
:100BA400E2F78095822381BB0895813089F028F093
:100BB4008230C9F0833011F108952AB381E090E0C6
:100BC40002C0880F991F6A95E2F7822B8ABB0895A9
:100BD40027B381E090E002C0880F991F6A95E2F77D
:100BE400822B87BB089524B381E090E002C0880F74
:100BF400991F6A95E2F7822B84BB089521B381E0A3
:100C040090E002C0880F991F6A95E2F7822B81BB9E
:020C1400089541
:100C1600442319F04130C9F10895813091F028F04C
:100C26008230D9F0833029F108952BB381E090E02A
:100C360002C0880F991F6A95E2F7809582238BBBC5
:100C4600089528B381E090E002C0880F991F6A9545
:100C5600E2F78095822388BB089525B381E090E072
:100C660002C0880F991F6A95E2F78095822385BB9B
:100C7600089522B381E090E002C0880F991F6A951B
:100C8600E2F78095822382BB0895813089F028F0AF
:100C96008230C9F0833011F108952BB381E090E0E2
:100CA60002C0880F991F6A95E2F7822B8BBB0895C5
:100CB60028B381E090E002C0880F991F6A95E2F799
:100CC600822B88BB089525B381E090E002C0880F8F
:100CD600991F6A95E2F7822B85BB089522B381E0BE
:100CE60090E002C0880F991F6A95E2F7822B82BBBB
:020CF60008955F
:100CF80031E1FC013083319722E220833197A3E36D
:100D0800A083319760833197708331971082319730
:100D180060E8608331971082319762E06083319791
:100D280063E06083319764E06083319765E06083B6
:100D3800319766E06083319767E06083319768E0B8
:100D48006083319769E06083319760E16083319710
:100D58003083319732E13083319733E130833197F3
:100D680034E13083319735E13083319736E1308390
:100D7800319737E13083319738E13083319739E162
:100D88003083319730E23083319731E230833197C5
:100D98002083319723E22083319740833197508312
:100DA800319726E22083319727E22083319728E282
:100DB8002083319729E22083319720E320833197DC
:080DC80021E3208386970895C2
:100DD0000F931F93CF93DF930FB6F8940F928091E8
:100DE000EF0681508093EF068091EF06811152C08B
:100DF0008091F606811133C04DC0E091BD06F0919F
:100E0000BE06C681D781CE010C960E94C40F8E010A
:100E10000E5F1F4FC8010E94C40F8E899091F50686
:100E2000981710F48093F50690E09C01220F331F71
:100E3000220F331F220F331F820F931FB801845BD1
:100E4000994F0E94C2109E89E091E306F091E4065A
:100E50008689981730F081E08093F20602C0C0E0E6
:100E6000D0E08091B8068111C8CFCD2B11F00E943F
:100E70004311C091F306CC2359F00E949E038823AE
:100E800019F081E08093F206C150B9F71092F30691
:100E90008091F2060F900FBE80E0DF91CF911F91FD
:040EA0000F91089511
:100EA4000FC00E94491338F00E94501320F095237C
:100EB40011F00C9481130C94AD1311240C9443136E
:100EC4000E947E1070F3959FC1F3950F50E0551F5B
:100ED400629FF001729FBB27F00DB11D639FAA278B
:100EE400F00DB11DAA1F649F6627B00DA11D661FDA
:100EF400829F2227B00DA11D621F739FB00DA11DFB
:100F0400621F839FA00D611D221F749F3327A00DB4
:100F1400611D231F849F600D211D822F762F6A2F50
:100F240011249F5750409AF0F1F088234AF0EE0FB5
:100F3400FF1FBB1F661F771F881F91505040A9F7E2
:100F44009E3F510580F00C9481130C9443135F3F32
:100F5400E4F3983ED4F3869577956795B795F7951E
:100F6400E7959F5FC1F7FE2B880F911D9695879596
:040F740097F908954C
:100F78004F925F926F927F928F929F92AF92BF92A1
:100F8800CF92DF92EF92FF920F931F93CF93DF934D
:100F980000D000D00F92CDB7DEB73C0149835A8309
:100FA8006B8349012801C9010E94F70D8C01892B27
:100FB80081F086E290E00E94F70D9D838C83009774
:100FC80021F0FC01108F078B06C0C8010E94B413E2
:100FD80002C01D821C828C819D81892BD1F08401E5
:100FE80020E030E01F921F921F928C809D80560156
:100FF800CE2C720149815A816B81C3010E94AC04D5
:101008008C819D810E9431090F900F900F9081E093
:1010180001C08FEF0F900F900F900F900F90DF91FE
:10102800CF911F910F91FF90EF90DF90CF90BF90DD
:10103800AF909F908F907F906F905F904F900895A2
:10104800CF93C82F482F441F4427441F64E081E0F2
:101058000E940B06C6FB442740F963E081E00E942A
:101068000B06C5FB442740F962E081E00E940B06AD
:10107800C4FB442740F961E081E00E940B0641E08F
:1010880063E080E00E940B0683EF91E00197F1F79F
:1010980000C0000040E063E080E00E940B06C3FB54
:1010A800442740F964E081E00E940B06C2FB442714
:1010B80040F963E081E00E940B06C1FB442740F938
:1010C80062E081E00E940B064C2F417061E081E0F4
:1010D8000E940B0641E063E080E00E940B0683EF6C
:1010E80091E00197F1F700C0000040E063E080E084
:0810F8000E940B06CF91089540
:101100000F920FB6F8940F921F9211242F923F92D4
:101110004F925F926F927F928F929F92AF92BF9207
:10112000CF92DF92EF92FF920F931F932F933F93F3
:101130004F935F936F937F938F939F93AF93BF93DF
:10114000CF93DF93EF93FF93A091E306B091E40672
:101150000DB60D920EB60D920E94DC09A091E30629
:10116000B091E406CD91CDBFDD91DEBFFF91EF914F
:10117000DF91CF91BF91AF919F918F917F916F91AF
:101180005F914F913F912F911F910F91FF90EF90A1
:10119000DF90CF90BF90AF909F908F907F906F9097
:1011A0005F904F903F902F901F900F900FBE0F9029
:0211B0000895A0
:1011B200FF920F931F93CF93DF93EC01F62E0091D2
:1011C200DD061091DE068091E3069091E406029618
:1011D2000E94C40FCF3F8FEFD80769F4FF2059F068
:1011E2006091E3067091E4066E5F7F4F86EA96E0B7
:1011F2000E94C2102FC0C00FD11FE091E306F091F0
:10120200E406D383C283C017D10768F46091E30672
:101212007091E4068091DF069091E0066E5F7F4F49
:101222000E94600E17C06091E3067091E4068091FF
:10123200E1069091E2066E5F7F4F0E94600E809100
:10124200DB069091DC06C817D90720F4D093DC06A0
:10125200C093DB06DF91CF911F910F91FF9008950C
:10126200CF93DF93EC010FB6F8940F928091F606BC
:101272008F5F8093F6068091E3069091E406892BB6
:1012820059F4D093E406C093E3068091F6068130C8
:1012920099F40E948A0D10C08091F40681110CC04D
:1012A200E091E306F091E40696898E89891720F091
:1012B200D093E406C093E3068091F0068F5F80939B
:1012C200F0062E898091F506821710F42093F50618
:1012D20030E0BE016E5F7F4FC901880F991F880FF2
:1012E200991F880F991F820F931F845B994F0E9449
:1012F200C2100F900FBE8091F406882321F08091D6
:0C130200E3069091E406DF91CF9108957E
:10130E008091D3069091D40609EE16E02EEE36E0CB
:10131E004091E6066091EA060E944E016AE070E096
:10132E0080916800909169000E9428048130C1F577
:10133E0060E080E00E94241164E080E00E942411AD
:10134E0085ED90E0A0E00E94C61164E080E00E946E
:10135E0024118091D3069091D40644E6489F9001C3
:10136E00499F300D1124A9E8B8E80E949212969573
:10137E008795929582958F7089279F708927BC01DA
:10138E0080E090E00E94250C00E020E030E040E09C
:10139E0050E060E080916800909169000E940F0318
:0A13AE008EE090E00E94DC11ABCF4E
:1013B8008091EF06882321F081E08093F20608955A
:1013C8001092F2062091F50601C02150822F90E07C
:1013D800FC01EE0FFF1FEE0FFF1FEE0FFF1FE80FC0
:1013E800F91FE45BF94F3081332379F3AC01440FE3
:1013F800551F440F551F440F551F480F591FDF0134
:101408000180F281E02D0280F381E02D1296FC9399
:10141800EE931197415B594FE417F50729F4428180
:101428005381FD0152834183FC01EE0FFF1FEE0F34
:10143800FF1FEE0FFF1F8E0F9F1FFC01E45BF94F8C
:101448000180F281E02D868197819093E406809354
:08145800E3062093F506089558
:101460000F931F93CF93DF93EC010FB6F8940F9275
:10147000892B21F4C091E306D091E4068E010E5F22
:101480001F4FC8010E94C40F8C899D89892B21F0B0
:10149000CE010C960E94C40FB80186EA96E00E9425
:1014A000C2108DA1813009F41DA20F900FBE809152
:1014B000F406882339F00FB6F8940F920E94431176
:1014C0000F900FBE8091E3069091E406C817D907EC
:1014D000A1F48091F406882319F00E9480080DC0C1
:1014E0009091A6068091F606981305C01092E40626
:1014F0001092E30602C00E94DC09DF91CF911F9198
:041500000F910895AA
:101504000F931F93CF93DF93A82FCB010596A11DB3
:10151400FC015A2F0E943313FB01C681D7818E012F
:10152400045F1F4FC8010E94C40F8091EF06811110
:101534001CC00A501109C8010E94C40F8E899091E1
:10154400F506981710F48093F50690E09C01220F9D
:10155400331F220F331F220F331F820F931FB80133
:10156400845B994F0E94C21005C0B80188EB96E0D5
:101574000E94C2109E89E091E306F091E4068689F8
:10158400891720F481E08093F20601C080E0DF91A6
:08159400CF911F910F91089502
:10159C000F931F93CF93DF93EC01022F1A8D2C8D99
:1015AC002223B9F1011116C030E08A819B810E947F
:1015BC007E112C8D8A819B81820F911D9B838A8346
:1015CC002C813D818217930720F1888199819B831F
:1015DC008A831FC030E08E819F810E947E118C8D8A
:1015EC0090E09195819591092E813F81280F391FAB
:1015FC003F832E83488159812417350730F42C8181
:10160C003D81820F931F9F838E83023011F4111141
:10161C0011501F5F1A8F80E0DF91CF911F910F91B6
:02162C0008951F
:10162E00CF93C62F882319F0813009F13FC041E0D6
:10163E0065E083E00E940B06CC2319F0C13061F007
:10164E0035C041E061E082E00E940B0640E062E0BE
:10165E0082E00E940B062AC040E061E082E00E9418
:10166E000B0641E062E082E00E940B061FC041E0E3
:10167E0062E083E00E940B06CC2319F0C13061F0CA
:10168E0015C041E062E082E00E940B0640E062E09D
:10169E0082E00E940B060AC040E062E082E00E94F7
:1016AE000B0641E062E082E00E940B06CF910895A6
:1016BE00CF93DF93EC010FB6F8940F92E881F98186
:1016CE008B8D2C8D90E030E0829FA001839F500D7A
:1016DE00929F500D11244E0F5F1F5D834C831A8E07
:1016EE00FB83EA830197289FA001299F500D389F05
:1016FE00500D1124CF01840F951F9F838E838FEF82
:10170E008D8F8E8F611109C08885882371F0289680
:10171E00BE0180E80E94820A08C0CE0108960E948F
:10172E00AF12CE0141960E94AF120F900FBE81E014
:06173E00DF91CF91089538
:10174400CF92DF92EF92FF920F931F93CF93DF9389
:101754008B01EA01BC0180E090E00E94630C6B0104
:101764007C0120E030E048E452E40E94971388238F
:1017740064F48881882349F0F8011082188260E0BB
:1017840085EE96E00E94CA1214C020E030E048E4DE
:1017940052E4C701B6010E949C13882354F0888147
:1017A400811107C081E0888361E085EE96E00E94A4
:1017B400CA12DF91CF911F910F91FF90EF90DF90AC
:0417C400CF90089525
:1017C8001F920F920FB60F9211240F932F933F93EE
:1017D8004F935F936F937F938F939F93AF93BF9331
:1017E800EF93FF938091E8068F5F8093E80681E08E
:1017F8008093ED0600E020E030E040E050E060E05B
:1018080080916200909163000E940F032FE788E3A4
:1018180091E0215080409040E1F700C00000FF9126
:10182800EF91BF91AF919F918F917F916F915F9150
:101838004F913F912F910F910F900FBE0F901F90D6
:021848001895F1
:10184A001F93CF93DF93CDB7DEB72A970FB6F894DD
:10185A00DEBF0FBECDBF10E02AE030E040E050E02E
:10186A000E94A010E1E0F0E0EC0FFD1FE10FF11D76
:10187A00605D6083622F732F842F952F1F5F611520
:10188A0071058105910541F70DC0E12FF0E031970F
:10189A0081E090E08C0F9D1FE80FF91F80810E9464
:1018AA00D71211501111F1CF2A960FB6F894DEBF54
:0C18BA000FBECDBFDF91CF911F910895AC
:1018C600E89409C097FB3EF49095809570956195D4
:1018D6007F4F8F4F9F4F9923A9F0F92F96E9BB278A
:1018E6009395F695879577956795B795F111F8CF06
:1018F600FAF4BB0F11F460FF1BC06F5F7F4F8F4F71
:101906009F4F16C0882311F096E911C0772321F066
:101916009EE8872F762F05C0662371F096E8862FFE
:1019260070E060E02AF09A95660F771F881FDAF755
:0A193600880F9695879597F908959C
:101940000F931F93CF93DF932091E3063091E4062A
:101950008217930761F1009751F1EC010FB6F894EB
:101960000F920E94E310882301F18E010E5F1F4F3A
:10197000C8010E94C40F8E899091F506981710F443
:101980008093F50690E09C01220F331F220F331F36
:10199000220F331F820F931FB801845B994F0E945F
:1019A000C2108091E3069091E4060F900FBEDF9184
:0819B000CF911F910F910895E2
:1019B8001F93CF93DF930FB6F8940F92E091DD0653
:1019C800F091DE06DC0111964D915C911297DF01D2
:1019D800A41BB50BEB01288139812F3FDFEF3D07B1
:1019E800D1F0EC011881C091F1061C1719F0E41729
:1019F800F50798F4A217B30748F4FB012A1B3B0B21
:101A0800318320830E94FA1280E008C0FB01118212
:101A1800108281E003C080E001C081E00F900FBE1A
:081A2800DF91CF911F91089599
:101A3000E82F84B195B18E2F90E08830910550F554
:101A4000FC01E65DFF4F0C94871387B1887F87B94F
:101A500021C087B1887F816087B91CC087B1887F2A
:101A6000826087B917C087B1887F836087B912C049
:101A700087B1887F846087B90DC087B1887F856012
:101A800087B908C087B1887F866087B903C087B1EE
:101A9000876087B986B1806486B93699FECF84B1F4
:041AA00095B108955F
:101AA4001F93CF93DF93EC010FB6F8940F921E8D22
:101AB4000DC08989882361F0BE016F5E7F4F80E885
:101AC4000E94820A81110E94A513115011168CF3F1
:101AD4008FEF8E8F0F900FBE0FB6F8940F921D8D5F
:101AE4000DC08885882361F0BE01685F7F4F80E860
:101AF4000E94820A81110E94A513115011168CF3C1
:101B04008FEF8D8F0F900FBEDF91CF911F910895AE
:101B1400CF93C0E010C08C2F90E09C01220F331FA4
:101B2400220F331F220F331F820F931F845B994FA1
:101B34000E94AF12CF5FCA3070F38AEC96E00E9425
:101B4400AF1281EC96E00E94AF1288EB96E00E94FF
:101B5400AF128FEA96E00E94AF1286EA96E00E94E6
:101B6400AF128AEC96E09093E2068093E10681EC52
:0E1B740096E09093E0068093DF06CF910895EF
:101B82000F938091EA060E94740F0E94EF120E9446
:101B92006F1360E081E00E943B130E942C0E0E94B2
:101BA2005D130E9469138BB340E060E00E949A05C6
:101BB20000E023E040E061E080E690E00E947F02E6
:101BC200882391F082E00E941E0F0E945713811118
:101BD20005C060E08091EA060E94170B8FE19EE447
:0C1BE2000197F1F700C000000F9108957A
:101BEE00CF93DF93EC010E947B138091D5069091E9
:101BFE00D606892B31F481E790E09093D606809338
:101C0E00D5062091D7063091D806C9018C0F9D1F9D
:101C1E008B3D45E0940770F42817390770F4C09196
:101C2E00D506D091D606C20FD31F9093D8068093B7
:101C3E00D70605C0C0E0D0E002C0C0E0D0E00E94F0
:0A1C4E00E806CE01DF91CF91089562
:101C58008BE49DE10197F1F700C0000041E061E0ED
:101C680080E00E949A0541E063E080E00E949A05C6
:101C780041E061E081E00E949A0541E062E081E094
:101C88000E949A0541E063E081E00E949A0541E0E4
:101C980064E081E00E949A0582E00E94E31288E2F3
:101CA8000E94E3128CE00E94E31281E00E94E3129A
:081CB80086E00E94E31208958A
:101CC000CF93DF93EB01488159814F3F2FEF5207AC
:101CD00021F4FC01A781B0850DC0DC01139601C081
:101CE000DF011296ED91FC9113972081318142170B
:101CF0005307B0F71296ED91FC911397FB83EA839B
:101D0000D583C483BD83AC831396DC93CE931297A3
:101D100099878887FC0120812F5F2083DF91CF91F5
:021D2000089524
:101D22000E941913A091E306B091E406CD91CDBFB4
:101D3200DD91DEBFFF91EF91DF91CF91BF91AF9126
:101D42009F918F917F916F915F914F913F912F91D1
:101D52001F910F91FF90EF90DF90CF90BF90AF90C7
:101D62009F908F907F906F905F904F903F902F90B9
:0E1D72001F900F900FBE0F90089581E008950E
:101D8000CF92DF92EF920F931F930F2EF9EDCF2E8C
:101D9000F6E0DF2EF02DE12C00E010E024E630E04C
:101DA00046E151E060E082E993E10E94BC078130A6
:101DB00081F4F8948FEF9FEF9093DC068093DB061D
:101DC00081E08093F4061092DE061092DD060E94F8
:0E1DD000910E1F910F91EF90DF90CF9008952C
:101DDE000E94861088F09F5798F0B92F9927B75117
:101DEE00B0F0E1F0660F771F881F991F1AF0BA95B1
:101DFE00C9F714C0B13091F00E944213B1E00895BA
:101E0E000C944213672F782F8827B85F39F0B93FAB
:101E1E00CCF3869577956795B395D9F73EF4909563
:0E1E2E008095709561957F4F8F4F9F4F08955F
:101E3C0091B39B7F91BBF894813069F028F082308C
:101E4C00C1F0833079F01BC085B78D7F85BF85B716
:101E5C008E7F85BF14C085B78D7F85BF85B78160A8
:101E6C0085BF0DC085B7826085BF85B78E7F85BF66
:101E7C0006C085B7826085BF85B7816085BF8BB78B
:081E8C0080648BBF7894089577
:101E9400DF92EF92FF920F931F93CF93DF93E82E7D
:101EA400F62ED42E662321F0869FC001112402C091
:101EB40080E090E04F960E94F70DEC01009749F006
:101EC4008C012D2DAC01415E5F4F6F2D8E2D0E9434
:101ED4002D12CE01DF91CF911F910F91FF90EF90C2
:041EE400DF900895EE
:101EE800882319F08130A9F0089541E065E083E086
:101EF8000E949A0541E061E082E00E949A0541E073
:101F080062E082E00E949A0589E88FBD8BE08EBD71
:101F1800089541E062E083E00E949A0541E062E0B2
:101F280082E00E949A0541E062E082E00E949A0500
:021F380008950A
:101F3A00882319F0813099F008951BBC1ABC40E03F
:101F4A0065E083E00E940B0640E061E082E00E94C7
:101F5A000B0640E062E082E00E940B06089540E032
:101F6A0062E083E00E940B0640E062E082E00E94A9
:0E1F7A000B0640E062E082E00E940B06089534
:101F8800CF93DF93FC01A085B185C281D381848181
:101F980095819D838C83C481D581828193819B8324
:101FA8008A8311968D919C911297E817F90731F45D
:101FB8008481958112969C938E9311971186108631
:0E1FC8008C9181508C938C91DF91CF91089574
:101FD600CF93DF931CC00FB6F8940F92E091B4062E
:101FE600F091B506C681D781CE0102960E94C40F34
:101FF6008091F60681508093F6068091F70681500F
:102006008093F7060F900FBECE010E94BD128091FD
:0C201600F7068111E0CFDF91CF91089513
:102022008233910570F06E3638F4FA0110828CE238
:1020320091E00E94A11208958EE591E00E94A11202
:1020420008959C01295231092A30310548F4FA01D8
:102052002081213029F48FEF90E00E94A11208958F
:0A206200FA0110820E94A1120895F5
:10206C001F920F920FB60F9211242F933F934F9301
:10207C005F936F937F938F939F93AF93BF93EF93E4
:10208C00FF930E949E03FF91EF91BF91AF919F919F
:10209C008F917F916F915F914F913F912F910F9005
:0820AC000FBE0F901F90189564
:1020B400990F0008550FAA0BE0E8FEEF1616170655
:1020C400E807F907C0F012161306E407F50798F0BD
:1020D400621B730B840B950B39F40A2661F0232BD6
:1020E400242B252B21F408950A2609F4A140A69552
:0820F4008FEF811D811D08958D
:1020FC0057FD9058440F551F59F05F3F71F04795AD
:10210C00880F97FB991F61F09F3F79F08795089591
:10211C00121613061406551FF2CF4695F1DF08C0B0
:10212C00161617061806991FF1CF869571056105CD
:04213C000894089566
:10214000A1E21A2EAA1BBB1BFD010DC0AA1FBB1FBB
:10215000EE1FFF1FA217B307E407F50720F0A21B2D
:10216000B30BE40BF50B661F771F881F991F1A949A
:1021700069F760957095809590959B01AC01BD01C4
:04218000CF010895EE
:10218400CF93DF939C01FB01DC011196CD91DC918F
:102194001297D383C2838C819D81958384838C81A0
:1021A4009D81DC0113967C936E9312977D836C83DF
:1021B40031872087F90180818F5F8083DF91CF9100
:0221C40008957C
:1021C600A0E89C014A2F265F3F4F4F4FF901542F3D
:1021D6000E943313665A764071F44496A11DFC01A1
:1021E6005A2F0E94331386E0683B780731F0672B3D
:1021F60031F080E0089580E0089580E0089581E060
:02220600089539
:1022080064E070E080916200909163000E9428046D
:10221800813059F46091E7068091D3069091D406F5
:102228004DEE56E00E941110EBCF6091E7068091C9
:10223800D3069091D4064DEE56E00E941110E0CFDF
:10224800CF93DF9300D000D0CDB7DEB7198290E4EA
:102258009A8394E19B8394E59C83E1E0F0E0EC0FA2
:10226800FD1FE80FF11D8081860F80580E94E31240
:0E2278000F900F900F900F90DF91CF9108956F
:10228600E091E106F091E2068081811107C08FEFAF
:102296009FEF9093DC068093DB060895E091E106BC
:1022A600F091E2060580F681E02D0680F781E02DAB
:0E22B600828193819093DC068093DB0608956D
:1022C4000FB6F8940F929B01482F265E3F4F4F4F55
:1022D400F901249147FD2081A82FCB014B96A11D24
:1022E400FC018491A7FD8081281302C081E001C014
:0822F40080E00F900FBE089579
:1022FC00CF92DF92EF926A01E62EDC01280F391F94
:10230C00A217B30751F0F6014491E7FC40814D93BD
:10231C004FEFC41AD40AE40AF3CFEF90DF90CF90BA
:02232C00089512
:10232E0080E00E94180DBC0180E090E00E94630CDA
:10233E0020E030E04AEF53E40E94A91320E030E0A1
:10234E0040E85AE30E94A9130E94EF0ECB010895B4
:10235E00052E97FB1EF400940E942B1357FD07D0F9
:10236E000E94A01007FC03D04EF40C942B13509532
:0E237E004095309521953F4F4F4F5F4F08958A
:10238C000F931F93CF93DF938C01C0E0D0E003C079
:10239C000E94D7122196F801EC0FFD1F808181114C
:0C23AC00F7CFDF91CF911F910F910895A2
:1023B800CF93DF93EC01892B49F00E947B1360E0F7
:1023C800CE010E94D9080E94E80601C080E0811170
:0C23D80002C00E948008DF91CF910895A0
:1023E40097FB072E16F4009407D077FD09D00E94BE
:1023F400061207FC05D03EF4909581959F4F0895F1
:08240400709561957F4F08956A
:10240C00AA1BBB1B51E107C0AA1FBB1FA617B7070E
:10241C0010F0A61BB70B881F991F5A95A9F780952A
:08242C009095BC01CD0108955B
:102434000FB6F8940F92A82FCB014A96A11DFC0168
:102444008491A7FD8081811102C081E001C080E0F8
:062454000F900FBE089579
:10245A000F931F93F801611103C01183008302C017
:10246A0051834083838F648F61E0CF010E945F0BA9
:06247A001F910F9108956F
:10248000CF93DF93EB016091E3067091E406645F04
:102490007F4F0E94600E61E0CE010E94D908DF915B
:0424A000CF9108953B
:1024A400092E0394000C11F4882352F0BB0F40F45E
:1024B400BF2B11F460FF04C06F5F7F4F8F4F9F4F9E
:0224C400089579
:1024C600262FE199FECF9FBB8EBBE09A01970DB2F6
:1024D600021631F02DBB0FB6F894E29AE19A0FBEC0
:0224E600089557
:1024E8008091D3069091D4064EEE56E067EE76E0E2
:0E24F8000E94A20B89E290E00E94DC11F1CF5D
:10250600882319F0813021F008957BBD6ABD0895B6
:0E251600769567957695679579BD68BD0895B1
:10252400A29FB001B39FC001A39F700D811D112410
:0E253400911DB29F700D811D1124911D0895FF
:10254200CF93DF93D82F892F0E948D13C82F8D2F01
:0C2552000E948D138C2BDF91CF91089517
:10255E00FC010396928381832FEF3FEF3483238315
:0C256E00968385839087878310820895F0
:10257A00CF93DF93EC018F89988D0E94B413CE011B
:0A258A000E94B413DF91CF91089571
:10259400262FE199FECF9FBB8EBB2DBB0FB6F894BF
:0A25A400E29AE19A0FBE0196089535
:1025AE00CF93C82F41E061E080E00E940B068C2F94
:0825BE000E942408CF9108954A
:1025C600CF93C82F40E061E080E00E940B068C2F7D
:0825D6000E942408CF91089532
:1025DE0060E085EE96E00E94631260E085EE96E084
:0625EE000E946312089533
:1025F4002091F106FC0120832091DD063091DE0656
:06260400328321830895DA
:10260A00EC010E94B7130E94B613CE010E94B813C0
:06261A00CE010E94B21384
:102620000E94C10D0E94EF010E94C00E80E090E068
:0226300008950B
:102632001BBC89EF8ABD8BE08EBD89B7806189BFE3
:022642000895F9
:10264400CB01E199FECF9FBB8EBBE09A99278DB356
:022654000895E7
:1026560090958095709561957F4F8F4F9F4F089508
:1026660057FD03C065917591089561917191089523
:0E26760087B1806487B986B1876A86B90895F6
:0E268400E894BB2766277727CB0197F90895C6
:0E26920000240A941616170618060906089565
:0E26A00000240A941216130614060506089567
:0C26AE0065EE76E080E80E94221308959B
:0C26BA0041E060E081E00E949A05089574
:0C26C60041E060E081E00E940B060895F6
:0C26D20040E060E081E00E940B060895EB
:0C26DE0041E060E080E00E949A05089551
:0C26EA00F8941092F4060E94B5130895B5
:0C26F6008091EF068F5F8093EF0608953F
:0C27020097F99F6780E870E060E00895A0
:0C270E00EE0FFF1F0590F491E02D0994E0
:0A271A005D9BFECF8CB981E00895AD
:0A2724000E94EB0F0E948008FBCF1B
:0A272E000E945A1008F481E008959B
:0A2738000E945A1008F48FEF089574
:08274200FC01118610860895C8
:08274A0081E08093F20608957E
:082752000E9452070C94521280
:06275A009FEF80EC0895E2
:042760000C940000D5
:042764000E94660069
:022768000895D2
:02276A000895D0
:02276C000895CE
:02276E000895CC
:022770000895CA
:012772006402
:00000001FF
