:100000000C943E000C94CF0B0C949B130C949B13FC
:100010000C949B130C949B130C949B130C94211025
:100020000C949B130C949B130C949B130C949B1398
:100030000C949B130C949B130C949B130C949B1388
:100040000C949B130C949B130C949B130C949B1378
:100050000C949B13100D140D190D1E0D230D280D5E
:100060002D0D320D006006E58006E506E600011B59
:1000700006E606E700274806E706F88011241FBEBB
:10008000CFE5D8E0DEBFCDBFE4E6F0E040E017C04A
:10009000B591A59135912591059107FD0CC09591DC
:1000A0008591EF01F92FE82F05900D92A217B30764
:1000B000D9F7FE0104C01D92A217B307E1F7EC3790
:1000C000F40731F70E94FB120C94F012F894FFCF62
:1000D000544D503A002020202020202020202000B5
:1000E0004300544D505F5441534B00554152545FAF
:1000F0005441534B00454553544154455F5441537B
:100100004B0046414E315F5441534B00454D4552E3
:060110005F5441534B0057
:0501160049444C4500C6
:01011B0040A3
:10011C008091EC06882321F0813009F44AC0F8CF95
:10012C0060E170E080916A0090916B000E94130472
:10013C00813061F580916600909167000E941B0AE6
:10014C0080916000909161000E941B0A8091640074
:10015C00909165000E941B0A81E08093EE0684E674
:10016C008093E6068091D3069091D40609EE16E0B2
:10017C002EEE36E044E66091EA060E943901609169
:10018C00EE0685EE96E00E94B512C2CF8091660015
:10019C00909167000E948B0C80916000909161009F
:1001AC000E948B0C80916400909165000E948B0CD6
:1001BC00AFCF65E070E080916A0090916B000E9477
:1001CC001304813079F51092EB061092EC06109224
:1001DC00EE068091D3069091D40609EE16E02EEE31
:1001EC0036E04091E6066091EA060E943901609182
:1001FC00EE0685EE96E00E94B5120E945413809193
:10020C006600909167000E948B0C80916000909129
:10021C0061000E948B0C80916400909165000E949B
:10022C008B0C1CC08091EB068F5F8093EB068E3697
:10023C00A8F0F8940E944E130E94601382E0809301
:10024C00EE0662E085EE96E00E94B51288E081BD74
:10025C008091EB068F5F8093EB06FACF8CE290E0F7
:06026C000E94C71155CFEE
:100272008F929F92AF92BF92EF92FF920F931F9332
:10028200CF93DF937C01C62FD42FF9019081913057
:1002920009F462C020F0923009F46EC07FC0B70149
:1002A20080E090E00E944E0C4B015C0120E030E0C7
:1002B20040EA51E40E948213181624F08C2F0E9407
:1002C200880F6CC020E030E040EA51E4C501B4017F
:1002D2000E94871318164CF520E030E040E252E409
:1002E200C501B4010E9482131816FCF060E08C2F45
:1002F2000E94020BDE9DC001DF9D900D11249C0126
:10030200220F331F220F331F280F391F36952795CF
:1003120036952795ABE7B4E10E947D12BC01769534
:1003220067958C2F0E946E1239C0F9E2EF1AF1081C
:100332002AE0E216F10490F560E08C2F0E94020B95
:10034200EAEFDE9FC001112464E670E00E94DD1135
:100352008C2F0E946E1222C060E08C2F0E94020B32
:10036200FAEFDF9FC001112464E670E00E94DD1104
:100372008C2F0E946E1212C060E08C2F0E94020B22
:100382002AEFD29FC001112464E670E00E94DD11C1
:100392008C2F0E946E1281E0F8018083DF91CF9151
:1003A2001F910F91FF90EF90BF90AF909F908F9011
:0203B2000895AC
:1003B400CF92DF92EF920F931F9343E060E081E0CE
:1003C4000E94350F909363008093620060E070E0B8
:1003D4000E94130443E060E081E00E94350F909393
:1003E40069008093680000E020E030E040E050E0E5
:1003F40060E00E94FA0243E060E081E00E94350F71
:1004040090936B0080936A0060E070E00E94130494
:100414000F2EFEE6CF2EF0E0DF2EF02DE12C00E0D3
:1004240010E024E630E042EE50E060E084E195E044
:100434000E94A7070F2EF6E6CF2EF0E0DF2EF02D58
:100444000F2EF3E0EF2EF02D24E630E04BEE50E0DB
:1004540060E08FEE90E10E94A7070F2EF0E6CF2E0A
:10046400F0E0DF2EF02DE12C24E630E045EF50E003
:1004740060E08FE592E10E94A7070F2EF4E6CF2EED
:10048400F0E0DF2EF02D6894EE24E1F824E630E06D
:1004940042E051E060E082E799E00E94A7070F2E56
:1004A400FCE6CF2EF0E0DF2EF02D0F2EF5E0EF2E40
:1004B400F02D24E630E04CE051E060E08EE890E07E
:1004C4000E94A7071F910F91EF90DF90CF9008959E
:1004D4000F9331B3326031BB31B33E7F31BB3AB19C
:1004E40038613AB9662319F0613029F007C030B594
:1004F4003F7730BD03C030B5306830BD2230F9F0ED
:1005040028F4222341F0213081F036C0233009F150
:10051400243049F131C02AB12B7F2AB920B52B7F71
:1005240020BD20B52D7F20BD27C02AB12B7F2AB93D
:1005340020B52B7F20BD20B5226020BD1DC02AB16F
:100544002B7F2AB920B5246020BD20B52D7F20BD86
:1005540013C02AB12B7F2AB920B5246020BD20B551
:10056400226020BD09C02AB124602AB920B52460C4
:1005740020BD20B5226020BD413059F018F0423032
:1005840079F014C020B52F7D20BD20B52F7E20BD6D
:100594000DC020B5206220BD20B52F7E20BD06C031
:1005A40020B5206220BD20B5206120BD002319F0B4
:1005B400013029F007C020B5277F20BD03C020B536
:1005C400286020BD9C0122953295307F3227207F00
:1005D400322740E050E060E071E782E090E00E9462
:1005E4009A112150310929B930BD81E00F91089544
:1005F4006F927F928F92EF92FF920F931F93CF93FC
:10060400DF9300D000D00F92CDB7DEB77C013A0162
:10061400862E3D832C8310E00FB6F8940F92F701D9
:10062400928D838D981710F00230A9F4202F682D35
:10063400A301C7010E94B90AF7018189882339F00F
:10064400F1E1EF0EF11CB70180E80E946D0A0F90F2
:100654000FBE81E04DC08C819D81892B21F40F90C8
:100664000FBE80E045C0111105C0CE0101960E9465
:10067400E51211E00F900FBE0E9466130FB6F894B6
:100684000F92F701858D8F3F09F4158EF701868D42
:100694008F3F09F4168E0F900FBEBE016C5F7F4F23
:1006A400CE0101960E94C70C81111CC0B70180E8DD
:1006B4000E944D11882381F06C817D81C7010896C9
:1006C4000E942B12C7010E943D0D0E94D306811186
:1006D400A3CF0E946B08A0CFC7010E943D0D0E94CA
:1006E400D3069ACFC7010E943D0D0E94D30680E035
:1006F4000F900F900F900F900F90DF91CF911F915B
:0E0704000F91FF90EF908F907F906F9008956F
:10071200EF92FF920F931F93CF93DF938091EF0697
:10072200811173C0E090DD06F090DE068FEFE81ACB
:10073200F80AF092DE06E092DD06E114F104B9F463
:100742008091E1069091E2062091DF063091E00669
:100752003093E2062093E1069093E0068093DF0651
:100762008091F1068F5F8093F1060E942E11809195
:10077200DB069091DC06E816F90608F44BC0E0911E
:10078200E106F091E2068081811107C08FEF9FEFB1
:100792009093DC068093DB063DC0E091E106F09188
:1007A200E2060580F681E02DC681D7818A819B8190
:1007B200E816F90628F49093DC068093DB062AC03B
:1007C2008E010E5F1F4FC8010E94AF0F8C899D8959
:1007D200892B21F0CE010C960E94AF0F8E89909149
:1007E200F506981710F48093F50690E09C01220F0D
:1007F200331F220F331F220F331F820F931FB801A3
:10080200845B994F0E94AD10BACF8091F3068F5F3F
:100812008093F30680E0DF91CF911F910F91FF90BB
:04082200EF900895B6
:10082600FF920F931F93CF93DF9300D000D00F92C8
:10083600CDB7DEB78C017D836C83F12C0FB6F894AF
:100846000F92F801828D882379F08150828F8085FE
:10085600882331F0085F1F4FB80180E80E946D0AB7
:100866000F900FBE81E055C08C819D81892B21F4AC
:100876000F900FBE80E04DC0F11006C0CE0101966C
:100886000E94E512FF24F3940F900FBE0E94661398
:100896000FB6F8940F92F801858D8F3F09F4158EE7
:1008A600F801868D8F3F09F4168E0F900FBEBE019C
:1008B6006C5F7F4FCE0101960E94C70C81111CC050
:1008C600B80180E80E940512882381F06C817D8141
:1008D600C80141960E942B12C8010E943D0D0E943C
:1008E600D3068111ABCF0E946B08A8CFC8010E9426
:1008F6003D0D0E94D306A2CFC8010E943D0D0E9465
:10090600D306B80180E80E940512882309F496CF21
:1009160080E00F900F900F900F900F90DF91CF9186
:080926001F910F91FF9008954D
:10092E006F927F928F929F92AF92BF92CF92DF92F1
:10093E00EF92FF920F931F93CF93DF93CDB7DEB756
:10094E003C01A62FCA01F4014789508D01501109AF
:10095E00040F151F0097A105D1F41FC0272F30E0FB
:10096E00AC016A2F420F531F611D37FD6A95FA01C4
:10097E00B49167FDB081F401E20FF31FB18FFA015C
:10098E00249167FD2081222329F07F5F01C070E052
:10099E00783020F3F40110A202C0F401118EF9E0B8
:1009AE00FC1520F40F2EF9E0CF2EF02DF401C68A9F
:1009BE00C40102960E948C13C4010C960E948C13E3
:1009CE00F401918680868AE090E08C1991099587D2
:1009DE008487938A828A11A212A213A214A215A24C
:1009EE00A701B301C8010E946706F40191838083B9
:1009FE00A114B10419F0F50191828082DF91CF919B
:100A0E001F910F91FF90EF90DF90CF90BF90AF901E
:0A0A1E009F908F907F906F900895D5
:100A28000E9482119093D4068093D3066AE070E006
:100A380080916800909169000E941304813071F5DB
:100A480060E00E940F1180ED90E0A0E00E94B111DB
:100A580064E081E00E940F1185ED90E0A0E00E9423
:100A6800B11164E081E00E940F116091D30670918A
:100A7800D40680E090E00E94100C80EE90E0A0E0A8
:100A88000E94B11100E020E030E040E050E060E07A
:100A980080916800909169000E94FA028091D306C3
:100AA8009091D406C297C0F08091EC0681110FC0D6
:100AB80081E08093EC0600E020E030E040E050E088
:100AC80060E080916A0090916B000E94FA0284E0D5
:100AD80090E00E94C711A4CF8091EC06813061F4A8
:100AE80000E020E030E040E050E060E080916A0003
:100AF80090916B000E94FA0282E190E00E94C71177
:020B08008FCF8D
:100B0A00442319F04130C9F10895813091F028F059
:100B1A008230D9F0833029F108952AB381E090E038
:100B2A0002C0880F991F6A95E2F7809582238ABBD3
:100B3A00089527B381E090E002C0880F991F6A9553
:100B4A00E2F78095822387BB089524B381E090E081
:100B5A0002C0880F991F6A95E2F78095822384BBA9
:100B6A00089521B381E090E002C0880F991F6A9529
:100B7A00E2F78095822381BB0895813089F028F0BD
:100B8A008230C9F0833011F108952AB381E090E0F0
:100B9A0002C0880F991F6A95E2F7822B8ABB0895D3
:100BAA0027B381E090E002C0880F991F6A95E2F7A7
:100BBA00822B87BB089524B381E090E002C0880F9E
:100BCA00991F6A95E2F7822B84BB089521B381E0CD
:100BDA0090E002C0880F991F6A95E2F7822B81BBC9
:020BEA0008956C
:100BEC00442319F04130C9F10895813091F028F077
:100BFC008230D9F0833029F108952BB381E090E055
:100C0C0002C0880F991F6A95E2F7809582238BBBEF
:100C1C00089528B381E090E002C0880F991F6A956F
:100C2C00E2F78095822388BB089525B381E090E09C
:100C3C0002C0880F991F6A95E2F78095822385BBC5
:100C4C00089522B381E090E002C0880F991F6A9545
:100C5C00E2F78095822382BB0895813089F028F0D9
:100C6C008230C9F0833011F108952BB381E090E00C
:100C7C0002C0880F991F6A95E2F7822B8BBB0895EF
:100C8C0028B381E090E002C0880F991F6A95E2F7C3
:100C9C00822B88BB089525B381E090E002C0880FB9
:100CAC00991F6A95E2F7822B85BB089522B381E0E8
:100CBC0090E002C0880F991F6A95E2F7822B82BBE5
:020CCC00089589
:100CCE0031E1FC013083319722E220833197A3E397
:100CDE00A08331976083319770833197108231975B
:100CEE0060E8608331971082319762E060833197BC
:100CFE0063E06083319764E06083319765E06083E1
:100D0E00319766E06083319767E06083319768E0E2
:100D1E006083319769E06083319760E1608331973A
:100D2E003083319732E13083319733E1308331971D
:100D3E0034E13083319735E13083319736E13083BA
:100D4E00319737E13083319738E13083319739E18C
:100D5E003083319730E23083319731E230833197EF
:100D6E002083319723E2208331974083319750833C
:100D7E00319726E22083319727E22083319728E2AC
:100D8E002083319729E22083319720E32083319706
:080D9E0021E3208386970895EC
:100DA6000F931F93CF93DF930FB6F8940F92809112
:100DB600EF0681508093EF068091EF06811152C0B5
:100DC6008091F606811133C04DC0E091BD06F091C9
:100DD600BE06C681D781CE010C960E94AF0F8E014A
:100DE6000E5F1F4FC8010E94AF0F8E899091F506C6
:100DF600981710F48093F50690E09C01220F331F9C
:100E0600220F331F220F331F820F931FB801845BFB
:100E1600994F0E94AD109E89E091E306F091E40699
:100E26008689981730F081E08093F20602C0C0E010
:100E3600D0E08091B8068111C8CFCD2B11F00E9469
:100E46002E11C091F306CC2359F00E948903882302
:100E560019F081E08093F206C150B9F71092F306BB
:100E66008091F2060F900FBE80E0DF91CF911F9127
:040E76000F9108953B
:100E7A000FC00E94341338F00E943B1320F09523D0
:100E8A0011F00C946C130C94981311240C942E13D7
:100E9A000E94691070F3959FC1F3950F50E0551F9A
:100EAA00629FF001729FBB27F00DB11D639FAA27B5
:100EBA00F00DB11DAA1F649F6627B00DA11D661F04
:100ECA00829F2227B00DA11D621F739FB00DA11D25
:100EDA00621F839FA00D611D221F749F3327A00DDF
:100EEA00611D231F849F600D211D822F762F6A2F7B
:100EFA0011249F5750409AF0F1F088234AF0EE0FE0
:100F0A00FF1FBB1F661F771F881F91505040A9F70C
:100F1A009E3F510580F00C946C130C942E135F3F86
:100F2A00E4F3983ED4F3869577956795B795F79548
:100F3A00E7959F5FC1F7FE2B880F911D96958795C0
:040F4A0097F9089576
:100F4E004F925F926F927F928F929F92AF92BF92CB
:100F5E00CF92DF92EF92FF920F931F93CF93DF9377
:100F6E0000D000D00F92CDB7DEB73C0149835A8333
:100F7E006B8349012801C9010E94E20D8C01892B66
:100F8E0081F086E290E00E94E20D9D838C830097B3
:100F9E0021F0FC01108F078B06C0C8010E949F1321
:100FAE0002C01D821C828C819D81892BD1F084010F
:100FBE0020E030E01F921F921F928C809D80560180
:100FCE00CE2C720149815A816B81C3010E94970414
:100FDE008C819D810E941C090F900F900F9081E0D3
:100FEE0001C08FEF0F900F900F900F900F90DF9129
:100FFE00CF911F910F91FF90EF90DF90CF90BF9008
:10100E00AF909F908F907F906F905F904F900895CC
:10101E00CF93C82F482F441F4427441F64E081E01C
:10102E000E94F605C6FB442740F963E081E00E946A
:10103E00F605C5FB442740F962E081E00E94F60503
:10104E00C4FB442740F961E081E00E94F60541E0CF
:10105E0063E080E00E94F60583EF91E00197F1F7DF
:10106E0000C0000040E063E080E00E94F605C3FB94
:10107E00442740F964E081E00E94F605C2FB442754
:10108E0040F963E081E00E94F605C1FB442740F978
:10109E0062E081E00E94F6054C2F417061E081E034
:1010AE000E94F60541E063E080E00E94F60583EFC2
:1010BE0091E00197F1F700C0000040E063E080E0AE
:0810CE000E94F605CF91089580
:1010D6000F920FB6F8940F921F9211242F923F92FF
:1010E6004F925F926F927F928F929F92AF92BF9232
:1010F600CF92DF92EF92FF920F931F932F933F931E
:101106004F935F936F937F938F939F93AF93BF9309
:10111600CF93DF93EF93FF93A091E306B091E4069C
:101126000DB60D920EB60D920E94C709A091E30668
:10113600B091E406CD91CDBFDD91DEBFFF91EF9179
:10114600DF91CF91BF91AF919F918F917F916F91D9
:101156005F914F913F912F911F910F91FF90EF90CB
:10116600DF90CF90BF90AF909F908F907F906F90C1
:101176005F904F903F902F901F900F900FBE0F9053
:021186000895CA
:10118800FF920F931F93CF93DF93EC01F62E0091FC
:10119800DD061091DE068091E3069091E406029642
:1011A8000E94AF0FCF3F8FEFD80769F4FF2059F0A7
:1011B8006091E3067091E4066E5F7F4F86EA96E0E1
:1011C8000E94AD102FC0C00FD11FE091E306F0912F
:1011D800E406D383C283C017D10768F46091E3069D
:1011E8007091E4068091DF069091E0066E5F7F4F74
:1011F8000E944B0E17C06091E3067091E40680913F
:10120800E1069091E2066E5F7F4F0E944B0E80913F
:10121800DB069091DC06C817D90720F4D093DC06CA
:10122800C093DB06DF91CF911F910F91FF90089536
:10123800CF93DF93EC010FB6F8940F928091F606E6
:101248008F5F8093F6068091E3069091E406892BE0
:1012580059F4D093E406C093E3068091F6068130F2
:1012680099F40E94750D10C08091F40681110CC08C
:10127800E091E306F091E40696898E89891720F0BB
:10128800D093E406C093E3068091F0068F5F8093C5
:10129800F0062E898091F506821710F42093F50642
:1012A80030E0BE016E5F7F4FC901880F991F880F1C
:1012B800991F880F991F820F931F845B994F0E9473
:1012C800AD100F900FBE8091F406882321F0809115
:0C12D800E3069091E406DF91CF910895A9
:1012E4008091D3069091D40609EE16E02EEE36E0F6
:1012F4004091E6066091EA060E9439016AE070E0D6
:1013040080916800909169000E9413048130C1F5B6
:1013140060E080E00E940F1164E080E00E940F1101
:1013240085ED90E0A0E00E94B11164E080E00E94AD
:101334000F118091D3069091D40644E6489F900102
:10134400499F300D1124A9E8B8E80E947D129695B2
:101354008795929582958F7089279F708927BC0104
:1013640080E090E00E94100C00E020E030E040E0DB
:1013740050E060E080916800909169000E94FA0258
:0A1384008EE090E00E94C711ABCF8D
:10138E008091EF06882321F081E08093F206089584
:10139E001092F2062091F50601C02150822F90E0A6
:1013AE00FC01EE0FFF1FEE0FFF1FEE0FFF1FE80FEA
:1013BE00F91FE45BF94F3081332379F3AC01440F0D
:1013CE00551F440F551F440F551F480F591FDF015E
:1013DE000180F281E02D0280F381E02D1296FC93C4
:1013EE00EE931197415B594FE417F50729F44281AB
:1013FE005381FD0152834183FC01EE0FFF1FEE0F5F
:10140E00FF1FEE0FFF1F8E0F9F1FFC01E45BF94FB6
:10141E000180F281E02D868197819093E40680937E
:08142E00E3062093F506089582
:101436000F931F93CF93DF93EC010FB6F8940F929F
:10144600892B21F4C091E306D091E4068E010E5F4C
:101456001F4FC8010E94AF0F8C899D89892B21F0EF
:10146600CE010C960E94AF0FB80186EA96E00E9464
:10147600AD108DA1813009F41DA20F900FBE809191
:10148600F406882339F00FB6F8940F920E942E11B5
:101496000F900FBE8091E3069091E406C817D90716
:1014A600A1F48091F406882319F00E946B080DC000
:1014B6009091A6068091F606981305C01092E40650
:1014C6001092E30602C00E94C709DF91CF911F91D7
:0414D6000F910895D5
:1014DA000F931F93CF93DF93A82FCB010596A11DDE
:1014EA00FC015A2F0E941E13FB01C681D7818E016F
:1014FA00045F1F4FC8010E94AF0F8091EF06811150
:10150A001CC00A501109C8010E94AF0F8E89909120
:10151A00F506981710F48093F50690E09C01220FC7
:10152A00331F220F331F220F331F820F931FB8015D
:10153A00845B994F0E94AD1005C0B80188EB96E014
:10154A000E94AD109E89E091E306F091E406868937
:10155A00891720F481E08093F20601C080E0DF91D0
:08156A00CF911F910F9108952C
:101572000F931F93CF93DF93EC01022F1A8D2C8DC3
:101582002223B9F1011116C030E08A819B810E94A9
:1015920069112C8D8A819B81820F911D9B838A8385
:1015A2002C813D818217930720F1888199819B8349
:1015B2008A831FC030E08E819F810E9469118C8DC9
:1015C20090E09195819591092E813F81280F391FD5
:1015D2003F832E83488159812417350730F42C81AB
:1015E2003D81820F931F9F838E83023011F411116C
:1015F20011501F5F1A8F80E0DF91CF911F910F91E1
:02160200089549
:10160400CF93C62F882319F0813009F13FC041E000
:1016140065E083E00E94F605CC2319F0C13061F047
:1016240035C041E061E082E00E94F60540E062E0FE
:1016340082E00E94F6052AC040E061E082E00E9458
:10164400F60541E062E082E00E94F6051FC041E039
:1016540062E083E00E94F605CC2319F0C13061F00A
:1016640015C041E062E082E00E94F60540E062E0DD
:1016740082E00E94F6050AC040E062E082E00E9437
:10168400F60541E062E082E00E94F605CF910895FC
:10169400CF93DF93EC010FB6F8940F92E881F981B0
:1016A4008B8D2C8D90E030E0829FA001839F500DA4
:1016B400929F500D11244E0F5F1F5D834C831A8E31
:1016C400FB83EA830197289FA001299F500D389F2F
:1016D400500D1124CF01840F951F9F838E838FEFAC
:1016E4008D8F8E8F611109C08885882371F02896AB
:1016F400BE0180E80E946D0A08C0CE0108960E94CF
:101704009A12CE0141960E949A120F900FBE81E068
:06171400DF91CF91089562
:10171A00CF92DF92EF92FF920F931F93CF93DF93B3
:10172A008B01EA01BC0180E090E00E944E0C6B0143
:10173A007C0120E030E048E452E40E9482138823CE
:10174A0064F48881882349F0F8011082188260E0E5
:10175A0085EE96E00E94B51214C020E030E048E41D
:10176A0052E4C701B6010E948713882354F0888186
:10177A00811107C081E0888361E085EE96E00E94CE
:10178A00B512DF91CF911F910F91FF90EF90DF90EB
:04179A00CF9008954F
:10179E001F920F920FB60F9211240F932F933F9318
:1017AE004F935F936F937F938F939F93AF93BF935B
:1017BE00EF93FF938091E8068F5F8093E80681E0B8
:1017CE008093ED0600E020E030E040E050E060E085
:1017DE0080916200909163000E94FA022FE788E3E5
:1017EE0091E0215080409040E1F700C00000FF9151
:1017FE00EF91BF91AF919F918F917F916F915F917B
:10180E004F913F912F910F910F900FBE0F901F9000
:02181E0018951B
:101820001F93CF93DF93CDB7DEB72A970FB6F89407
:10183000DEBF0FBECDBF10E02AE030E040E050E058
:101840000E948B10E1E0F0E0EC0FFD1FE10FF11DB5
:10185000605D6083622F732F842F952F1F5F61154A
:1018600071058105910541F70DC0E12FF0E0319739
:1018700081E090E08C0F9D1FE80FF91F80810E948E
:10188000C21211501111F1CF2A960FB6F894DEBF93
:0C1890000FBECDBFDF91CF911F910895D6
:10189C00E89409C097FB3EF49095809570956195FE
:1018AC007F4F8F4F9F4F9923A9F0F92F96E9BB27B4
:1018BC009395F695879577956795B795F111F8CF30
:1018CC00FAF4BB0F11F460FF1BC06F5F7F4F8F4F9B
:1018DC009F4F16C0882311F096E911C0772321F091
:1018EC009EE8872F762F05C0662371F096E8862F29
:1018FC0070E060E02AF09A95660F771F881FDAF780
:0A190C00880F9695879597F90895C6
:101916000F931F93CF93DF932091E3063091E40654
:101926008217930761F1009751F1EC010FB6F89415
:101936000F920E94CE10882301F18E010E5F1F4F79
:10194600C8010E94AF0F8E899091F506981710F482
:101956008093F50690E09C01220F331F220F331F60
:10196600220F331F820F931FB801845B994F0E9489
:10197600AD108091E3069091E4060F900FBEDF91C3
:08198600CF911F910F9108950C
:10198E001F93CF93DF930FB6F8940F92E091DD067D
:10199E00F091DE06DC0111964D915C911297DF01FC
:1019AE00A41BB50BEB01288139812F3FDFEF3D07DB
:1019BE00D1F0EC011881C091F1061C1719F0E41753
:1019CE00F50798F4A217B30748F4FB012A1B3B0B4B
:1019DE00318320830E94E51280E008C0FB01118252
:1019EE00108281E003C080E001C081E00F900FBE45
:0819FE00DF91CF911F910895C4
:101A0600E82F84B195B18E2F90E08830910550F57E
:101A1600FC01E65DFF4F0C94721387B1887F87B98E
:101A260021C087B1887F816087B91CC087B1887F54
:101A3600826087B917C087B1887F836087B912C073
:101A460087B1887F846087B90DC087B1887F85603C
:101A560087B908C087B1887F866087B903C087B118
:101A6600876087B986B1806486B93699FECF84B11E
:041A760095B1089589
:101A7A001F93CF93DF93EC010FB6F8940F921E8D4C
:101A8A000DC08989882361F0BE016F5E7F4F80E8AF
:101A9A000E946D0A81110E949013115011168CF345
:101AAA008FEF8E8F0F900FBE0FB6F8940F921D8D89
:101ABA000DC08885882361F0BE01685F7F4F80E88A
:101ACA000E946D0A81110E949013115011168CF315
:101ADA008FEF8D8F0F900FBEDF91CF911F910895D9
:101AEA00CF93C0E010C08C2F90E09C01220F331FCF
:101AFA00220F331F220F331F820F931F845B994FCC
:101B0A000E949A12CF5FCA3070F38AEC96E00E9464
:101B1A009A1281EC96E00E949A1288EB96E00E9453
:101B2A009A128FEA96E00E949A1286EA96E00E943A
:101B3A009A128AEC96E09093E2068093E10681EC91
:0E1B4A0096E09093E0068093DF06CF91089519
:101B58000F938091EA060E945F0F0E94DA120E949A
:101B68005A1360E081E00E9426130E94170E0E941B
:101B780048130E9454138BB340E060E00E9485052F
:101B880000E023E040E061E080E690E00E946A0225
:101B9800882391F082E00E94090F0E94421381116C
:101BA80005C060E08091EA060E94020B8FE19EE486
:0C1BB8000197F1F700C000000F910895A4
:101BC400CF93DF93EC010E9466138091D506909128
:101BD400D606892B31F481E790E09093D606809362
:101BE400D5062091D7063091D806C9018C0F9D1FC8
:101BF4008B3D45E0940770F42817390770F4C091C1
:101C0400D506D091D606C20FD31F9093D8068093E1
:101C1400D70605C0C0E0D0E002C0C0E0D0E00E941A
:0A1C2400D306CE01DF91CF910895A1
:101C2E008BE49DE10197F1F700C0000041E061E017
:101C3E0080E00E94850541E063E080E00E9485051A
:101C4E0041E061E081E00E94850541E062E081E0D3
:101C5E000E94850541E063E081E00E94850541E038
:101C6E0064E081E00E94850582E00E94CE1288E247
:101C7E000E94CE128CE00E94CE1281E00E94CE1203
:081C8E0086E00E94CE120895C9
:101C9600CF93DF93EB01488159814F3F2FEF5207D6
:101CA60021F4FC01A781B0850DC0DC01139601C0AB
:101CB600DF011296ED91FC91139720813181421735
:101CC6005307B0F71296ED91FC911397FB83EA83C5
:101CD600D583C483BD83AC831396DC93CE931297CE
:101CE60099878887FC0120812F5F2083DF91CF9120
:021CF60008954F
:101CF8000E940413A091E306B091E406CD91CDBFF4
:101D0800DD91DEBFFF91EF91DF91CF91BF91AF9150
:101D18009F918F917F916F915F914F913F912F91FB
:101D28001F910F91FF90EF90DF90CF90BF90AF90F1
:101D38009F908F907F906F905F904F903F902F90E3
:0E1D48001F900F900FBE0F90089581E0089538
:101D5600CF92DF92EF920F931F930F2EF9EDCF2EB6
:101D6600F6E0DF2EF02DE12C00E010E024E630E076
:101D760046E151E060E08DE793E10E94A7078130DC
:101D860081F4F8948FEF9FEF9093DC068093DB0647
:101D960081E08093F4061092DE061092DD060E9422
:0E1DA6007C0E1F910F91EF90DF90CF9008956B
:101DB4000E94711088F09F5798F0B92F9927B75156
:101DC400B0F0E1F0660F771F881F991F1AF0BA95DB
:101DD400C9F714C0B13091F00E942D13B1E00895F9
:101DE4000C942D13672F782F8827B85F39F0B93FEB
:101DF400CCF3869577956795B395D9F73EF490958E
:0E1E04008095709561957F4F8F4F9F4F089589
:101E120091B39B7F91BBF894813069F028F08230B6
:101E2200C1F0833079F01BC085B78D7F85BF85B740
:101E32008E7F85BF14C085B78D7F85BF85B78160D2
:101E420085BF0DC085B7826085BF85B78E7F85BF90
:101E520006C085B7826085BF85B7816085BF8BB7B5
:081E620080648BBF78940895A1
:101E6A00DF92EF92FF920F931F93CF93DF93E82EA7
:101E7A00F62ED42E662321F0869FC001112402C0BB
:101E8A0080E090E04F960E94E20DEC01009749F045
:101E9A008C012D2DAC01415E5F4F6F2D8E2D0E945E
:101EAA001812CE01DF91CF911F910F91FF90EF9001
:041EBA00DF90089518
:101EBE00882319F08130A9F0089541E065E083E0B0
:101ECE000E94850541E061E082E00E94850541E0C7
:101EDE0062E082E00E94850589E88FBD8BE08EBDB1
:101EEE00089541E062E083E00E94850541E062E0F2
:101EFE0082E00E94850541E062E082E00E94850555
:021F0E00089534
:101F1000882319F0813099F008951BBC1ABC40E069
:101F200065E083E00E94F60540E061E082E00E9407
:101F3000F60540E062E082E00E94F605089540E088
:101F400062E083E00E94F60540E062E082E00E94E9
:0E1F5000F60540E062E082E00E94F60508958A
:101F5E00CF93DF93FC01A085B185C281D3818481AB
:101F6E0095819D838C83C481D581828193819B834E
:101F7E008A8311968D919C911297E817F90731F487
:101F8E008481958112969C938E931197118610865B
:0E1F9E008C9181508C938C91DF91CF9108959E
:101FAC00CF93DF931CC00FB6F8940F92E091B40658
:101FBC00F091B506C681D781CE0102960E94AF0F73
:101FCC008091F60681508093F6068091F706815039
:101FDC008093F7060F900FBECE010E94A81280913D
:0C1FEC00F7068111E0CFDF91CF9108953E
:101FF8008233910570F06E3638F4FA0110828CE263
:1020080091E00E948C1208958EE591E00E948C1256
:1020180008959C01295231092A30310548F4FA0102
:102028002081213029F48FEF90E00E948C120895CE
:0A203800FA0110820E948C12089534
:102042001F920F920FB60F9211242F933F934F932B
:102052005F936F937F938F939F93AF93BF93EF930E
:10206200FF930E948903FF91EF91BF91AF919F91DE
:102072008F917F916F915F914F913F912F910F902F
:082082000FBE0F901F9018958E
:10208A00990F0008550FAA0BE0E8FEEF161617067F
:10209A00E807F907C0F012161306E407F50798F0E7
:1020AA00621B730B840B950B39F40A2661F0232B00
:1020BA00242B252B21F408950A2609F4A140A6957C
:0820CA008FEF811D811D0895B7
:1020D20057FD9058440F551F59F05F3F71F04795D7
:1020E200880F97FB991F61F09F3F79F087950895BC
:1020F200121613061406551FF2CF4695F1DF08C0DB
:10210200161617061806991FF1CF869571056105F7
:042112000894089590
:10211600A1E21A2EAA1BBB1BFD010DC0AA1FBB1FE5
:10212600EE1FFF1FA217B307E407F50720F0A21B57
:10213600B30BE40BF50B661F771F881F991F1A94C4
:1021460069F760957095809590959B01AC01BD01EE
:04215600CF01089518
:10215A00CF93DF939C01FB01DC011196CD91DC91B9
:10216A001297D383C2838C819D81958384838C81CA
:10217A009D81DC0113967C936E9312977D836C8309
:10218A0031872087F90180818F5F8083DF91CF912A
:02219A000895A6
:10219C00A0E89C014A2F265F3F4F4F4FF901542F67
:1021AC000E941E13665A764071F44496A11DFC01E0
:1021BC005A2F0E941E1386E0683B780731F0672B7C
:1021CC0031F080E0089580E0089580E0089581E08A
:0221DC00089564
:1021DE0064E070E080916200909163000E941304AD
:1021EE00813059F46091E7068091D3069091D40620
:1021FE004DEE56E00E94FC0FEBCF6091E70680910A
:10220E00D3069091D4064DEE56E00E94FC0FE0CF1F
:10221E00CF93DF9300D000D0CDB7DEB7198290E414
:10222E009A8394E19B8394E59C83E1E0F0E0EC0FCC
:10223E00FD1FE80FF11D8081860F80580E94CE127F
:0E224E000F900F900F900F90DF91CF91089599
:10225C00E091E106F091E2068081811107C08FEFD9
:10226C009FEF9093DC068093DB060895E091E106E6
:10227C00F091E2060580F681E02D0680F781E02DD5
:0E228C00828193819093DC068093DB06089597
:10229A000FB6F8940F929B01482F265E3F4F4F4F7F
:1022AA00F901249147FD2081A82FCB014B96A11D4E
:1022BA00FC018491A7FD8081281302C081E001C03E
:0822CA0080E00F900FBE0895A3
:1022D200CF92DF92EF926A01E62EDC01280F391FBE
:1022E200A217B30751F0F6014491E7FC40814D93E8
:1022F2004FEFC41AD40AE40AF3CFEF90DF90CF90E5
:0223020008953C
:1023040080E00E94030DBC0180E090E00E944E0C2E
:1023140020E030E04AEF53E40E94941320E030E0E0
:1023240040E85AE30E9494130E94DA0ECB01089508
:10233400052E97FB1EF400940E94161357FD07D038
:102344000E948B1007FC03D04EF40C941613509586
:0E2354004095309521953F4F4F4F5F4F0895B4
:102362000F931F93CF93DF938C01C0E0D0E003C0A3
:102372000E94C2122196F801EC0FFD1F808181118B
:0C238200F7CFDF91CF911F910F910895CC
:10238E00CF93DF93EC01892B49F00E94661360E036
:10239E00CE010E94C4080E94D30601C080E08111C4
:0C23AE0002C00E946B08DF91CF910895DF
:1023BA0097FB072E16F4009407D077FD09D00E94E8
:1023CA00F11107FC05D03EF4909581959F4F089531
:0823DA00709561957F4F089595
:1023E200AA1BBB1B51E107C0AA1FBB1FA617B70739
:1023F20010F0A61BB70B881F991F5A95A9F7809555
:082402009095BC01CD01089585
:10240A000FB6F8940F92A82FCB014A96A11DFC0192
:10241A008491A7FD8081811102C081E001C080E022
:06242A000F900FBE0895A3
:102430000F931F93F801611103C01183008302C041
:1024400051834083838F648F61E0CF010E944A0BE8
:062450001F910F91089599
:10245600CF93DF93EB016091E3067091E406645F2E
:102466007F4F0E944B0E61E0CE010E94C408DF91AF
:04247600CF91089565
:10247A00092E0394000C11F4882352F0BB0F40F488
:10248A00BF2B11F460FF04C06F5F7F4F8F4F9F4FC8
:02249A000895A3
:10249C00262FE199FECF9FBB8EBBE09A01970DB220
:1024AC00021631F02DBB0FB6F894E29AE19A0FBEEA
:0224BC00089581
:1024BE008091D3069091D4064EEE56E067EE76E00C
:0E24CE000E948D0B89E290E00E94C711F1CFB1
:1024DC00882319F0813021F008957BBD6ABD0895E1
:0E24EC00769567957695679579BD68BD0895DC
:1024FA00A29FB001B39FC001A39F700D811D11243B
:0E250A00911DB29F700D811D1124911D089529
:10251800CF93DF93D82F892F0E947813C82F8D2F40
:0C2528000E9478138C2BDF91CF91089556
:10253400FC010396928381832FEF3FEF348323833F
:0C2544009683858390878783108208951A
:10255000CF93DF93EC018F89988D0E949F13CE015A
:0A2560000E949F13DF91CF910895B0
:10256A00262FE199FECF9FBB8EBB2DBB0FB6F894E9
:0A257A00E29AE19A0FBE019608955F
:10258400CF93C82F41E061E080E00E94F6058C2FD4
:082594000E940F08CF91089589
:10259C00CF93C82F40E061E080E00E94F6058C2FBD
:0825AC000E940F08CF91089571
:1025B40060E085EE96E00E944E1260E085EE96E0C3
:0625C4000E944E12089572
:1025CA002091F106FC0120832091DD063091DE0680
:0625DA0032832183089505
:1025E000EC010E94A2130E94A113CE010E94A3132A
:0625F000CE010E949D13C4
:1025F6000E94AC0D0E94DA010E94AB0E80E090E0D2
:02260600089535
:102608001BBC89EF8ABD8BE08EBD89B7806189BF0D
:02261800089523
:10261A00CB01E199FECF9FBB8EBBE09A99278DB380
:02262A00089511
:10262C0090958095709561957F4F8F4F9F4F089532
:10263C0057FD03C06591759108956191719108954D
:0E264C0087B1806487B986B1876A86B9089520
:0E265A00E894BB2766277727CB0197F90895F0
:0E26680000240A94161617061806090608958F
:0E26760000240A941216130614060506089591
:0C26840065EE76E080E80E940D130895DA
:0C26900041E060E081E00E9485050895B3
:0C269C0041E060E081E00E94F605089536
:0C26A80040E060E081E00E94F60508952B
:0C26B40041E060E080E00E948505089590
:0C26C000F8941092F4060E94A0130895F4
:0C26CC008091EF068F5F8093EF06089569
:0C26D80097F99F6780E870E060E00895CB
:0C26E400EE0FFF1F0590F491E02D09940B
:0A26F0005D9BFECF8CB981E00895D8
:0A26FA000E94D60F0E946B08FBCF70
:0A2704000E94451008F481E00895DA
:0A270E000E94451008F48FEF0895B3
:08271800FC01118610860895F2
:0827200081E08093F2060895A8
:082728000E943D070C943D12D4
:062730009FEF80EC08950C
:042736000C940000FF
:04273A000E94660093
:02273E000895FC
:022740000895FA
:022742000895F8
:022744000895F6
:022746000895F4
:01274800642C
:00000001FF
