:100000000C943E000C94930A0C94EA110C94EA119F
:100010000C94EA110C94EA110C94EA110C94AA0EB7
:100020000C94EA110C94EA110C94EA110C94EA1164
:100030000C94EA110C94EA110C94EA110C94EA1154
:100040000C94EA110C94EA110C94EA110C94EA1144
:100050000C94EA11960B9A0B9F0BA40BA90BAE0BF9
:10006000B30BB80B006006E38006E306E400010969
:1000700006E406E50023E606E506F68011241FBE29
:10008000CFE5D8E0DEBFCDBFE4E6F0E040E017C04A
:10009000B591A59135912591059107FD0CC09591DC
:1000A0008591EF01F92FE82F05900D92A217B30764
:1000B000D9F7FE0104C01D92A217B307E1F7EC3790
:1000C000F40731F70E944A110C943F11F894FFCFC6
:1000D000544D505F5441534B00554152545F54416D
:1000E000534B00454553544154455F5441534B00D5
:1000F00046414E315F5441534B00454D45525F548C
:0401000041534B001C
:0501040049444C4500D8
:0101090040B5
:10010A008091EA06882321F0813009F44AC0F8CFA9
:10011A0060E170E080916800909169000E947A0322
:10012A00813061F580916600909167000E94DF0836
:10013A0080916000909161000E94DF0880916400C4
:10014A00909165000E94DF0881E08093EC0684E6C6
:10015A008093E4068091D1069091D20607EE16E0CC
:10016A002CEE36E044E66091E8060E943001609188
:10017A00EC0683EE96E00E941C11C2CF80916600C5
:10018A00909167000E94110B80916000909161002C
:10019A000E94110B80916400909165000E94110BDE
:1001AA00AFCF65E070E080916800909169000E948D
:1001BA007A03813079F51092E9061092EA061092D4
:1001CA00EC068091D1069091D20607EE16E02CEE4D
:1001DA0036E04091E4066091E8060E9430016091A1
:1001EA00EC0683EE96E00E941C110E94A3118091F6
:1001FA006600909167000E94110B809160009091B7
:10020A0061000E94110B80916400909165000E9428
:10021A00110B1CC08091E9068F5F8093E9068E3628
:10022A00A8F0F8940E949D110E94AF1182E0809379
:10023A00EC0662E083EE96E00E941C1188E081BD24
:10024A008091E9068F5F8093E906FACF8CE290E00D
:06025A000E941B1055CFAD
:100260008F929F92AF92BF92EF92FF920F931F9344
:10027000CF93DF937C01C62FD42FF9019081913069
:1002800009F462C020F0923009F46EC07FC0B7015B
:1002900080E090E00E94D40A4B015C0120E030E055
:1002A00040EA51E40E94D111181624F08C2F0E94CC
:1002B000110E6CC020E030E040EA51E4C501B40109
:1002C0000E94D61118164CF520E030E040E252E4CE
:1002D000C501B4010E94D1111816FCF060E08C2F0A
:1002E0000E94C609DE9DC001DF9D900D11249C0176
:1002F000220F331F220F331F280F391F36952795E2
:1003000036952795ABE7B4E10E94E410BC017695E1
:1003100067958C2F0E94D51039C0F9E2EF1AF108C9
:100320002AE0E216F10490F560E08C2F0E94C609E5
:10033000EAEFDE9FC001112464E670E00E943110F4
:100340008C2F0E94D51022C060E08C2F0E94C6091D
:10035000FAEFDF9FC001112464E670E00E943110C3
:100360008C2F0E94D51012C060E08C2F0E94C6090D
:100370002AEFD29FC001112464E670E00E94311080
:100380008C2F0E94D51081E0F8018083DF91CF91FE
:100390001F910F91FF90EF90BF90AF909F908F9023
:0203A0000895BE
:1003A2000F9331B3326031BB31B33E7F31BB3AB1CF
:1003B20038613AB9662319F0613029F007C030B5C7
:1003C2003F7730BD03C030B5306830BD2230F9F020
:1003D20028F4222341F0213081F036C0233009F184
:1003E200243049F131C02AB12B7F2AB920B52B7FA5
:1003F20020BD20B52D7F20BD27C02AB12B7F2AB971
:1004020020B52B7F20BD20B5226020BD1DC02AB1A2
:100412002B7F2AB920B5246020BD20B52D7F20BDB9
:1004220013C02AB12B7F2AB920B5246020BD20B584
:10043200226020BD09C02AB124602AB920B52460F7
:1004420020BD20B5226020BD413059F018F0423065
:1004520079F014C020B52F7D20BD20B52F7E20BDA0
:100462000DC020B5206220BD20B52F7E20BD06C064
:1004720020B5206220BD20B5206120BD002319F0E7
:10048200013029F007C020B5277F20BD03C020B569
:10049200286020BD9C0122953295307F3227207F33
:1004A200322740E050E060E071E782E090E00E9495
:1004B20004102150310929B930BD81E00F9108950E
:1004C2006F927F928F92EF92FF920F931F93CF932F
:1004D200DF9300D000D00F92CDB7DEB77C013A0196
:1004E200862E3D832C8310E00FB6F8940F92F7010D
:1004F200928D838D981710F00230A9F4202F682D69
:10050200A301C7010E947D09F7018189882339F07F
:10051200F1E1EF0EF11CB70180E80E9431090F9062
:100522000FBE81E04DC08C819D81892B21F40F90FB
:100532000FBE80E045C0111105C0CE0101960E9498
:10054200341111E00F900FBE0E94B5110FB6F8944E
:100552000F92F701858D8F3F09F4158EF701868D75
:100562008F3F09F4168E0F900FBEBE016C5F7F4F56
:10057200CE0101960E944D0B81111CC0B70180E88B
:100582000E94B70F882381F06C817D81C701089694
:100592000E949210C7010E94FC0B0E944806811122
:1005A200A3CF0E948407A0CFC7010E94FC0B0E9428
:1005B20048069ACFC7010E94FC0B0E94480680E0C1
:1005C2000F900F900F900F900F90DF91CF911F918E
:0E05D2000F91FF90EF908F907F906F900895A3
:1005E000EF92FF920F931F93CF93DF938091ED06CD
:1005F000811173C0E090DB06F090DC068FEFE81A03
:10060000F80AF092DC06E092DB06E114F104B9F49A
:100610008091DF069091E0062091DD063091DE06A4
:100620003093E0062093DF069093DE068093DD068C
:100630008091EF068F5F8093EF060E94980F809164
:10064000D9069091DA06E816F90608F44BC0E09155
:10065000DF06F091E0068081811107C08FEF9FEFE8
:100660009093DA068093D9063DC0E091DF06F091C1
:10067000E0060580F681E02DC681D7818A819B81C5
:10068000E816F90628F49093DA068093D9062AC072
:100690008E010E5F1F4FC8010E94380E8C899D8904
:1006A000892B21F0CE010C960E94380E8E899091F4
:1006B000F306981710F48093F30690E09C01220F44
:1006C000331F220F331F220F331F820F931FB801D6
:1006D000865B994F0E94360FBACF8091F1068F5FEB
:1006E0008093F10680E0DF91CF911F910F91FF90F1
:0406F000EF900895EA
:1006F400FF920F931F93CF93DF9300D000D00F92FC
:10070400CDB7DEB78C017D836C83F12C0FB6F894E2
:100714000F92F801828D882379F08150828F808531
:10072400882331F0085F1F4FB80180E80E94310927
:100734000F900FBE81E055C08C819D81892B21F4DF
:100744000F900FBE80E04DC0F11006C0CE0101969F
:100754000E943411FF24F3940F900FBE0E94B51130
:100764000FB6F8940F92F801858D8F3F09F4158E1A
:10077400F801868D8F3F09F4168E0F900FBEBE01CF
:100784006C5F7F4FCE0101960E944D0B81111CC0FE
:10079400B80180E80E946C10882381F06C817D810F
:1007A400C80141960E949210C8010E94FC0B0E944D
:1007B40048068111ABCF0E948407A8CFC8010E94CC
:1007C400FC0B0E944806A2CFC8010E94FC0B0E94A9
:1007D4004806B80180E80E946C10882309F496CF7B
:1007E40080E00F900F900F900F900F90DF91CF91BA
:0807F4001F910F91FF90089581
:1007FC00CF92DF92EF920F931F9343E060E081E082
:10080C000E94BE0D909363008093620060E070E0E4
:10081C000E947A0343E060E081E00E94BE0D909359
:10082C0069008093680060E070E00E947A030F2EEC
:10083C00FCE6CF2EF0E0DF2EF02DE12C00E010E0F6
:10084C0024E630E040ED50E060E083EC9BE00E9459
:10085C001C070F2EF6E6CF2EF0E0DF2EF02D0F2E1C
:10086C00F3E0EF2EF02D24E630E049ED50E060E0AF
:10087C0088E79FE00E941C070F2EF0E6CF2EF0E0D9
:10088C00DF2EF02DE12C24E630E043EE50E060E06A
:10089C0086EC90E10E941C070F2EF4E6CF2EF0E0C0
:1008AC00DF2EF02D6894EE24E1F824E630E040EFE2
:1008BC0050E060E089E590E10E941C070F2EFAE6FB
:1008CC00CF2EF0E0DF2EF02D0F2EF5E0EF2EF02DD9
:1008DC0024E630E04AEF50E060E085E890E00E94CA
:0E08EC001C071F910F91EF90DF90CF900895A1
:1008FA006F927F928F929F92AF92BF92CF92DF9226
:10090A00EF92FF920F931F93CF93DF93CDB7DEB78A
:10091A003C01A62FCA01F4014789508D01501109E3
:10092A00040F151F0097A105D1F41FC0272F30E02F
:10093A00AC016A2F420F531F611D37FD6A95FA01F8
:10094A00B49167FDB081F401E20FF31FB18FFA0190
:10095A00249167FD2081222329F07F5F01C070E086
:10096A00783020F3F40110A202C0F401118EF9E0EC
:10097A00FC1520F40F2EF9E0CF2EF02DF401C68AD3
:10098A00C40102960E94DB11C4010C960E94DB117D
:10099A00F401918680868AE090E08C199109958706
:1009AA008487938A828A11A212A213A214A215A280
:1009BA00A701B301C8010E94DC05F4019183808379
:1009CA00A114B10419F0F50191828082DF91CF91CF
:1009DA001F910F91FF90EF90DF90CF90BF90AF9053
:0A09EA009F908F907F906F9008950A
:1009F400442319F04130C9F10895813091F028F071
:100A04008230D9F0833029F108952AB381E090E04F
:100A140002C0880F991F6A95E2F7809582238ABBEA
:100A2400089527B381E090E002C0880F991F6A956A
:100A3400E2F78095822387BB089524B381E090E098
:100A440002C0880F991F6A95E2F78095822384BBC0
:100A5400089521B381E090E002C0880F991F6A9540
:100A6400E2F78095822381BB0895813089F028F0D4
:100A74008230C9F0833011F108952AB381E090E007
:100A840002C0880F991F6A95E2F7822B8ABB0895EA
:100A940027B381E090E002C0880F991F6A95E2F7BE
:100AA400822B87BB089524B381E090E002C0880FB5
:100AB400991F6A95E2F7822B84BB089521B381E0E4
:100AC40090E002C0880F991F6A95E2F7822B81BBE0
:020AD400089583
:100AD600442319F04130C9F10895813091F028F08E
:100AE6008230D9F0833029F108952BB381E090E06C
:100AF60002C0880F991F6A95E2F7809582238BBB07
:100B0600089528B381E090E002C0880F991F6A9586
:100B1600E2F78095822388BB089525B381E090E0B3
:100B260002C0880F991F6A95E2F78095822385BBDC
:100B3600089522B381E090E002C0880F991F6A955C
:100B4600E2F78095822382BB0895813089F028F0F0
:100B56008230C9F0833011F108952BB381E090E023
:100B660002C0880F991F6A95E2F7822B8BBB089506
:100B760028B381E090E002C0880F991F6A95E2F7DA
:100B8600822B88BB089525B381E090E002C0880FD0
:100B9600991F6A95E2F7822B85BB089522B381E0FF
:100BA60090E002C0880F991F6A95E2F7822B82BBFC
:020BB6000895A0
:100BB80031E1FC013083319722E220833197A3E3AE
:100BC800A083319760833197708331971082319772
:100BD80060E8608331971082319762E060833197D3
:100BE80063E06083319764E06083319765E06083F8
:100BF800319766E06083319767E06083319768E0FA
:100C08006083319769E06083319760E16083319751
:100C18003083319732E13083319733E13083319734
:100C280034E13083319735E13083319736E13083D1
:100C3800319737E13083319738E13083319739E1A3
:100C48003083319730E23083319731E23083319706
:100C58002083319723E22083319740833197508353
:100C6800319726E22083319727E22083319728E2C3
:100C78002083319729E22083319720E3208331971D
:080C880021E320838697089503
:100C90000F931F93CF93DF930FB6F8940F92809129
:100CA000ED0681508093ED068091ED06811152C0D2
:100CB0008091F406811133C04DC0E091BB06F091E4
:100CC000BC06C681D781CE010C960E94380E8E01DB
:100CD0000E5F1F4FC8010E94380E8E899091F30657
:100CE000981710F48093F30690E09C01220F331FB5
:100CF000220F331F220F331F820F931FB801865B11
:100D0000994F0E94360F9E89E091E106F091E2062C
:100D10008689981730F081E08093F00602C0C0E029
:100D2000D0E08091B6068111C8CFCD2B11F00E9482
:100D3000980FC091F106CC2359F00E94F00288234D
:100D400019F081E08093F006C150B9F71092F106D6
:100D50008091F0060F900FBE80E0DF91CF911F9140
:040D60000F91089552
:100D64000FC00E94831138F00E948A1120F095234D
:100D740011F00C94BB110C94E71111240C947D1107
:100D84000E94F20E70F3959FC1F3950F50E0551F2A
:100D9400629FF001729FBB27F00DB11D639FAA27CC
:100DA400F00DB11DAA1F649F6627B00DA11D661F1B
:100DB400829F2227B00DA11D621F739FB00DA11D3C
:100DC400621F839FA00D611D221F749F3327A00DF6
:100DD400611D231F849F600D211D822F762F6A2F92
:100DE40011249F5750409AF0F1F088234AF0EE0FF7
:100DF400FF1FBB1F661F771F881F91505040A9F724
:100E04009E3F510580F00C94BB110C947D115F3F03
:100E1400E4F3983ED4F3869577956795B795F7955F
:100E2400E7959F5FC1F7FE2B880F911D96958795D7
:040E340097F908958D
:100E38004F925F926F927F928F929F92AF92BF92E2
:100E4800CF92DF92EF92FF920F931F93CF93DF938E
:100E580000D000D00F92CDB7DEB73C0149835A834A
:100E68006B8349012801C9010E946B0C8C01892BF5
:100E780081F086E290E00E946B0C9D838C83009742
:100E880021F0FC01108F078B06C0C8010E94EE11EB
:100E980002C01D821C828C819D81892BD1F0840126
:100EA80020E030E01F921F921F928C809D80560197
:100EB800CE2C720149815A816B81C3010E947D0445
:100EC8008C819D810E9435080F900F900F9081E0D2
:100ED80001C08FEF0F900F900F900F900F90DF9140
:100EE800CF911F910F91FF90EF90DF90CF90BF901F
:100EF800AF909F908F907F906F905F904F900895E4
:100F08000F920FB6F8940F921F9211242F923F92CE
:100F18004F925F926F927F928F929F92AF92BF9201
:100F2800CF92DF92EF92FF920F931F932F933F93ED
:100F38004F935F936F937F938F939F93AF93BF93D9
:100F4800CF93DF93EF93FF93A091E106B091E20670
:100F58000DB60D920EB60D920E948B08A091E10677
:100F6800B091E206CD91CDBFDD91DEBFFF91EF914B
:100F7800DF91CF91BF91AF919F918F917F916F91A9
:100F88005F914F913F912F911F910F91FF90EF909B
:100F9800DF90CF90BF90AF909F908F907F906F9091
:100FA8005F904F903F902F901F900F900FBE0F9023
:020FB80008959A
:100FBA00FF920F931F93CF93DF93EC01F62E0091CC
:100FCA00DB061091DC068091E1069091E20602961A
:100FDA000E94380ECF3F8FEFD80769F4FF2059F0EF
:100FEA006091E1067091E2066E5F7F4F84EA96E0B7
:100FFA000E94360F2FC0C00FD11FE091E106F09179
:10100A00E206D383C283C017D10768F46091E10670
:10101A007091E2068091DD069091DE066E5F7F4F49
:10102A000E94D40C17C06091E1067091E20680918B
:10103A00DF069091E0066E5F7F4F0E94D40C80918C
:10104A00D9069091DA06C817D90720F4D093DA06A0
:10105A00C093D906DF91CF911F910F91FF90089508
:10106A00CF93DF93EC010FB6F8940F928091F406B8
:10107A008F5F8093F4068091E1069091E206892BB6
:10108A0059F4D093E206C093E1068091F4068130C8
:10109A0099F40E94340C10C08091F20681110CC0A0
:1010AA00E091E106F091E20696898E89891720F08F
:1010BA00D093E206C093E1068091EE068F5F80939B
:1010CA00EE062E898091F306821710F42093F30618
:1010DA0030E0BE016E5F7F4FC901880F991F880FEC
:1010EA00991F880F991F820F931F865B994F0E9441
:1010FA00360F0F900FBE8091F206882321F080915F
:0C110A00E1069091E206DF91CF9108957C
:101116008091ED06882321F081E08093F006089502
:101126001092F0062091F30601C02150822F90E024
:10113600FC01EE0FFF1FEE0FFF1FEE0FFF1FE80F64
:10114600F91FE65BF94F3081332379F3AC01440F85
:10115600551F440F551F440F551F480F591FDF01D8
:101166000180F281E02D0280F381E02D1296FC933E
:10117600EE931197435B594FE417F50729F4428123
:101186005381FD0152834183FC01EE0FFF1FEE0FD9
:10119600FF1FEE0FFF1F8E0F9F1FFC01E65BF94F2F
:1011A6000180F281E02D868197819093E2068093FB
:0811B600E1062093F306089501
:1011BE000F931F93CF93DF93EC010FB6F8940F921A
:1011CE00892B21F4C091E106D091E2068E010E5FCB
:1011DE001F4FC8010E94380E8C899D89892B21F0E2
:1011EE00CE010C960E94380EB80184EA96E00E9459
:1011FE00360F8DA1813009F41DA20F900FBE809184
:10120E00F206882339F00FB6F8940F920E94980FC9
:10121E000F900FBE8091E1069091E206C817D90794
:10122E00A1F48091F206882319F00E9484070DC064
:10123E009091A4068091F406981305C01092E206D0
:10124E001092E10602C00E948B08DF91CF911F9190
:04125E000F9108954F
:101262000F931F93CF93DF93A82FCB010596A11D58
:10127200FC015A2F0E946D11FB01C681D7818E019C
:10128200045F1F4FC8010E94380E8091ED06811144
:101292001CC00A501109C8010E94380E8E89909113
:1012A200F306981710F48093F30690E09C01220F46
:1012B200331F220F331F220F331F820F931FB801D8
:1012C200865B994F0E94360F05C0B80186EB96E007
:1012D2000E94360F9E89E091E106F091E20686892E
:1012E200891720F481E08093F00601C080E0DF914D
:0812F200CF911F910F910895A7
:1012FA000F931F93CF93DF93EC01022F1A8D2C8D3E
:10130A002223B9F1011116C030E08A819B810E9423
:10131A00D30F2C8D8A819B81820F911D9B838A8397
:10132A002C813D818217930720F1888199819B83C3
:10133A008A831FC030E08E819F810E94D30F8C8DDB
:10134A0090E09195819591092E813F81280F391F4F
:10135A003F832E83488159812417350730F42C8125
:10136A003D81820F931F9F838E83023011F41111E6
:10137A0011501F5F1A8F80E0DF91CF911F910F915B
:02138A000895C4
:10138C00CF93C62F882319F0813009F13FC041E07B
:10139C0065E083E00E946B05CC2319F0C13061F04D
:1013AC0035C041E061E082E00E946B0540E062E004
:1013BC0082E00E946B052AC040E061E082E00E945E
:1013CC006B0541E062E082E00E946B051FC041E0CA
:1013DC0062E083E00E946B05CC2319F0C13061F010
:1013EC0015C041E062E082E00E946B0540E062E0E3
:1013FC0082E00E946B050AC040E062E082E00E943D
:10140C006B0541E062E082E00E946B05CF9108958C
:10141C00CF93DF93EC010FB6F8940F92E881F9812A
:10142C008B8D2C8D90E030E0829FA001839F500D1E
:10143C00929F500D11244E0F5F1F5D834C831A8EAB
:10144C00FB83EA830197289FA001299F500D389FA9
:10145C00500D1124CF01840F951F9F838E838FEF26
:10146C008D8F8E8F611109C08885882371F0289625
:10147C00BE0180E80E94310908C0CE0108960E9486
:10148C000111CE0141960E9401110F900FBE81E017
:06149C00DF91CF910895DD
:1014A200CF92DF92EF92FF920F931F93CF93DF932E
:1014B2008B01EA01BC0180E090E00E94D40A6B013A
:1014C2007C0120E030E048E452E40E94D1118823FC
:1014D20064F48881882349F0F8011082188260E060
:1014E20083EE96E00E941C1114C020E030E048E434
:1014F20052E4C701B6010E94D611882354F08881B4
:10150200811107C081E0888361E083EE96E00E944A
:101512001C11DF91CF911F910F91FF90EF90DF90FF
:04152200CF900895C9
:101526001F920F920FB60F9211240F932F933F9392
:101536004F935F936F937F938F939F93AF93BF93D5
:10154600EF93FF938091E6068F5F8093E60681E036
:101556008093EB0600E020E030E040E050E060E001
:1015660080916200909163000E9461022FE788E3F8
:1015760091E0215080409040E1F700C00000FF91CB
:10158600EF91BF91AF919F918F917F916F915F91F5
:101596004F913F912F910F910F900FBE0F901F907B
:0215A600189596
:1015A800E89409C097FB3EF49095809570956195F5
:1015B8007F4F8F4F9F4F9923A9F0F92F96E9BB27AB
:1015C8009395F695879577956795B795F111F8CF27
:1015D800FAF4BB0F11F460FF1BC06F5F7F4F8F4F92
:1015E8009F4F16C0882311F096E911C0772321F088
:1015F8009EE8872F762F05C0662371F096E8862F20
:1016080070E060E02AF09A95660F771F881FDAF776
:0A161800880F9695879597F90895BD
:101622000F931F93CF93DF932091E1063091E2064F
:101632008217930761F1009751F1EC010FB6F8940C
:101642000F920E94570F882301F18E010E5F1F4FE8
:10165200C8010E94380E8E899091F306981710F4F3
:101662008093F30690E09C01220F331F220F331F59
:10167200220F331F820F931FB801865B994F0E947E
:10168200360F8091E1069091E2060F900FBEDF9136
:08169200CF911F910F91089503
:10169A001F93CF93DF930FB6F8940F92E091DB0676
:1016AA00F091DC06DC0111964D915C911297DF01F5
:1016BA00A41BB50BEB01288139812F3FDFEF3D07D2
:1016CA00D1F0EC011881C091EF061C1719F0E4174C
:1016DA00F50798F4A217B30748F4FB012A1B3B0B42
:1016EA00318320830E94341180E008C0FB011182FB
:1016FA00108281E003C080E001C081E00F900FBE3C
:08170A00DF91CF911F910895BA
:10171200E82F84B195B18E2F90E08830910550F575
:10172200FC01E65DFF4F0C94C11187B1887F87B938
:1017320021C087B1887F816087B91CC087B1887F4B
:10174200826087B917C087B1887F836087B912C06A
:1017520087B1887F846087B90DC087B1887F856033
:1017620087B908C087B1887F866087B903C087B10F
:10177200876087B986B1806486B93699FECF84B115
:0417820095B1089580
:101786000E94EC0F9093D2068093D1068091D106E9
:101796009091D206C297C0F08091EA0681110FC0DF
:1017A60081E08093EA0600E020E030E040E050E08F
:1017B60060E080916800909169000E94610284E077
:1017C60090E00E941B10DCCF8091EA06813061F424
:1017D60000E020E030E040E050E060E0809168000A
:1017E600909169000E94610282E190E00E941B10C4
:0217F600C7CF5B
:1017F8001F93CF93DF93EC010FB6F8940F921E8DD1
:101808000DC08989882361F0BE016F5E7F4F80E833
:101818000E94310981110E94DF11115011168CF3B9
:101828008FEF8E8F0F900FBE0FB6F8940F921D8D0D
:101838000DC08885882361F0BE01685F7F4F80E80E
:101848000E94310981110E94DF11115011168CF389
:101858008FEF8D8F0F900FBEDF91CF911F9108955D
:10186800CF93C0E010C08C2F90E09C01220F331F53
:10187800220F331F220F331F820F931F865B994F4E
:101888000E940111CF5FCA3070F388EC96E00E9485
:1018980001118FEB96E00E94011186EB96E00E9401
:1018A80001118DEA96E00E94011184EA96E00E94F7
:1018B800011188EC96E09093E0068093DF068FEBA9
:0E18C80096E09093DE068093DD06CF910895A2
:1018D600CF93DF93EC010E94B5118091D3069091CE
:1018E600D406892B31F48FE690E09093D40680934A
:1018F600D3062091D5063091D606C9018C0F9D1FBF
:101906008B3D45E0940770F42817390770F4C091B1
:10191600D306D091D406C20FD31F9093D6068093D8
:10192600D50605C0C0E0D0E002C0C0E0D0E00E940D
:0A1936004806CE01DF91CF9108951D
:101940000F938091E8060E94E80D0E9429110E94E1
:10195000A91160E081E00E9475110E9497110E9418
:10196000A3118BB340E060E00E94FA0400E023E0A2
:1019700040E061E080E690E00E94D101882391F090
:1019800082E00E94920D0E949111811105C060E0D9
:101990008091E8060E94C6098FE19EE40197F1F765
:0819A00000C000000F91089542
:1019A800CF93DF93EB01488159814F3F2FEF5207C7
:1019B80021F4FC01A781B0850DC0DC01139601C09C
:1019C800DF011296ED91FC91139720813181421726
:1019D8005307B0F71296ED91FC911397FB83EA83B6
:1019E800D583C483BD83AC831396DC93CE931297BF
:1019F80099878887FC0120812F5F2083DF91CF9111
:021A080008953F
:101A0A000E945311A091E106B091E206CD91CDBF9B
:101A1A00DD91DEBFFF91EF91DF91CF91BF91AF9141
:101A2A009F918F917F916F915F914F913F912F91EC
:101A3A001F910F91FF90EF90DF90CF90BF90AF90E2
:101A4A009F908F907F906F905F904F903F902F90D4
:0E1A5A001F900F900FBE0F90089581E0089529
:101A6800CF92DF92EF920F931F930F2EF7EDCF2EA9
:101A7800F6E0DF2EF02DE12C00E010E024E630E067
:101A880044E051E060E08CEC91E10E941C07813059
:101A980081F4F8948FEF9FEF9093DA068093D9063C
:101AA80081E08093F2061092DC061092DB060E9419
:0E1AB800050D1F910F91EF90DF90CF900895D4
:101AC6000E94FA0E88F09F5798F0B92F9927B751C0
:101AD600B0F0E1F0660F771F881F991F1AF0BA95CC
:101AE600C9F714C0B13091F00E947C11B1E008959D
:101AF6000C947C11672F782F8827B85F39F0B93F8F
:101B0600CCF3869577956795B395D9F73EF490957E
:0E1B16008095709561957F4F8F4F9F4F08957A
:101B240091B39B7F91BBF894813069F028F08230A7
:101B3400C1F0833079F01BC085B78D7F85BF85B731
:101B44008E7F85BF14C085B78D7F85BF85B78160C3
:101B540085BF0DC085B7826085BF85B78E7F85BF81
:101B640006C085B7826085BF85B7816085BF8BB7A6
:081B740080648BBF7894089592
:101B7C00DF92EF92FF920F931F93CF93DF93E82E98
:101B8C00F62ED42E662321F0869FC001112402C0AC
:101B9C0080E090E04F960E946B0CEC01009749F0AE
:101BAC008C012D2DAC01415E5F4F6F2D8E2D0E944F
:101BBC007F10CE01DF91CF911F910F91FF90EF908D
:041BCC00DF90089509
:101BD000882319F08130A9F0089541E065E083E0A1
:101BE0000E94FA0441E061E082E00E94FA0441E0D0
:101BF00062E082E00E94FA0489E88FBD8BE08EBD2E
:101C0000089541E062E083E00E94FA0441E062E06E
:101C100082E00E94FA0441E062E082E00E94FA045D
:021C2000089525
:101C2200882319F0813099F008951BBC1ABC40E05A
:101C320065E083E00E946B0540E061E082E00E9483
:101C42006B0540E062E082E00E946B05089540E08F
:101C520062E083E00E946B0540E062E082E00E9465
:0E1C62006B0540E062E082E00E946B05089591
:101C7000CF93DF93FC01A085B185C281D38184819C
:101C800095819D838C83C481D581828193819B833F
:101C90008A8311968D919C911297E817F90731F478
:101CA0008481958112969C938E931197118610864C
:0E1CB0008C9181508C938C91DF91CF9108958F
:101CBE00CF93DF931CC00FB6F8940F92E091B2064B
:101CCE00F091B306C681D781CE0102960E94380EDE
:101CDE008091F40681508093F4068091F506815030
:101CEE008093F5060F900FBECE010E940F118091CA
:0C1CFE00F5068111E0CFDF91CF91089531
:101D0A008233910570F06E3638F4FA0110828CE253
:101D1A0091E00E94F31008958EE591E00E94F3107D
:101D2A0008959C01295231092A30310548F4FA01F3
:101D3A002081213029F48FEF90E00E94F31008955A
:0A1D4A00FA0110820E94F3100895C0
:101D54001F920F920FB60F9211242F933F934F931C
:101D64005F936F937F938F939F93AF93BF93EF93FF
:101D7400FF930E94F002FF91EF91BF91AF919F9169
:101D84008F917F916F915F914F913F912F910F9020
:081D94000FBE0F901F9018957F
:101D9C00990F0008550FAA0BE0E8FEEF1616170670
:101DAC00E807F907C0F012161306E407F50798F0D8
:101DBC00621B730B840B950B39F40A2661F0232BF1
:101DCC00242B252B21F408950A2609F4A140A6956D
:081DDC008FEF811D811D0895A8
:101DE40057FD9058440F551F59F05F3F71F04795C8
:101DF400880F97FB991F61F09F3F79F087950895AD
:101E0400121613061406551FF2CF4695F1DF08C0CB
:101E1400161617061806991FF1CF869571056105E8
:041E24000894089581
:101E2800A1E21A2EAA1BBB1BFD010DC0AA1FBB1FD6
:101E3800EE1FFF1FA217B307E407F50720F0A21B48
:101E4800B30BE40BF50B661F771F881F991F1A94B5
:101E580069F760957095809590959B01AC01BD01DF
:041E6800CF01089509
:101E6C00CF93DF939C01FB01DC011196CD91DC91AA
:101E7C001297D383C2838C819D81958384838C81BB
:101E8C009D81DC0113967C936E9312977D836C83FA
:101E9C0031872087F90180818F5F8083DF91CF911B
:021EAC00089597
:101EAE00A0E89C014A2F265F3F4F4F4FF901542F58
:101EBE000E946D11645A764071F44496A11DFC0186
:101ECE005A2F0E946D1186E0663B780731F0672B22
:101EDE0031F080E0089580E0089580E0089581E07B
:021EEE00089555
:101EF00064E070E080916200909163000E947A0338
:101F0000813059F46091E5068091D1069091D20616
:101F10004BEE56E00E94850EEBCF6091E506809176
:101F2000D1069091D2064BEE56E00E94850EE0CF8E
:101F3000E091DF06F091E0068081811107C08FEF0C
:101F40009FEF9093DA068093D9060895E091DF061B
:101F5000F091E0060580F681E02D0680F781E02D06
:0E1F6000828193819093DA068093D9060895CA
:101F6E000FB6F8940F929B01482F265E3F4F4F4FAE
:101F7E00F901249147FD2081A82FCB014B96A11D7D
:101F8E00FC018491A7FD8081281302C081E001C06D
:081F9E0080E00F900FBE0895D2
:101FA600CF92DF92EF926A01E62EDC01280F391FED
:101FB600A217B30751F0F6014491E7FC40814D9317
:101FC6004FEFC41AD40AE40AF3CFEF90DF90CF9014
:021FD60008956C
:101FD80080E00E94890BBC0180E090E00E94D40A56
:101FE80020E030E04AEF53E40E94E31120E030E0C3
:101FF80040E85AE30E94E3110E94630DCB01089563
:10200800052E97FB1EF400940E94651157FD07D01A
:102018000E94140F07FC03D04EF40C9465115095E0
:0E2028004095309521953F4F4F4F5F4F0895E3
:10203600CF93DF93EC01892B49F00E94B51160E044
:10204600CE010E94DD070E94480601C080E0811192
:0C20560002C00E948407DF91CF91089522
:1020620097FB072E16F4009407D077FD09D00E9443
:10207200451007FC05D03EF4909581959F4F089539
:08208200709561957F4F0895F0
:10208A00AA1BBB1B51E107C0AA1FBB1FA617B70794
:10209A0010F0A61BB70B881F991F5A95A9F78095B0
:0820AA009095BC01CD010895E1
:1020B2008091D1069091D20607EE16E02CEE36E022
:1020C2004091E4066091E8060E9430018EE090E0C3
:0620D2000E941B10EDCF7F
:1020D8000FB6F8940F92A82FCB014A96A11DFC01C8
:1020E8008491A7FD8081811102C081E001C080E058
:0620F8000F900FBE0895D9
:1020FE000F931F93F801611103C01183008302C077
:10210E0051834083838F648F61E0CF010E940E0A5A
:06211E001F910F910895CE
:10212400CF93DF93EB016091E1067091E206645F67
:102134007F4F0E94D40C61E0CE010E94DD07DF9145
:04214400CF9108959A
:10214800092E0394000C11F4882352F0BB0F40F4BD
:10215800BF2B11F460FF04C06F5F7F4F8F4F9F4FFD
:022168000895D8
:10216A00262FE199FECF9FBB8EBBE09A01970DB255
:10217A00021631F02DBB0FB6F894E29AE19A0FBE1F
:02218A000895B6
:10218C008091D1069091D2064CEE56E065EE76E049
:0E219C000E94510A89E290E00E941B10F1CFD0
:1021AA00882319F0813021F008957BBD6ABD089516
:0E21BA00769567957695679579BD68BD089511
:1021C800A29FB001B39FC001A39F700D811D112470
:0E21D800911DB29F700D811D1124911D08955F
:1021E600CF93DF93D82F892F0E94C711C82F8D2F29
:0C21F6000E94C7118C2BDF91CF9108953F
:10220200FC010396928381832FEF3FEF3483238374
:0C2212009683858390878783108208954F
:10221E00CF93DF93EC018F89988D0E94EE11CE0142
:0A222E000E94EE11DF91CF91089598
:10223800262FE199FECF9FBB8EBB2DBB0FB6F8941E
:0A224800E29AE19A0FBE0196089594
:1022520060E083EE96E00E94B51060E083EE96E0C7
:062262000E94B510089572
:102268002091EF06FC0120832091DB063091DC06EB
:062278003283218308956A
:10227E00EC010E94F1110E94F011CE010E94F211A8
:06228E00CE010E94EC11DC
:102294000E94A00C0E94FE030E94340D80E090E096
:0222A40008959B
:1022A6001BBC89EF8ABD8BE08EBD89B7806189BF73
:0222B600089589
:1022B800CB01E199FECF9FBB8EBBE09A99278DB3E6
:0222C800089577
:1022CA0090958095709561957F4F8F4F9F4F089598
:1022DA0057FD03C0659175910895619171910895B3
:0E22EA0087B1806487B986B1876A86B9089586
:0E22F800E894BB2766277727CB0197F9089556
:0E23060000240A9416161706180609060895F4
:0E23140000240A9412161306140605060895F6
:0C23220063EE76E080E80E945C110895F4
:0C232E0041E060E081E00E94FA040895A4
:0C233A0041E060E081E00E946B05089526
:0C23460040E060E081E00E946B0508951B
:0C23520041E060E080E00E94FA04089581
:0C235E00F8941092F2060E94EF1108950E
:0C236A008091ED068F5F8093ED060895D2
:0C23760097F99F6780E870E060E0089530
:0C238200EE0FFF1F0590F491E02D099470
:0A238E005D9BFECF8CB981E008953D
:0A2398000E945F0E0E948407FBCF35
:0A23A2000E94CE0E08F481E00895B9
:0A23AC000E94CE0E08F48FEF089592
:0823B600FC0111861086089558
:0823BE0081E08093F006089510
:0823C6000E94B2060C94A41061
:0623CE009FEF80EC089572
:0423D4000C94000065
:0423D8000E946600F9
:0223DC00089562
:0223DE00089560
:0223E00008955E
:0223E20008955C
:0223E40008955A
:0123E6006492
:00000001FF
