:100000000C943B000C944F060C948B070C948B07BC
:100010000C948B070C948B070C948B070C948B0718
:100020000C948B070C948B070C948B070C94BE04D8
:100030000C948B070C948B070C948B070C948B07F8
:100040000C948B070C948B070C948B070C948B07E8
:100050000C948B07910495049A049F04A404A904AA
:10006000AE04B304006000668000660068000F24E0
:100070000068006E800011241FBECFE5D8E0DEBF0F
:10008000CDBFE4E6F0E040E017C0B591A591359111
:100090002591059107FD0CC095918591EF01F92FF0
:1000A000E82F05900D92A217B307D9F7FE0104C0FF
:1000B0001D92A217B307E1F7E537F40731F70E9465
:0A00C00047030C941F07F894FFCFCC
:1000CA000F9331B3326031BB31B33E7F31BB3AB1AA
:1000DA0038613AB9662319F0613029F007C030B5A2
:1000EA003F7730BD03C030B5306830BD2230F9F0FB
:1000FA0028F4222341F0213081F036C0233009F15F
:10010A00243049F131C02AB12B7F2AB920B52B7F7F
:10011A0020BD20B52D7F20BD27C02AB12B7F2AB94B
:10012A0020B52B7F20BD20B5226020BD1DC02AB17D
:10013A002B7F2AB920B5246020BD20B52D7F20BD94
:10014A0013C02AB12B7F2AB920B5246020BD20B55F
:10015A00226020BD09C02AB124602AB920B52460D2
:10016A0020BD20B5226020BD413059F018F0423040
:10017A0079F014C020B52F7D20BD20B52F7E20BD7B
:10018A000DC020B5206220BD20B52F7E20BD06C03F
:10019A0020B5206220BD20B5206120BD002319F0C2
:1001AA00013029F007C020B5277F20BD03C020B544
:1001BA00286020BD9C0122953295307F3227207F0E
:1001CA00322740E050E060E071E782E090E00E9470
:1001DA0088062150310929B930BD81E00F9108956F
:1001EA008F929F92AF92BF92EF92FF920F931F93BB
:1001FA00CF93DF937C01C62FD42FF9018081813000
:10020A0009F457C020F0823009F45DC068C00E942A
:10021A00C506B70180E090E00E9447044B015C01EB
:10022A0020E030E040EA51E40E947A07181624F0F0
:10023A008C2F0E94780553C020E030E040EA51E458
:10024A00C501B4010E947F07181614F520E030E0BA
:10025A0040E252E4C501B4010E947A071816C4F0BC
:10026A0060E08C2F0E94FF0381E0DA3F08F480E00F
:10027A0090E08E9DB0018F9D700D9E9D700D112492
:10028A00660F771F660F771F8C2F0E949F0627C065
:10029A00F9E2EF1AF1088AE0E816F10400F560E0E5
:1002AA008C2F0E94FF0360EA70E08C2F0E949F0649
:1002BA0016C060E08C2F0E94FF0360EA70E08C2F6A
:1002CA000E949F060CC060E08C2F0E94FF0360EA28
:1002DA0070E08C2F0E949F0681E0F8018083DF91F5
:1002EA00CF911F910F91FF90EF90BF90AF909F9089
:0402FA008F90089544
:1002FE00823091F128F4882359F08130D9F0089595
:10030E00843009F44DC0D0F1853009F45BC00895F6
:10031E0083B78E7F83BF83B78D7F83BF83B78B7F7A
:10032E0083BF1092600010926100109262001092D2
:10033E006300089583B7816083BF83B78D7F83BFCA
:10034E0083B78B7F83BF1092600010926100109272
:10035E00620010926300089583B78E7F83BF83B7C8
:10036E00826083BF83B78B7F83BF10926000109231
:10037E0061001092620010926300089583B781604D
:10038E0083BF83B7826083BF83B78B7F83BF109297
:10039E006000109261001092620010926300089546
:1003AE0083B78E7F83BF83B78D7F83BF83B7846010
:1003BE0083BF109260001092610010926200109242
:1003CE006300089583B7816083BF83B78D7F83BF3A
:1003DE0083B7846083BF1092600010926100109208
:0803EE00620010926300089503
:1003F600442319F04130C9F10895813091F028F075
:100406008230D9F0833029F108952AB381E090E053
:1004160002C0880F991F6A95E2F7809582238ABBEE
:10042600089527B381E090E002C0880F991F6A956E
:10043600E2F78095822387BB089524B381E090E09C
:1004460002C0880F991F6A95E2F78095822384BBC4
:10045600089521B381E090E002C0880F991F6A9544
:10046600E2F78095822381BB0895813089F028F0D8
:100476008230C9F0833011F108952AB381E090E00B
:1004860002C0880F991F6A95E2F7822B8ABB0895EE
:1004960027B381E090E002C0880F991F6A95E2F7C2
:1004A600822B87BB089524B381E090E002C0880FB9
:1004B600991F6A95E2F7822B84BB089521B381E0E8
:1004C60090E002C0880F991F6A95E2F7822B81BBE4
:0204D600089587
:1004D800442319F04130C9F10895813091F028F092
:1004E8008230D9F0833029F108952BB381E090E070
:1004F80002C0880F991F6A95E2F7809582238BBB0B
:10050800089528B381E090E002C0880F991F6A958A
:10051800E2F78095822388BB089525B381E090E0B7
:1005280002C0880F991F6A95E2F78095822385BBE0
:10053800089522B381E090E002C0880F991F6A9560
:10054800E2F78095822382BB0895813089F028F0F4
:100558008230C9F0833011F108952BB381E090E027
:1005680002C0880F991F6A95E2F7822B8BBB08950A
:1005780028B381E090E002C0880F991F6A95E2F7DE
:10058800822B88BB089525B381E090E002C0880FD4
:10059800991F6A95E2F7822B85BB089522B381E003
:1005A80090E002C0880F991F6A95E2F7822B82BB00
:0205B8000895A4
:1005BA000FC00E94490738F00E94500720F0952387
:1005CA0011F00C9469070C94880711240C944307C2
:1005DA000E940B0670F3959FC1F3950F50E0551FCB
:1005EA00629FF001729FBB27F00DB11D639FAA277E
:1005FA00F00DB11DAA1F649F6627B00DA11D661FCD
:10060A00829F2227B00DA11D621F739FB00DA11DED
:10061A00621F839FA00D611D221F749F3327A00DA7
:10062A00611D231F849F600D211D822F762F6A2F43
:10063A0011249F5750409AF0F1F088234AF0EE0FA8
:10064A00FF1FBB1F661F771F881F91505040A9F7D5
:10065A009E3F510580F00C9469070C9443075F3F55
:10066A00E4F3983ED4F3869577956795B795F79511
:10067A00E7959F5FC1F7FE2B880F911D9695879589
:04068A0097F908953F
:10068E00EF92FF920F931F9380E00E944F050E94FE
:10069E0014070E945D0760E085E00E943B078BB364
:1006AE0040E060E00E94FB010E94B20600E023E001
:1006BE0040E061E080E690E00E9465008823D1F181
:1006CE0082E00E9423050E945707811103C060E05B
:1006DE000E94FF038FE19EE40197F1F700C0000036
:1006EE000E9470069093650080936400609168008C
:1006FE0080916400909165004CE650E00E949F0549
:10070E0080916400909165000F2EFAE6EF2EF0E0D6
:10071E00FF2EF02D0DE610E02091670040E068E618
:10072E0070E00E94E80580916A008130C9F60E944F
:10073E006307D6CF80E090E01F910F91FF90EF906E
:02074E0008950C
:10075000CF92DF92EF92FF920F931F93CF93DF938D
:100760008B01EA01BC0180E090E00E9447046B012C
:100770007C0120E030E048E452E40E947A078823BC
:1007800074F48881882359F0F8011082188260E09F
:1007900086E690E00E9407070E94C50617C020E089
:1007A00030E048E452E4C701B6010E947F07882385
:1007B0006CF0888181110AC081E0888361E086E65F
:1007C00090E00E94070785E00E947F01F801808188
:1007D0008E3060F08881823049F082E0888362E068
:1007E00086E690E00E9407070E94C506DF91CF9140
:0E07F0001F910F91FF90EF90DF90CF90089532
:1007FE00CF93C62F882319F0813009F13FC041E015
:10080E0065E083E00E946C02CC2319F0C13061F0E8
:10081E0035C041E061E082E00E946C0240E062E09F
:10082E0082E00E946C022AC040E061E082E00E94F9
:10083E006C0241E062E082E00E946C021FC041E067
:10084E0062E083E00E946C02CC2319F0C13061F0AB
:10085E0015C041E062E082E00E946C0240E062E07E
:10086E0082E00E946C020AC040E062E082E00E94D8
:10087E006C0241E062E082E00E946C02CF9108952A
:10088E00E89409C097FB3EF490958095709561951C
:10089E007F4F8F4F9F4F9923A9F0F92F96E9BB27D2
:1008AE009395F695879577956795B795F111F8CF4E
:1008BE00FAF4BB0F11F460FF1BC06F5F7F4F8F4FB9
:1008CE009F4F16C0882311F096E911C0772321F0AF
:1008DE009EE8872F762F05C0662371F096E8862F47
:1008EE0070E060E02AF09A95660F771F881FDAF79E
:0A08FE00880F9695879597F90895E5
:10090800E82F84B195B18E2F90E08830910550F58D
:10091800FC01E65DFF4F0C946F0787B1887F87B9AC
:1009280021C087B1887F816087B91CC087B1887F63
:10093800826087B917C087B1887F836087B912C082
:1009480087B1887F846087B90DC087B1887F85604B
:1009580087B908C087B1887F866087B903C087B127
:10096800876087B986B1806486B93699FECF84B12D
:0409780095B1089598
:10097C001F920F920FB60F9211242F933F934F9308
:10098C005F936F937F938F939F93AF93BF93EF93EB
:10099C00FF9380916B008F5F80936B0080916B0055
:1009AC00803158F010926B000E947006C29728F0AC
:1009BC00809168008F5F80936800FF91EF91BF91E9
:1009CC00AF919F918F917F916F915F914F913F91DB
:0C09DC002F910F900FBE0F901F901895E8
:1009E8000E94130688F09F5798F0B92F9927B7519E
:1009F800B0F0E1F0660F771F881F991F1AF0BA95BB
:100A0800C9F714C0B13091F00E944207B1E00895CF
:100A18000C944207672F782F8827B85F39F0B93FC1
:100A2800CCF3869577956795B395D9F73EF490956D
:0E0A38008095709561957F4F8F4F9F4F089569
:100A460091B39B7F91BBF894813069F028F0823096
:100A5600C1F0833079F01BC085B78D7F85BF85B720
:100A66008E7F85BF14C085B78D7F85BF85B78160B2
:100A760085BF0DC085B7826085BF85B78E7F85BF70
:100A860006C085B7826085BF85B7816085BF8BB795
:080A960080648BBF7894089581
:100A9E00882319F08130A9F0089541E065E083E0E4
:100AAE000E94FB0141E061E082E00E94FB0141E017
:100ABE0062E082E00E94FB0189E88FBD8BE08EBD73
:100ACE00089541E062E083E00E94FB0141E062E0B4
:100ADE0082E00E94FB0141E062E082E00E94FB01A5
:020AEE00089569
:100AF000882319F0813099F008951BBC1ABC40E09E
:100B000065E083E00E946C0240E061E082E00E94C8
:100B10006C0240E062E082E00E946C02089540E0D6
:100B200062E083E00E946C0240E062E082E00E94AA
:0E0B30006C0240E062E082E00E946C020895D8
:100B3E008233910570F06E3038F4FA0110828CE237
:100B4E0091E00E94F90608958EE591E00E94F90663
:100B5E0008959C01295231092A30310548F4FA01D1
:100B6E002081213029F48FEF90E00E94F90608953C
:0A0B7E00FA0110820E94F9060895A2
:100B8800990F0008550FAA0BE0E8FEEF1616170696
:100B9800E807F907C0F012161306E407F50798F0FE
:100BA800621B730B840B950B39F40A2661F0232B17
:100BB800242B252B21F408950A2609F4A140A69593
:080BC8008FEF811D811D0895CE
:100BD000AF92BF92CF92DF92EF92FF920F931F934B
:100BE000CF93DF93EC01B42EA22E68018701A601FA
:100BF0000E94A80396014A2D6B2DCE010E94F5009C
:100C0000DF91CF911F910F91FF90EF90DF90CF90E8
:060C1000BF90AF900895B3
:100C160057FD9058440F551F59F05F3F71F04795A7
:100C2600880F97FB991F61F09F3F79F0879508958C
:100C3600121613061406551FF2CF4695F1DF08C0AB
:100C4600161617061806991FF1CF869571056105C8
:040C56000894089561
:100C5A00A1E21A2EAA1BBB1BFD010DC0AA1FBB1FB6
:100C6A00EE1FFF1FA217B307E407F50720F0A21B28
:100C7A00B30BE40BF50B661F771F881F991F1A9495
:100C8A0069F760957095809590959B01AC01BD01BF
:040C9A00CF010895E9
:100C9E001F920F920FB60F9211242F938F939F9343
:100CAE00809169008F5F8093690081E080936C0072
:100CBE002FE788E391E0215080409040E1F700C09B
:100CCE0000009F918F912F910F900FBE0F901F904C
:020CDE00189567
:100CE00080E00E948404BC0180E090E00E94470400
:100CF00020E030E04AEF53E40E94840720E030E037
:100D000040E85AE30E9484070E94F404CB0108954E
:100D1000052E97FB1EF400940E94330757FD07D061
:100D20000E942D0607FC03D04EF40C943307509517
:0E0D30004095309521953F4F4F4F5F4F0895EE
:100D3E00882319F0813041F0089576956795769560
:100D4E0067957BBD6ABD089576956795769567958F
:060D5E0079BD68BD089597
:100D640083B78F7B83BF83B7877F83BF83B78F7E30
:100D740083BF83B78F7D83BF89B7816089BF8FB7F6
:060D840080688FBF089596
:100D8A0083B78E7F83BF83B78D7F83BF83B78B7F04
:100D9A0083BF10926000109261001092620010925C
:040DAA006300089545
:100DAE00092E0394000C11F4882352F0BB0F40F46B
:100DBE00BF2B11F460FF04C06F5F7F4F8F4F9F4FAB
:020DCE00089586
:100DD000262FE199FECF9FBB8EBBE09A01970DB203
:100DE000021631F02DBB0FB6F894E29AE19A0FBECD
:020DF000089564
:100DF200CF93DF93D82F892F0E947507C82F8D2F8D
:0C0E02000E9475078C2BDF91CF910895A2
:100E0E00262FE199FECF9FBB8EBB2DBB0FB6F8945C
:0A0E1E00E29AE19A0FBE01960895D2
:100E280060E086E690E00E94E80660E086E690E0F2
:060E38000E94E806089587
:100E3E00EC010E9490070E948F07CE010E9491073D
:060E4E00CE010E948D0799
:100E5400CB01E199FECF9FBB8EBBE09A99278DB35E
:020E64000895EF
:100E660090958095709561957F4F8F4F9F4F089510
:0E0E760087B1806487B986B1876A86B908950E
:0E0E8400E894BB2766277727CB0197F90895DE
:0E0E920000240A94161617061806090608957D
:0E0EA00000240A94121613061406050608957F
:0C0EAE0066E670E080E80E942A070895C4
:0C0EBA0041E060E080E00E94FB01089530
:0C0EC60088E081BD81B5887F81BD089562
:0C0ED20097F99F6780E870E060E00895E9
:0C0EDE00EE0FFF1F0590F491E02D099429
:0A0EEA008CB95E9BFECF81E00895F5
:0A0EF4000E94C40508F481E008958F
:0A0EFE000E94C40508F48FEF089568
:080F08000E94DD020C94D706E3
:060F10009FEF80EC089544
:040F16000C94000037
:040F1A000E946300CE
:020F1E00089534
:020F2000089532
:020F2200089530
:010F2400408C
:010F2500FAD1
:00000001FF
