:100000000C943B000C94F5060C94F5060C94F50644
:100010000C94F5060C94F5060C94F5060C94F20677
:100020000C94F5060C94F5060C94F5060C94F50664
:100030000C94F5060C94F5060C94F5060C94F50654
:100040000C94F5060C94F5060C94F5060C94F50644
:100050000C94F50686048A048F04940499049E0483
:10006000A304A80400600088800088008A000DF8BE
:10007000008A0099800011241FBECFE5D8E0DEBFC2
:10008000CDBFE4E6F0E040E017C0B591A591359111
:100090002591059107FD0CC095918591EF01F92FF0
:1000A000E82F05900D92A217B307D9F7FE0104C0FF
:1000B0001D92A217B307E1F7E537F40731F70E9465
:0A00C000B3040C946B06F894FFCF14
:1000CA00DF92EF92FF920F931F93CF93DF9380916A
:1000DA009400811199C080918A0090918B000196B9
:1000EA0090938B0080938A00E0908A00F0908B00B6
:1000FA00E114F104B9F480918E0090918F0020915F
:10010A008C0030918D0030938F0020938E00909355
:10011A008D0080938C00809195008F5F809395006D
:10012A000E940D068091880090918900E816F906D0
:10013A0028F4D12C53C0DD24D39401C0D12CE091F2
:10014A008E00F0918F008081811107C08FEF9FEFA1
:10015A00909389008093880041C0E0918E00F091CD
:10016A008F000580F681E02DC681D7818A819B8127
:10017A00E816F90628F490938900809388002EC027
:10018A008E010E5F1F4FC8010E945B058C899D89F5
:10019A00892B21F0CE010C960E945B058E899091E5
:1001AA009800981710F48093980090E09C01220F11
:1001BA00331F220F331F220F331F820F931FB801E1
:1001CA00805A9F4F0E94EC059E89E0919000F09121
:1001DA0091008689981708F0AECFB1CFE0919000D0
:1001EA00F0919100868990E0FC01EE0FFF1FEE0F5F
:1001FA00FF1FEE0FFF1F8E0F9F1FFC01E05AFF4FDC
:10020A008081823040F409C0809197008F5F80938B
:10021A009700D12C02C0DD24D394809196008823C4
:10022A0011F0DD24D3948D2DDF91CF911F910F9181
:08023A00FF90EF90DF900895A2
:10024200AF92BF92CF92DF92EF92FF921F93CF9322
:10025200DF93EC01162F7A0159010E94B3060E9426
:10026200C5060E94D7060E94A106A70160E0812F61
:100272000E94E503BE0180E090E00E943C046B0115
:100282007C0120E030E040EA51E40E94E8061816C2
:100292002CF00E94D106F501108262C020E030E00D
:1002A20040EA51E4C701B6010E94ED0618167CF43B
:1002B20020E030E040E252E4C701B6010E94E806C5
:1002C20018162CF00E94BF06F501108249C020E0EA
:1002D20030E040E252E4C701B6010E94ED06181672
:1002E2006CF420E030E048E452E4C701B6010E9419
:1002F200E80618161CF00E94AD0632C0CF3FD105A9
:1003020049F483E0F50180830E94AD06812F0E94AB
:10031200350526C0CC32F1E0DF0741F481E0F5017A
:1003220080830E94AD060E949B061AC0CE35D14042
:1003320071F48EE5F50180830E94AD060E949B0652
:10034200812F0E9435058AE50E94760609C00E9427
:10035200AD060E94BF060E94D10681E0F5018083AE
:10036200DF91CF911F91FF90EF90DF90CF90BF90E0
:04037200AF900895AB
:100376000F9331B3326031BB31B33E7F31BB3AB1FB
:1003860038613AB9662319F0613029F007C030B5F3
:100396003F7730BD03C030B5306830BD2230F9F04C
:1003A60028F4222341F0213081F036C0233009F1B0
:1003B600243049F131C02AB12B7F2AB920B52B7FD1
:1003C60020BD20B52D7F20BD27C02AB12B7F2AB99D
:1003D60020B52B7F20BD20B5226020BD1DC02AB1CF
:1003E6002B7F2AB920B5246020BD20B52D7F20BDE6
:1003F60013C02AB12B7F2AB920B5246020BD20B5B1
:10040600226020BD09C02AB124602AB920B5246023
:1004160020BD20B5226020BD413059F018F0423091
:1004260079F014C020B52F7D20BD20B52F7E20BDCC
:100436000DC020B5206220BD20B52F7E20BD06C090
:1004460020B5206220BD20B5206120BD002319F013
:10045600013029F007C020B5277F20BD03C020B595
:10046600286020BD9C0122953295307F3227207F5F
:10047600322740E050E060E071E782E090E00E94C1
:1004860043062150310929B930BD81E00F91089505
:10049600442319F04130C9F10895813091F028F0D4
:1004A6008230D9F0833029F108952AB381E090E0B3
:1004B60002C0880F991F6A95E2F7809582238ABB4E
:1004C600089527B381E090E002C0880F991F6A95CE
:1004D600E2F78095822387BB089524B381E090E0FC
:1004E60002C0880F991F6A95E2F78095822384BB24
:1004F600089521B381E090E002C0880F991F6A95A4
:10050600E2F78095822381BB0895813089F028F037
:100516008230C9F0833011F108952AB381E090E06A
:1005260002C0880F991F6A95E2F7822B8ABB08954D
:1005360027B381E090E002C0880F991F6A95E2F721
:10054600822B87BB089524B381E090E002C0880F18
:10055600991F6A95E2F7822B84BB089521B381E047
:1005660090E002C0880F991F6A95E2F7822B81BB43
:020576000895E6
:10057800442319F04130C9F10895813091F028F0F1
:100588008230D9F0833029F108952BB381E090E0CF
:1005980002C0880F991F6A95E2F7809582238BBB6A
:1005A800089528B381E090E002C0880F991F6A95EA
:1005B800E2F78095822388BB089525B381E090E017
:1005C80002C0880F991F6A95E2F78095822385BB40
:1005D800089522B381E090E002C0880F991F6A95C0
:1005E800E2F78095822382BB0895813089F028F054
:1005F8008230C9F0833011F108952BB381E090E087
:1006080002C0880F991F6A95E2F7822B8BBB089569
:1006180028B381E090E002C0880F991F6A95E2F73D
:10062800822B88BB089525B381E090E002C0880F33
:10063800991F6A95E2F7822B85BB089522B381E062
:1006480090E002C0880F991F6A95E2F7822B82BB5F
:02065800089503
:10065A000F920FB6F8940F921F9211242F923F9285
:10066A004F925F926F927F928F929F92AF92BF92B8
:10067A00CF92DF92EF92FF920F931F932F933F93A4
:10068A004F935F936F937F938F939F93AF93BF9390
:10069A00CF93DF93EF93FF93A0919000B0919100D5
:1006AA000DB60D920EB60D920E94650081110E9440
:1006BA008903A0919000B0919100CD91CDBFDD91B9
:1006CA00DEBFFF91EF91DF91CF91BF91AF919F91E3
:1006DA008F917F916F915F914F913F912F911F91D0
:1006EA000F91FF90EF90DF90CF90BF90AF909F90C7
:1006FA008F907F906F905F904F903F902F901F90B8
:08070A000F900FBE0F9008953F
:1007120080919400882321F081E0809396000895CF
:100722001092960005C080919800815080939800A5
:100732008091980090E0FC01EE0FFF1FEE0FFF1F6B
:10074200EE0FFF1F8E0F9F1FFC01E05AFF4F8081AB
:10075200882349F38091980090E09C01220F331F77
:10076200220F331F220F331F280F391FD901A05A1E
:10077200BF4F1196ED91FC9112970280F381E02D0B
:100782001296FC93EE9311972D593F4FE217F30700
:1007920029F422813381FD0132832183FC01EE0F92
:1007A200FF1FEE0FFF1FEE0FFF1F8E0F9F1FFC019B
:1007B200E05AFF4F0180F281E02D8681978190936C
:0807C20091008093900008955E
:1007CA000F931F93CF93C62F8A01882319F0813084
:1007DA0059F149C041E063E081E00E94BC022AEF7E
:1007EA00209FC001219F900D1124892F86958695FF
:1007FA008CBFCC2319F0C13061F035C041E061E013
:10080A0082E00E94BC0240E062E082E00E94BC02F8
:10081A002AC040E061E082E00E94BC0241E062E05E
:10082A0082E00E94BC021FC041E062E081E00E94B7
:10083A00BC02CC2319F0C13061F015C041E062E07E
:10084A0082E00E94BC0240E062E082E00E94BC02B8
:10085A000AC040E062E082E00E94BC0241E062E03D
:0E086A0082E00E94BC02CF911F910F91089571
:10087800E89409C097FB3EF4909580957095619532
:100888007F4F8F4F9F4F9923A9F0F92F96E9BB27E8
:100898009395F695879577956795B795F111F8CF64
:1008A800FAF4BB0F11F460FF1BC06F5F7F4F8F4FCF
:1008B8009F4F16C0882311F096E911C0772321F0C5
:1008C8009EE8872F762F05C0662371F096E8862F5D
:1008D80070E060E02AF09A95660F771F881FDAF7B4
:0A08E800880F9695879597F90895FB
:1008F200E82F84B195B18E2F90E08830910550F5A4
:10090200FC01E65DFF4F0C94DD0687B1887F87B955
:1009120021C087B1887F816087B91CC087B1887F79
:10092200826087B917C087B1887F836087B912C098
:1009320087B1887F846087B90DC087B1887F856061
:1009420087B908C087B1887F866087B903C087B13D
:10095200876087B986B1806486B93699FECF84B143
:0409620095B10895AE
:100966000E94E20486E890E00E94810580E00E94F1
:1009760079049093850080938400809186009091FD
:1009860087008F3F910521F4109285001092840014
:100996006091840070918500809193000E942C06DE
:1009A600409184005091850022E930E060919300E7
:0E09B60080918600909187000E942101D3CF8E
:1009C4000F93809193000E940D050E945A060E9485
:1009D400A7060E94B9060E94CB060E94950660E015
:1009E40081E00E94870600E023E040E061E080E6C9
:1009F40090E00E94BB01882361F08AE50E9476069C
:100A0400409184005091850060E0809193000E94A1
:060A1400E5030F910895B7
:100A1A00882319F08130A1F0089541E063E081E074
:100A2A000E944B0241E061E082E00E944B0241E0F9
:100A3A0062E082E00E944B0212BE8BE683BF0895F9
:100A4A0041E062E081E00E944B0241E062E082E024
:100A5A000E944B0241E062E082E00E944B0208954C
:100A6A00882319F0813091F008951CBE40E063E0BC
:100A7A0081E00E94BC0240E061E082E00E94BC0288
:100A8A0040E062E082E00E94BC02089540E062E039
:100A9A0081E00E94BC0240E062E082E00E94BC0267
:0C0AAA0040E062E082E00E94BC0208957F
:100AB600CF93DF93FC01A085B185C281D381848168
:100AC60095819D838C83C481D581828193819B830B
:100AD6008A8311968D919C911297E817F90731F444
:100AE6008481958112969C938E9311971186108618
:0C0AF6008C9181508C93DF91CF9108957A
:100B0200EF92FF921F93CF93DF9300D0CDB7DEB762
:100B12007C0119821A82CE0101960E948E06182F3C
:100B2200CE0102960E948E06182B6A8189810E944C
:100B3200E306F70191838083812F0F900F90DF915D
:0A0B4200CF911F91FF90EF900895EE
:100B4C00990F0008550FAA0BE0E8FEEF16161706D2
:100B5C00E807F907C0F012161306E407F50798F03A
:100B6C00621B730B840B950B39F40A2661F0232B53
:100B7C00242B252B21F408950A2609F4A140A695CF
:080B8C008FEF811D811D08950A
:100B9400A1E21A2EAA1BBB1BFD010DC0AA1FBB1F7D
:100BA400EE1FFF1FA217B307E407F50720F0A21BEF
:100BB400B30BE40BF50B661F771F881F991F1A945C
:100BC40069F760957095809590959B01AC01BD0186
:040BD400CF010895B0
:100BD800CF93DF939C01FB01DC011196CD91DC9151
:100BE8001297D383C2838C819D81958384838C8162
:100BF8009D81DC0113967C936E9312977D836C83A1
:100C080031872087F90180818F5F8083DF91CF91C1
:020C180008953D
:100C1A00E0918E00F0918F008081811107C08FEFE3
:100C2A009FEF90938900809388000895E0918E0049
:100C3A00F0918F000580F681E02D0680F781E02D86
:0E0C4A008281938190938900809388000895A1
:100C5800882319F0813061F008952AEF269FC0019A
:100C6800279F900D1124892F869586958CBF08950E
:0E0C780076956795769567957BBD6ABD089564
:100C8600052E97FB1EF400940E947F0657FD07D0A1
:100C96000E94CA0507FC03D04EF40C947F065095BB
:0E0CA6004095309521953F4F4F4F5F4F089579
:100CB40082B341E065E00E944B0282E88FBD8BE184
:100CC4008EBD78941DBC1CBC8FE19EE497BD86BD8F
:020CD400089581
:100CD600EC010E94FA060E94F906CE010E94FB066C
:060CE600CE010E94F7069A
:100CEC002BE0829FC001112488519C4F9BBD8ABD73
:020CFC00089559
:100CFE0090958095709561957F4F8F4F9F4F08957A
:0E0D0E0087B1806487B986B1876A86B9089577
:0E0D1C005F9BFECF2CB1FC01208381E0089587
:0C0D2A0041E064E081E00E944B0208956B
:0C0D360041E064E081E00E94BC020895EE
:0C0D420040E064E081E00E94BC020895E3
:0C0D4E0041E060E081E00E944B0208954B
:0C0D5A0041E060E081E00E94BC020895CE
:0C0D660040E060E081E00E94BC020895C3
:0C0D720041E061E081E00E944B02089526
:0C0D7E0041E061E081E00E94BC020895A9
:0C0D8A0040E061E081E00E94BC0208959E
:0C0D960041E062E081E00E944B02089501
:0C0DA20041E062E081E00E94BC02089584
:0C0DAE0040E062E081E00E94BC02089579
:0C0DBA00EE0FFF1F0590F491E02D09944E
:0A0DC60090E0982F8827862B0895EF
:0A0DD0000E94A60508F481E00895D2
:0A0DDA000E94A60508F48FEF0895AB
:060DE4000E942D0318958A
:040DEA000C94000065
:040DEE000E946300FC
:020DF200089562
:020DF400089560
:020DF60008955E
:020DF800FFFFFB
:00000001FF
