:100000000C943B000C94D1060C94D1060C94D106B0
:100010000C94D1060C94D1060C94D1060C94CE0607
:100020000C94D1060C94D1060C94D1060C94D106F4
:100030000C94D1060C94D1060C94D1060C94D106E4
:100040000C94D1060C94D1060C94D1060C94D106D4
:100050000C94D10677047B04800485048A048F0401
:100060009404990400600088800088008A000DB024
:10007000008A0099800011241FBECFE5D8E0DEBFC2
:10008000CDBFE4E6F0E040E017C0B591A591359111
:100090002591059107FD0CC095918591EF01F92FF0
:1000A000E82F05900D92A217B307D9F7FE0104C0FF
:1000B0001D92A217B307E1F7E537F40731F70E9465
:0A00C000EB050C944706F894FFCFFF
:1000CA00DF92EF92FF920F931F93CF93DF9380916A
:1000DA009400811199C080918A0090918B000196B9
:1000EA0090938B0080938A00E0908A00F0908B00B6
:1000FA00E114F104B9F480918E0090918F0020915F
:10010A008C0030918D0030938F0020938E00909355
:10011A008D0080938C00809195008F5F809395006D
:10012A000E94CC058091880090918900E816F90612
:10013A0028F4D12C53C0DD24D39401C0D12CE091F2
:10014A008E00F0918F008081811107C08FEF9FEFA1
:10015A00909389008093880041C0E0918E00F091CD
:10016A008F000580F681E02DC681D7818A819B8127
:10017A00E816F90628F490938900809388002EC027
:10018A008E010E5F1F4FC8010E941A058C899D8936
:10019A00892B21F0CE010C960E941A058E89909126
:1001AA009800981710F48093980090E09C01220F11
:1001BA00331F220F331F220F331F820F931FB801E1
:1001CA00805A9F4F0E94AB059E89E0919000F09162
:1001DA0091008689981708F0AECFB1CFE0919000D0
:1001EA00F0919100868990E0FC01EE0FFF1FEE0F5F
:1001FA00FF1FEE0FFF1F8E0F9F1FFC01E05AFF4FDC
:10020A008081823040F409C0809197008F5F80938B
:10021A009700D12C02C0DD24D394809196008823C4
:10022A0011F0DD24D3948D2DDF91CF911F910F9181
:08023A00FF90EF90DF900895A2
:10024200AF92BF92CF92DF92EF92FF921F93CF9322
:10025200DF93EC01162F5A010E948F060E94A1061D
:100262000E94B3060E947D0660E0812F0E94E30394
:10027200BE0180E090E00E942D046B017C0120E031
:1002820030E040EA51E40E94C40618162CF00E94A5
:10029200AD06F501108262C020E030E040EA51E490
:1002A200C701B6010E94C90618167CF420E030E0AE
:1002B20040E252E4C701B6010E94C40618162CF0AF
:1002C2000E949B06F501108249C020E030E040E226
:1002D20052E4C701B6010E94C90618166CF420E068
:1002E20030E048E452E4C701B6010E94C406181681
:1002F2001CF00E94890632C0CF3FD10549F483E049
:10030200F50180830E948906812F0E94F30426C092
:10031200CC32F1E0DF0741F481E0F50180830E94F5
:1003220089060E9477061AC0CE35D14071F48EE557
:10033200F50180830E9489060E947706812F0E9420
:10034200F3048AE50E94520609C00E9489060E94AF
:100352009B060E94AD0681E0F5018083DF91CF917B
:100362001F91FF90EF90DF90CF90BF90AF900895D4
:100372000F9331B3326031BB31B33E7F31BB3AB1FF
:1003820038613AB9662319F0613029F007C030B5F7
:100392003F7730BD03C030B5306830BD2230F9F050
:1003A20028F4222341F0213081F036C0233009F1B4
:1003B200243049F131C02AB12B7F2AB920B52B7FD5
:1003C20020BD20B52D7F20BD27C02AB12B7F2AB9A1
:1003D20020B52B7F20BD20B5226020BD1DC02AB1D3
:1003E2002B7F2AB920B5246020BD20B52D7F20BDEA
:1003F20013C02AB12B7F2AB920B5246020BD20B5B5
:10040200226020BD09C02AB124602AB920B5246027
:1004120020BD20B5226020BD413059F018F0423095
:1004220079F014C020B52F7D20BD20B52F7E20BDD0
:100432000DC020B5206220BD20B52F7E20BD06C094
:1004420020B5206220BD20B5206120BD002319F017
:10045200013029F007C020B5277F20BD03C020B599
:10046200286020BD9C0122953295307F3227207F63
:10047200322740E050E060E071E782E090E00E94C5
:100482001F062150310929B930BD81E00F9108952D
:10049200442319F04130C9F10895813091F028F0D8
:1004A2008230D9F0833029F108952AB381E090E0B7
:1004B20002C0880F991F6A95E2F7809582238ABB52
:1004C200089527B381E090E002C0880F991F6A95D2
:1004D200E2F78095822387BB089524B381E090E000
:1004E20002C0880F991F6A95E2F78095822384BB28
:1004F200089521B381E090E002C0880F991F6A95A8
:10050200E2F78095822381BB0895813089F028F03B
:100512008230C9F0833011F108952AB381E090E06E
:1005220002C0880F991F6A95E2F7822B8ABB089551
:1005320027B381E090E002C0880F991F6A95E2F725
:10054200822B87BB089524B381E090E002C0880F1C
:10055200991F6A95E2F7822B84BB089521B381E04B
:1005620090E002C0880F991F6A95E2F7822B81BB47
:020572000895EA
:10057400442319F04130C9F10895813091F028F0F5
:100584008230D9F0833029F108952BB381E090E0D3
:1005940002C0880F991F6A95E2F7809582238BBB6E
:1005A400089528B381E090E002C0880F991F6A95EE
:1005B400E2F78095822388BB089525B381E090E01B
:1005C40002C0880F991F6A95E2F78095822385BB44
:1005D400089522B381E090E002C0880F991F6A95C4
:1005E400E2F78095822382BB0895813089F028F058
:1005F4008230C9F0833011F108952BB381E090E08B
:1006040002C0880F991F6A95E2F7822B8BBB08956D
:1006140028B381E090E002C0880F991F6A95E2F741
:10062400822B88BB089525B381E090E002C0880F37
:10063400991F6A95E2F7822B85BB089522B381E066
:1006440090E002C0880F991F6A95E2F7822B82BB63
:02065400089507
:100656000F920FB6F8940F921F9211242F923F9289
:100666004F925F926F927F928F929F92AF92BF92BC
:10067600CF92DF92EF92FF920F931F932F933F93A8
:100686004F935F936F937F938F939F93AF93BF9394
:10069600CF93DF93EF93FF93A0919000B0919100D9
:1006A6000DB60D920EB60D920E94650081110E9444
:1006B6008703A0919000B0919100CD91CDBFDD91BF
:1006C600DEBFFF91EF91DF91CF91BF91AF919F91E7
:1006D6008F917F916F915F914F913F912F911F91D4
:1006E6000F91FF90EF90DF90CF90BF90AF909F90CB
:1006F6008F907F906F905F904F903F902F901F90BC
:080706000F900FBE0F90089543
:10070E0080919400882321F081E0809396000895D3
:10071E001092960005C080919800815080939800A9
:10072E008091980090E0FC01EE0FFF1FEE0FFF1F6F
:10073E00EE0FFF1F8E0F9F1FFC01E05AFF4F8081AF
:10074E00882349F38091980090E09C01220F331F7B
:10075E00220F331F220F331F280F391FD901A05A22
:10076E00BF4F1196ED91FC9112970280F381E02D0F
:10077E001296FC93EE9311972D593F4FE217F30704
:10078E0029F422813381FD0132832183FC01EE0F96
:10079E00FF1FEE0FFF1FEE0FFF1F8E0F9F1FFC019F
:1007AE00E05AFF4F0180F281E02D86819781909370
:0807BE00910080939000089562
:1007C600CF93C62F882319F0813019F141C041E03B
:1007D60063E081E00E94BA028DE78CBFCC2319F05A
:1007E600C13061F035C041E061E082E00E94BA02AA
:1007F60040E062E082E00E94BA022AC040E061E086
:1008060082E00E94BA0241E062E082E00E94BA02FF
:100816001FC041E062E081E00E94BA02CC2319F0D9
:10082600C13061F015C041E062E082E00E94BA0288
:1008360040E062E082E00E94BA020AC040E062E064
:1008460082E00E94BA0241E062E082E00E94BA02BF
:04085600CF910895A1
:10085A00E89409C097FB3EF4909580957095619550
:10086A007F4F8F4F9F4F9923A9F0F92F96E9BB2706
:10087A009395F695879577956795B795F111F8CF82
:10088A00FAF4BB0F11F460FF1BC06F5F7F4F8F4FED
:10089A009F4F16C0882311F096E911C0772321F0E3
:1008AA009EE8872F762F05C0662371F096E8862F7B
:1008BA0070E060E02AF09A95660F771F881FDAF7D2
:0A08CA00880F9695879597F9089519
:1008D400E82F84B195B18E2F90E08830910550F5C2
:1008E400FC01E65DFF4F0C94B90687B1887F87B998
:1008F40021C087B1887F816087B91CC087B1887F98
:10090400826087B917C087B1887F836087B912C0B6
:1009140087B1887F846087B90DC087B1887F85607F
:1009240087B908C087B1887F866087B903C087B15B
:10093400876087B986B1806486B93699FECF84B161
:0409440095B10895CC
:10094800882319F08130A1F0089541E063E081E047
:100958000E94490241E061E082E00E94490241E0D0
:1009680062E082E00E94490212BE8BE683BF0895CE
:1009780041E062E081E00E94490241E062E082E0F9
:100988000E94490241E062E082E00E944902089523
:100998000F93809193000E94A4040E9436060E943F
:1009A80083060E9495060E94A7060E94710660E0D1
:1009B80081E00E94630600E023E040E061E080E619
:1009C80090E00E94B901882341F08AE50E9452060E
:0E09D80060E0809193000E94E3030F91089568
:1009E600882319F0813099F0089519BC18BC40E0AD
:1009F60063E081E00E94BA0240E061E082E00E948A
:100A0600BA0240E062E082E00E94BA02089540E045
:100A160062E081E00E94BA0240E062E082E00E9469
:0E0A2600BA0240E062E082E00E94BA02089547
:100A3400CF93DF93FC01A085B185C281D3818481EA
:100A440095819D838C83C481D581828193819B838D
:100A54008A8311968D919C911297E817F90731F4C6
:100A64008481958112969C938E931197118610869A
:0C0A74008C9181508C93DF91CF910895FC
:100A8000EF92FF921F93CF93DF9300D0CDB7DEB7E5
:100A90007C0119821A82CE0101960E946A06182FE3
:100AA000CE0102960E946A06182B6A8189810E94F3
:100AB000BF06F70191838083812F0F900F90DF9104
:0A0AC000CF911F91FF90EF90089571
:100ACA00990F0008550FAA0BE0E8FEEF1616170655
:100ADA00E807F907C0F012161306E407F50798F0BD
:100AEA00621B730B840B950B39F40A2661F0232BD6
:100AFA00242B252B21F408950A2609F4A140A69552
:080B0A008FEF811D811D08958C
:100B1200A1E21A2EAA1BBB1BFD010DC0AA1FBB1FFF
:100B2200EE1FFF1FA217B307E407F50720F0A21B71
:100B3200B30BE40BF50B661F771F881F991F1A94DE
:100B420069F760957095809590959B01AC01BD0108
:040B5200CF01089532
:100B5600CF93DF939C01FB01DC011196CD91DC91D3
:100B66001297D383C2838C819D81958384838C81E4
:100B76009D81DC0113967C936E9312977D836C8323
:100B860031872087F90180818F5F8083DF91CF9144
:020B96000895C0
:100B9800E0918E00F0918F008081811107C08FEF66
:100BA8009FEF90938900809388000895E0918E00CC
:100BB800F0918F000580F681E02D0680F781E02D09
:0E0BC800828193819093890080938800089524
:100BD6000E94CC0486E890E00E94400580E00E94D6
:100BE6006A049093850080938400BC0180919300F1
:100BF6000E94080642E950E06091930080918600C9
:0A0C0600909187000E942101E5CFC4
:100C1000882319F0813061F0089524E6269FC001F1
:100C2000279F900D1124892F869586958CBF089556
:0E0C300076956795769567957BBD6ABD0895AC
:100C3E00052E97FB1EF400940E945B0657FD07D00D
:100C4E000E94890507FC03D04EF40C945B06509568
:0E0C5E004095309521953F4F4F4F5F4F0895C1
:100C6C0082B341E065E00E94490282E88FBD8BE1CE
:100C7C008EBD78941DBC1CBC8FE19EE497BD86BDD7
:020C8C000895C9
:100C8E00EC010E94D6060E94D506CE010E94D70620
:060C9E00CE010E94D30606
:100CA4002BE0829FC001112488519C4F9BBD8ABDBB
:020CB4000895A1
:100CB60090958095709561957F4F8F4F9F4F0895C2
:0E0CC60087B1806487B986B1876A86B90895C0
:0E0CD4005F9BFECF2CB1FC01208381E00895D0
:0C0CE20041E064E081E00E9449020895B6
:0C0CEE0041E064E081E00E94BA02089539
:0C0CFA0040E064E081E00E94BA0208952E
:0C0D060041E060E081E00E944902089595
:0C0D120041E060E081E00E94BA02089518
:0C0D1E0040E060E081E00E94BA0208950D
:0C0D2A0041E061E081E00E944902089570
:0C0D360041E061E081E00E94BA020895F3
:0C0D420040E061E081E00E94BA020895E8
:0C0D4E0041E062E081E00E94490208954B
:0C0D5A0041E062E081E00E94BA020895CE
:0C0D660040E062E081E00E94BA020895C3
:0C0D7200EE0FFF1F0590F491E02D099496
:0A0D7E0090E0982F8827862B089537
:0A0D88000E94650508F481E008955B
:0A0D92000E94650508F48FEF089534
:060D9C000E942B031895D4
:040DA2000C940000AD
:040DA6000E94630044
:020DAA000895AA
:020DAC000895A8
:020DAE000895A6
:020DB000FFFF43
:00000001FF
