:100000000C943B000C94BA080C94BA080C94BA08EF
:100010000C94BA080C94BA080C94BA080C94B7085B
:100020000C94BA080C94BA080C94BA080C94BA0848
:100030000C94BA080C94BA080C94BA080C94BA0838
:100040000C94BA080C94BA080C94BA080C94BA0828
:100050000C94BA0828062C06310636063B064006E4
:1000600045064A060060068B80068B068D001184CB
:10007000068D069C800011241FBECFE5D8E0DEBFB0
:10008000CDBFE4E6F0E040E017C0B591A591359111
:100090002591059107FD0CC095918591EF01F92FF0
:1000A000E82F05900D92A217B307D9F7FE0104C0FF
:1000B0001D92A217B307E1F7E537F40731F70E9465
:0A00C000AE040C942B08F894FFCF57
:1000CA00DF92EF92FF920F931F93CF93DF9380916A
:1000DA009606811199C080918D0690918E0601969F
:1000EA0090938E0680938D06E0908D06F0908E0692
:1000FA00E114F104B9F4809191069091920620914D
:10010A008F06309190063093920620939106909331
:10011A00900680938F06809197068F5F809397064B
:10012A000E94B80780918B0690918C06E816F90612
:10013A0028F4D12C53C0DD24D39401C0D12CE091F2
:10014A009106F09192068081811107C08FEF9FEF8F
:10015A0090938C0680938B0641C0E0919106F091B2
:10016A0092060580F681E02DC681D7818A819B811E
:10017A00E816F90628F490938C0680938B062EC015
:10018A008E010E5F1F4FC8010E9406078C899D8948
:10019A00892B21F0CE010C960E9406078E89909138
:1001AA009A06981710F480939A0690E09C01220F01
:1001BA00331F220F331F220F331F820F931FB801E1
:1001CA008A5A994F0E9497079E89E0919306F09167
:1001DA0094068689981708F0AECFB1CFE0919306BE
:1001EA00F0919406868990E0FC01EE0FFF1FEE0F56
:1001FA00FF1FEE0FFF1F8E0F9F1FFC01EA5AF94FD8
:10020A008081823040F409C0809199068F5F809383
:10021A009906D12C02C0DD24D394809198068823B4
:10022A0011F0DD24D3948D2DDF91CF911F910F9181
:08023A00FF90EF90DF900895A2
:10024200AF92BF92CF92DF92EF92FF921F93CF9322
:10025200DF93EC01162F5A010E9472080E94840853
:100262000E9496080E94600860E0812F0E944D055E
:10027200BE0180E090E00E94DE056B017C0120E07F
:1002820030E040EA51E40E94AD0818162CF00E94BA
:100292009008F501108263C020E030E040EA51E4AA
:1002A200C701B6010E94B20818167CF420E030E0C3
:1002B20040E252E4C701B6010E94AD0818162CF0C4
:1002C2000E947E08F50110824AC020E030E040E240
:1002D20052E4C701B6010E94B20818166CF420E07D
:1002E20030E048E452E4C701B6010E94AD08181696
:1002F2001CF00E946C0833C0CF3FD10549F483E063
:10030200F50180830E946C08812F0E94E00627C0BD
:10031200CC32F1E0DF0741F481E0F50180830E94F5
:100322006C080E945A081BC0CE35D14079F48EE584
:10033200F50180830E946C080E945A08812F0E9456
:10034200E0068CE291E00E941E0809C00E946C083F
:100352000E947E080E94900881E0F5018083DF916F
:10036200CF911F91FF90EF90DF90CF90BF90AF9011
:020372000895EC
:100374000F9331B3326031BB31B33E7F31BB3AB1FD
:1003840038613AB9662319F0613029F007C030B5F5
:100394003F7730BD03C030B5306830BD2230F9F04E
:1003A40028F4222341F0213081F036C0233009F1B2
:1003B400243049F131C02AB12B7F2AB920B52B7FD3
:1003C40020BD20B52D7F20BD27C02AB12B7F2AB99F
:1003D40020B52B7F20BD20B5226020BD1DC02AB1D1
:1003E4002B7F2AB920B5246020BD20B52D7F20BDE8
:1003F40013C02AB12B7F2AB920B5246020BD20B5B3
:10040400226020BD09C02AB124602AB920B5246025
:1004140020BD20B5226020BD413059F018F0423093
:1004240079F014C020B52F7D20BD20B52F7E20BDCE
:100434000DC020B5206220BD20B52F7E20BD06C092
:1004440020B5206220BD20B5206120BD002319F015
:10045400013029F007C020B5277F20BD03C020B597
:10046400286020BD9C0122953295307F3227207F61
:10047400322740E050E060E071E782E090E00E94C3
:10048400D7072150310929B930BD81E00F91089572
:10049400442319F04130C9F10895813091F028F0D6
:1004A4008230D9F0833029F108952AB381E090E0B5
:1004B40002C0880F991F6A95E2F7809582238ABB50
:1004C400089527B381E090E002C0880F991F6A95D0
:1004D400E2F78095822387BB089524B381E090E0FE
:1004E40002C0880F991F6A95E2F78095822384BB26
:1004F400089521B381E090E002C0880F991F6A95A6
:10050400E2F78095822381BB0895813089F028F039
:100514008230C9F0833011F108952AB381E090E06C
:1005240002C0880F991F6A95E2F7822B8ABB08954F
:1005340027B381E090E002C0880F991F6A95E2F723
:10054400822B87BB089524B381E090E002C0880F1A
:10055400991F6A95E2F7822B84BB089521B381E049
:1005640090E002C0880F991F6A95E2F7822B81BB45
:020574000895E8
:10057600442319F04130C9F10895813091F028F0F3
:100586008230D9F0833029F108952BB381E090E0D1
:1005960002C0880F991F6A95E2F7809582238BBB6C
:1005A600089528B381E090E002C0880F991F6A95EC
:1005B600E2F78095822388BB089525B381E090E019
:1005C60002C0880F991F6A95E2F78095822385BB42
:1005D600089522B381E090E002C0880F991F6A95C2
:1005E600E2F78095822382BB0895813089F028F056
:1005F6008230C9F0833011F108952BB381E090E089
:1006060002C0880F991F6A95E2F7822B8BBB08956B
:1006160028B381E090E002C0880F991F6A95E2F73F
:10062600822B88BB089525B381E090E002C0880F35
:10063600991F6A95E2F7822B85BB089522B381E064
:1006460090E002C0880F991F6A95E2F7822B82BB61
:02065600089505
:100658000F931F93CF93DF930FB6F8940F92809167
:10066800960681508093960680919606811157C010
:1006780080919B06811132C055C0E0917F06F091B0
:100688008006C681D781CE010C960E9406078E018E
:100698000E5F1F4FC8010E9406078E8990919A0627
:1006A800981710F480939A0690E09C01220F331F4C
:1006B800220F331F220F331F820F931FB8018A5A4C
:1006C800994F0E9497079E89E0919306F0919406AE
:1006D8008689981718F081E08093980680917A06A9
:1006E8008111CBCF8091990681110DC010C00E9455
:1006F8006500882319F081E0809398068091990617
:10070800815080939906809199068111F0CF80914C
:100718009806813031F40E94550481E003C080E0DE
:1007280001C080E00F900FBEDF91CF911F910F9114
:02073800089522
:10073A000F920FB6F8940F921F9211242F923F92A4
:10074A004F925F926F927F928F929F92AF92BF92D7
:10075A00CF92DF92EF92FF920F931F932F933F93C3
:10076A004F935F936F937F938F939F93AF93BF93AF
:10077A00CF93DF93EF93FF93A0919306B0919406E2
:10078A000DB60D920EB60D920E94650081110E945F
:10079A00F903A0919306B0919406CD91CDBFDD9156
:1007AA00DEBFFF91EF91DF91CF91BF91AF919F9102
:1007BA008F917F916F915F914F913F912F911F91EF
:1007CA000F91FF90EF90DF90CF90BF90AF909F90E6
:1007DA008F907F906F905F904F903F902F901F90D7
:0807EA000F900FBE0F9008955F
:1007F20080919606882321F081E0809398060895DF
:100802001092980605C080919A06815080939A06AC
:1008120080919A0690E0FC01EE0FFF1FEE0FFF1F82
:10082200EE0FFF1F8E0F9F1FFC01EA5AF94F8081C6
:10083200882349F380919A0690E09C01220F331F8E
:10084200220F331F220F331F280F391FD901AA5A33
:10085200B94F1196ED91FC9112970280F381E02D30
:100862001296FC93EE931197275A394FE217F3072A
:1008720029F422813381FD0132832183FC01EE0FB1
:10088200FF1FEE0FFF1FEE0FFF1F8E0F9F1FFC01BA
:10089200EA5AF94F0180F281E02D86819781909387
:0808A20094068093930608956B
:1008AA000F920FB6F8940F921F9211242F923F9233
:1008BA004F925F926F927F928F929F92AF92BF9266
:1008CA00CF92DF92EF92FF920F931F932F933F9352
:1008DA004F935F936F937F938F939F93AF93BF933E
:1008EA00CF93DF93EF93FF93A0919306B091940671
:1008FA000DB60D920EB60D920E94F903A0919306C1
:10090A00B0919406CD91CDBFDD91DEBFFF91EF91FD
:10091A00DF91CF91BF91AF919F918F917F916F910D
:10092A005F914F913F912F911F910F91FF90EF90FF
:10093A00DF90CF90BF90AF909F908F907F906F90F5
:10094A005F904F903F902F901F900F900FBE0F9087
:02095A000895FE
:10095C000F9343E060E081E00E948A06909361006F
:10096C008093600043E060E081E00E948A069093EF
:10097C0067008093660080E00E94B8060E94000821
:10098C000E9466080E9478080E948A080E945408F7
:10099C0060E085E00E94460800E023E040E061E072
:1009AC0080E690E00E94BA01882309F186EB91E081
:1009BC000E941E0860E080E00E944D0585E896E0EC
:1009CC000E942C0780E00E941B0690938406809363
:1009DC008306BC0180E00E94EE0745E956E060E02A
:1009EC0080918506909186060E942101E7CF80E0D8
:0609FC0090E00F91089548
:100A02000F931F93CF93DF93A82FCB010596A11DC0
:100A1200FC015A2F0E943E08FB01C681D7818E013C
:100A2200045F1F4FC8010E9406078091960681113C
:100A32001CC00A501109C8010E9406078E899091B4
:100A42009A06981710F480939A0690E09C01220F60
:100A5200331F220F331F220F331F820F931FB80140
:100A62008A5A994F0E94970705C0B8018AE796E013
:100A72000E9497079E89E0919306F09194068689D9
:100A8200891720F481E08093980601C080E0DF910D
:080A9200CF911F910F9108950F
:100A9A00CF93C62F882319F0813019F141C041E064
:100AAA0063E081E00E94BB028DE78CBFCC2319F082
:100ABA00C13061F035C041E061E082E00E94BB02D2
:100ACA0040E062E082E00E94BB022AC040E061E0AE
:100ADA0082E00E94BB0241E062E082E00E94BB0227
:100AEA001FC041E062E081E00E94BB02CC2319F002
:100AFA00C13061F015C041E062E082E00E94BB02B1
:100B0A0040E062E082E00E94BB020AC040E062E08C
:100B1A0082E00E94BB0241E062E082E00E94BB02E6
:040B2A00CF910895CA
:100B2E00CF93DF93EC010FB6F8940F92E881F98121
:100B3E008B8D90E02C8D30E0829FA001839F500D15
:100B4E00929F500D11244E0F5F1F5B834A831A8EA6
:100B5E00FD83EC830197289FA001299F500D389F9C
:100B6E00500D1124CF01840F951F9F838E838FEF1D
:100B7E008D8F8E8F61110DC08885882391F02896F8
:100B8E00BE0180E80E940105813059F40E9455048F
:100B9E0008C0CE0108960E941008CE0141960E9410
:0E0BAE0010080F900FBE81E0DF91CF910895E7
:100BBC00E89409C097FB3EF49095809570956195EB
:100BCC007F4F8F4F9F4F9923A9F0F92F96E9BB27A1
:100BDC009395F695879577956795B795F111F8CF1D
:100BEC00FAF4BB0F11F460FF1BC06F5F7F4F8F4F88
:100BFC009F4F16C0882311F096E911C0772321F07E
:100C0C009EE8872F762F05C0662371F096E8862F15
:100C1C0070E060E02AF09A95660F771F881FDAF76C
:0A0C2C00880F9695879597F90895B3
:100C3600E82F84B195B18E2F90E08830910550F55C
:100C4600FC01E65DFF4F0C94A20887B1887F87B947
:100C560021C087B1887F816087B91CC087B1887F32
:100C6600826087B917C087B1887F836087B912C051
:100C760087B1887F846087B90DC087B1887F85601A
:100C860087B908C087B1887F866087B903C087B1F6
:100C9600876087B986B1806486B93699FECF84B1FC
:040CA60095B1089567
:100CAA00CF93DF93EC010E949C0880918706909174
:100CBA008806892B31F48BE790E09093880680931D
:100CCA0087062091890630918A06C9018C0F9D1FDB
:100CDA008B3D45E0940770F42817390770F4C091EA
:100CEA008706D0918806C20FD31F90938A068093F5
:100CFA00890605C0C0E0D0E002C0C0E0D0E00E9492
:0A0D0A002C03CE01DF91CF91089574
:100D14000F931F93CF93DF93882301F1062F182F8E
:100D24008FE190E00E945506EC01892BC9F0109FD9
:100D3400C001112401960E94550699838883892B4A
:100D440039F01B8F0C8F61E0CE010E94970508C01B
:100D5400CE010E94BE08C0E0D0E002C0C0E0D0E0F6
:0C0D6400CE01DF91CF911F910F910895F7
:100D7000882319F08130A1F0089541E063E081E01B
:100D80000E944A0241E061E082E00E944A0241E0A2
:100D900062E082E00E944A0212BE8BE683BF0895A1
:100DA00041E062E081E00E944A0241E062E082E0CC
:100DB0000E944A0241E062E082E00E944A020895F5
:100DC000882319F0813091F008951CBE40E063E063
:100DD00081E00E94BB0240E061E082E00E94BB0231
:100DE00040E062E082E00E94BB02089540E062E0E1
:100DF00081E00E94BB0240E062E082E00E94BB0210
:0C0E000040E062E082E00E94BB02089526
:100E0C00CF93DF93FC01A085B185C281D38184810E
:100E1C0095819D838C83C481D581828193819B83B1
:100E2C008A8311968D919C911297E817F90731F4EA
:100E3C008481958112969C938E93119711861086BE
:0C0E4C008C9181508C93DF91CF91089520
:100E5800EF92FF921F93CF93DF9300D0CDB7DEB709
:100E68007C0119821A82CE0101960E944D08182F22
:100E7800CE0102960E944D08182B6A8189810E9432
:100E8800A808F70191838083812F0F900F90DF913D
:0A0E9800CF911F91FF90EF90089595
:100EA200990F0008550FAA0BE0E8FEEF1616170679
:100EB200E807F907C0F012161306E407F50798F0E1
:100EC200621B730B840B950B39F40A2661F0232BFA
:100ED200242B252B21F408950A2609F4A140A69576
:080EE2008FEF811D811D0895B1
:100EEA00A1E21A2EAA1BBB1BFD010DC0AA1FBB1F24
:100EFA00EE1FFF1FA217B307E407F50720F0A21B96
:100F0A00B30BE40BF50B661F771F881F991F1A9402
:100F1A0069F760957095809590959B01AC01BD012C
:040F2A00CF01089556
:100F2E00CF93DF939C01FB01DC011196CD91DC91F7
:100F3E001297D383C2838C819D81958384838C8108
:100F4E009D81DC0113967C936E9312977D836C8347
:100F5E0031872087F90180818F5F8083DF91CF9168
:020F6E000895E4
:100F7000E0919106F09192068081811107C08FEF78
:100F80009FEF90938C0680938B060895E0919106D5
:100F9000F09192060580F681E02D0680F781E02D24
:0E0FA0008281938190938C0680938B06089536
:100FAE00052E97FB1EF400940E94360857FD07D0BD
:100FBE000E94750707FC03D04EF40C94360850952A
:0E0FCE004095309521953F4F4F4F5F4F08954E
:100FDC00882319F0813039F00895769567957695C8
:100FEC0067956CBF089576956795769567957BBDEB
:040FFC006ABD08952D
:1010000082B341E065E00E944A021DBC1CBC83EC37
:1010100099E097BD86BD82E88FBD8BE18EBD0895B6
:10102000FC010396928381832FEF3FEF3483238368
:0C10300096838583908787831082089543
:10103C0026B537B52F5F3F4F3695279536952795B3
:0A104C00281B390B3BBD2ABD089597
:10105600EC010E94C0080E94BF08CE010E94C10890
:06106600CE010E94BC084F
:10106C0090958095709561957F4F8F4F9F4F089508
:10107C0057FD03C065917591089561917191089523
:0E108C0087B1806487B986B1876A86B90895F6
:0E109A005F9BFECF2CB1FC01208381E0089506
:0C10A80041E064E081E00E944A020895EB
:0C10B40041E064E081E00E94BB0208956E
:0C10C00040E064E081E00E94BB02089563
:0C10CC0041E060E081E00E944A020895CB
:0C10D80041E060E081E00E94BB0208954E
:0C10E40040E060E081E00E94BB02089543
:0C10F00041E061E081E00E944A020895A6
:0C10FC0041E061E081E00E94BB02089529
:0C11080040E061E081E00E94BB0208951D
:0C11140041E062E081E00E944A02089580
:0C11200041E062E081E00E94BB02089503
:0C112C0040E062E081E00E94BB020895F8
:0C113800809196068F5F809396060895C4
:0C114400EE0FFF1F0590F491E02D0994C0
:0A11500090E0982F8827862B089561
:0A115A000E94510708F481E0089597
:0A1164000E94510708F48FEF089570
:06116E000E949D0318958C
:041174000C940000D7
:041178000E9463006E
:02117C000895D4
:02117E000895D2
:021180000895D0
:021182000895CE
:02118400FFFF6B
:00000001FF
