:100000000C9435000C94E9040C94E9040C94E90474
:100010000C94E9040C94E9040C94E9040C94E904AC
:100020000C94E9040C94E9040C94E9040C94E9049C
:100030000C94E9040C94E9040C94E9040C94E9048C
:100040000C94E9040C94E9040C94E9040C94E9047C
:100050000C94E9043F03430348034D035203570341
:100060005C03610300600065800011241FBECFE5C2
:10007000D8E0DEBFCDBFE4E6F0E040E017C0B591C8
:10008000A59135912591059107FD0CC0959185911C
:10009000EF01F92FE82F05900D92A217B307D9F7BA
:1000A000FE0104C01D92A217B307E1F7E936F40779
:0E00B00031F70E94B4020C946B04F894FFCF59
:1000BE00AF92BF92CF92DF92EF92FF921F93CF93A8
:1000CE00DF93EC01162F5A010E94AA040E94BC0471
:1000DE000E94CE040E94980460E0812F0E946A0262
:1000EE00BE0180E090E00E94F5026B017C0120E0F1
:1000FE0030E040EA51E40E94DF0418162CF00E9412
:10010E00C804F501108263C020E030E040EA51E4FB
:10011E00C701B6010E94E40418167CF420E030E01A
:10012E0040E252E4C701B6010E94DF0418162CF01B
:10013E000E94B604F50110824AC020E030E040E291
:10014E0052E4C701B6010E94E40418166CF420E0D4
:10015E0030E048E452E4C701B6010E94DF041816ED
:10016E001CF00E94A40433C0CF3FD10549F483E0B4
:10017E00F50180830E94A404812F0E94940327C05E
:10018E00CC32F1E0DF0741F481E0F50180830E947B
:10019E00A4040E9492041BC0CE35D14079F48EE5A2
:1001AE00F50180830E94A4040E949204812F0E9474
:1001BE0094038CE291E00E945E0409C00E94A404A4
:1001CE000E94B6040E94C80481E0F5018083DF918D
:1001DE00CF911F91FF90EF90DF90CF90BF90AF9097
:0201EE00089572
:1001F0000F9331B3326031BB31B33E7F31BB3AB183
:1002000038613AB9662319F0613029F007C030B57A
:100210003F7730BD03C030B5306830BD2230F9F0D3
:1002200028F4222341F0213081F036C0233009F137
:10023000243049F131C02AB12B7F2AB920B52B7F58
:1002400020BD20B52D7F20BD27C02AB12B7F2AB924
:1002500020B52B7F20BD20B5226020BD1DC02AB156
:100260002B7F2AB920B5246020BD20B52D7F20BD6D
:1002700013C02AB12B7F2AB920B5246020BD20B538
:10028000226020BD09C02AB124602AB920B52460AB
:1002900020BD20B5226020BD413059F018F0423019
:1002A00079F014C020B52F7D20BD20B52F7E20BD54
:1002B0000DC020B5206220BD20B52F7E20BD06C018
:1002C00020B5206220BD20B5206120BD002319F09B
:1002D000013029F007C020B5277F20BD03C020B51D
:1002E000286020BD9C0122953295307F3227207FE7
:1002F000322740E050E060E071E782E090E00E9449
:1003000025042150310929B930BD81E00F910895AC
:10031000442319F04130C9F10895813091F028F05B
:100320008230D9F0833029F108952AB381E090E03A
:1003300002C0880F991F6A95E2F7809582238ABBD5
:10034000089527B381E090E002C0880F991F6A9555
:10035000E2F78095822387BB089524B381E090E083
:1003600002C0880F991F6A95E2F78095822384BBAB
:10037000089521B381E090E002C0880F991F6A952B
:10038000E2F78095822381BB0895813089F028F0BF
:100390008230C9F0833011F108952AB381E090E0F2
:1003A00002C0880F991F6A95E2F7822B8ABB0895D5
:1003B00027B381E090E002C0880F991F6A95E2F7A9
:1003C000822B87BB089524B381E090E002C0880FA0
:1003D000991F6A95E2F7822B84BB089521B381E0CF
:1003E00090E002C0880F991F6A95E2F7822B81BBCB
:0203F00008956E
:1003F200442319F04130C9F10895813091F028F079
:100402008230D9F0833029F108952BB381E090E056
:1004120002C0880F991F6A95E2F7809582238BBBF1
:10042200089528B381E090E002C0880F991F6A9571
:10043200E2F78095822388BB089525B381E090E09E
:1004420002C0880F991F6A95E2F78095822385BBC7
:10045200089522B381E090E002C0880F991F6A9547
:10046200E2F78095822382BB0895813089F028F0DB
:100472008230C9F0833011F108952BB381E090E00E
:1004820002C0880F991F6A95E2F7822B8BBB0895F1
:1004920028B381E090E002C0880F991F6A95E2F7C5
:1004A200822B88BB089525B381E090E002C0880FBB
:1004B200991F6A95E2F7822B85BB089522B381E0EA
:1004C20090E002C0880F991F6A95E2F7822B82BBE7
:0204D20008958B
:1004D400CF93C62F882319F0813019F141C041E030
:1004E40063E081E00E94F9018DE78CBFCC2319F011
:1004F400C13061F035C041E061E082E00E94F90161
:1005040040E062E082E00E94F9012AC040E061E03C
:1005140082E00E94F90141E062E082E00E94F90178
:100524001FC041E062E081E00E94F901CC2319F090
:10053400C13061F015C041E062E082E00E94F9013F
:1005440040E062E082E00E94F9010AC040E062E01B
:1005540082E00E94F90141E062E082E00E94F90138
:04056400CF91089596
:100568000F9380E00E946C030E944E040E949E0438
:100578000E94B0040E94C2040E948C0460E085E0DE
:100588000E947E0400E023E040E061E080E690E025
:100598000E94F800882309F186EB91E00E945E042E
:1005A80060E080E00E946A0282E690E00E94BA035E
:1005B80080E00E9432039093610080936000BC0148
:1005C80080E00E943C0444E650E060E080916200D4
:1005D800909163000E945F00E7CF80E090E00F9168
:0205E800089574
:1005EA00E89409C097FB3EF49095809570956195C3
:1005FA007F4F8F4F9F4F9923A9F0F92F96E9BB2779
:10060A009395F695879577956795B795F111F8CFF4
:10061A00FAF4BB0F11F460FF1BC06F5F7F4F8F4F5F
:10062A009F4F16C0882311F096E911C0772321F055
:10063A009EE8872F762F05C0662371F096E8862FED
:10064A0070E060E02AF09A95660F771F881FDAF744
:0A065A00880F9695879597F908958B
:10066400E82F84B195B18E2F90E08830910550F534
:10067400FC01E65DFF4F0C94D40487B1887F87B9F1
:1006840021C087B1887F816087B91CC087B1887F0A
:10069400826087B917C087B1887F836087B912C029
:1006A40087B1887F846087B90DC087B1887F8560F2
:1006B40087B908C087B1887F866087B903C087B1CE
:1006C400876087B986B1806486B93699FECF84B1D4
:0406D40095B108953F
:1006D800882319F08130A1F0089541E063E081E0BA
:1006E8000E94880141E061E082E00E94880141E0C7
:1006F80062E082E00E94880112BE8BE683BF089503
:1007080041E062E081E00E94880141E062E082E02D
:100718000E94880141E062E082E00E948801089519
:10072800882319F0813091F008951CBE40E063E001
:1007380081E00E94F90140E061E082E00E94F90155
:1007480040E062E082E00E94F901089540E062E042
:1007580081E00E94F90140E062E082E00E94F90134
:0C07680040E062E082E00E94F901089588
:10077400EF92FF921F93CF93DF9300D0CDB7DEB7F4
:100784007C0119821A82CE0101960E948504182FD9
:10079400CE0102960E948504182B6A8189810E94E9
:1007A400DA04F70191838083812F0F900F90DF91FA
:0A07B400CF911F91FF90EF90089580
:1007BE00990F0008550FAA0BE0E8FEEF1616170664
:1007CE00E807F907C0F012161306E407F50798F0CC
:1007DE00621B730B840B950B39F40A2661F0232BE5
:1007EE00242B252B21F408950A2609F4A140A69561
:0807FE008FEF811D811D08959C
:10080600A1E21A2EAA1BBB1BFD010DC0AA1FBB1F0E
:10081600EE1FFF1FA217B307E407F50720F0A21B80
:10082600B30BE40BF50B661F771F881F991F1A94ED
:1008360069F760957095809590959B01AC01BD0117
:04084600CF01089541
:10084A00052E97FB1EF400940E94760457FD07D0EC
:10085A000E94030407FC03D04EF40C9476045095CE
:0E086A004095309521953F4F4F4F5F4F0895B9
:10087800882319F0813039F0089576956795769533
:1008880067956CBF089576956795769567957BBD56
:040898006ABD089598
:10089C0082B341E065E00E9488011DBC1CBC83EC66
:1008AC0099E097BD86BD82E88FBD8BE18EBD089522
:1008BC0026B537B52F5F3F4F36952795369527953B
:0A08CC00281B390B3BBD2ABD08951F
:1008D600EC010E94EE040E94ED04CE010E94EF049A
:0608E600CE010E94EB04AC
:1008EC0090958095709561957F4F8F4F9F4F089590
:0E08FC0087B1806487B986B1876A86B908958E
:0E090A005F9BFECF2CB1FC01208381E008959D
:0C09180041E064E081E00E948801089545
:0C09240041E064E081E00E94F9010895C8
:0C09300040E064E081E00E94F9010895BD
:0C093C0041E060E081E00E948801089525
:0C09480041E060E081E00E94F9010895A8
:0C09540040E060E081E00E94F90108959D
:0C09600041E061E081E00E948801089500
:0C096C0041E061E081E00E94F901089583
:0C09780040E061E081E00E94F901089578
:0C09840041E062E081E00E9488010895DB
:0C09900041E062E081E00E94F90108955E
:0C099C0040E062E081E00E94F901089553
:0C09A800EE0FFF1F0590F491E02D099464
:0A09B40090E0982F8827862B089505
:0A09BE000E94DF0308F481E00895B1
:0A09C8000E94DF0308F48FEF08958A
:0409D2000C94000081
:0409D6000E945D001E
:0209DA0008957E
:0209DC0008957C
:0209DE0008957A
:00000001FF
